:020000040800F2
:10000000000002206D2B0008352900083D2900085A
:10001000452900084D290008552900080000000066
:100020000000000000000000000000005D29000842
:100030006B290008000000007929000887290008C2
:10004000BD2B0008BD2B0008BD2B0008BD2B0008F0
:10005000BD2B0008BD2B0008BD2B0008BD2B0008E0
:10006000BD2B0008BD2B0008BD2B0008BD2B0008D0
:10007000BD2B0008BD2B0008BD2B0008BD2B0008C0
:10008000BD2B0008BD2B0008BD2B0008BD2B0008B0
:10009000BD2B0008BD2B0008BD2B0008BD2B0008A0
:1000A000BD2B0008BD2B0008BD2B0008BD2B000890
:1000B000BD2B0008BD2B0008BD2B0008BD2B000880
:1000C000BD2B0008BD2B0008BD2B0008BD2B000870
:1000D000BD2B0008BD2B000895290008BD2B00088A
:1000E000BD2B0008BD2B0008BD2B0008BD2B000850
:1000F000BD2B0008BD2B0008BD2B0008BD2B000840
:10010000BD2B0008BD2B0008BD2B0008BD2B00082F
:10011000BD2B0008BD2B0008BD2B0008BD2B00081F
:10012000BD2B0008BD2B0008BD2B0008BD2B00080F
:10013000BD2B0008BD2B0008BD2B0008BD2B0008FF
:10014000BD2B0008BD2B0008BD2B0008A929000805
:10015000BD2B0008BD2B0008BD2B0008BD2B0008DF
:10016000BD2B0008BD2B0008BD2B0008BD2B0008CF
:10017000BD2B0008BD2B0008BD2B000800000000AF
:08018000BD2B0008BD2B000897
:1001900010B5054C237833B9044B13B10448AFF3C1
:1001A00000800123237010BD5C01002000000000CE
:1001B00034E8000808B5034B1BB103490348AFF30B
:1001C000008008BD000000006001002034E8000845
:1001D00010F8012B11F8013B012A28BF9A42F7D0F1
:1001E000D01A7047034613F8012B002AFBD1181AC6
:1001F000013870470000000000000000000000000F
:1002000001F0FF01102A2BDB10F0070F08D010F8C7
:10021000013B013A8B422DD010F0070F42B3F6D1CB
:10022000F0B441EA012141EA014122F007047FF0E4
:1002300000070023F0E80256083C85EA010586EA3B
:10024000010685FA47F5A3FA87F586FA47F6A5FA77
:1002500087F68EB9EED1F0BC01F0FF0102F0070283
:1002600032B110F8013B013A83EA010313B1F8D12E
:100270000020704701387047002D06BF354603380F
:10028000073815F0010F07D1013015F4807F02BF48
:10029000013015F4C03F0130F0BC0138704700BF99
:1002A00081F0004102E000BF83F0004330B54FEA27
:1002B00041044FEA430594EA050F08BF90EA020F94
:1002C0001FBF54EA000C55EA020C7FEA645C7FEA27
:1002D000655C00F0E2804FEA5454D4EB5555B8BF4A
:1002E0006D420CDD2C4480EA020281EA030382EABB
:1002F000000083EA010180EA020281EA0303362D4D
:1003000088BF30BD11F0004F4FEA01314FF4801C1F
:100310004CEA113102D0404261EB410113F0004F31
:100320004FEA03334CEA133302D0524263EB4303E8
:1003300094EA050F00F0A780A4F10104D5F1200E86
:100340000DDB02FA0EFC22FA05F2801841F10001E1
:1003500003FA0EF2801843FA05F359410EE0A5F1B5
:1003600020050EF1200E012A03FA0EFC28BF4CF0E6
:10037000020C43FA05F3C01851EBE37101F000459C
:1003800007D54FF0000EDCF1000C7EEB00006EEBA9
:100390000101B1F5801F1BD3B1F5001F0CD3490833
:1003A0005FEA30004FEA3C0C04F101044FEA44528A
:1003B00012F5800F80F09A80BCF1004F08BF5FEA11
:1003C000500C50F1000041EB045141EA050130BDF1
:1003D0005FEA4C0C404141EB0101013C28BFB1F503
:1003E000801FE9D291F0000F04BF01460020B1FA4E
:1003F00081F308BF2033A3F10B03B3F120020CDA21
:100400000C3208DD02F1140CC2F10C0201FA0CF0FE
:1004100021FA02F10CE002F11402D8BFC2F1200C63
:1004200001FA02F120FA0CFCDCBF41EA0C01904019
:10043000E41AA2BF01EB0451294330BD6FEA040462
:100440001F3C1CDA0C340EDC04F11404C4F120024D
:1004500020FA04F001FA02F340EA030021FA04F35F
:1004600045EA030130BDC4F10C04C4F1200220FAB6
:1004700002F001FA04F340EA0300294630BD21FAF4
:1004800004F0294630BD94F0000F83F4801306BFBA
:1004900081F480110134013D4EE77FEA645C18BFAE
:1004A0007FEA655C29D094EA050F08BF90EA020F45
:1004B00005D054EA000C04BF1946104630BD91EA3D
:1004C000030F1EBF0021002030BD5FEA545C05D140
:1004D0004000494128BF41F0004130BD14F580047F
:1004E0003CBF01F5801130BD01F0004545F0FE41F3
:1004F00041F470014FF0000030BD7FEA645C1ABF28
:10050000194610467FEA655C1CBF0B46024650EA5E
:10051000013406BF52EA033591EA030F41F400218A
:1005200030BD00BF90F0000F04BF0021704730B510
:100530004FF4806404F132044FF000054FF00001E5
:1005400050E700BF90F0000F04BF0021704730B5A6
:100550004FF4806404F1320410F0004548BF40427B
:100560004FF000013EE700BF42004FEAE2014FEAD0
:1005700031014FEA02701FBF12F07F4393F07F4FAB
:1005800081F06051704732F07F4208BF704793F0AE
:100590007F4F04BF41F40021704730B54FF46074C1
:1005A00001F0004521F000411CE700BF50EA0102C4
:1005B00008BF704730B54FF000050AE050EA01026D
:1005C00008BF704730B511F0004502D5404261EBDD
:1005D00041014FF4806404F132045FEA915C3FF41E
:1005E000D8AE4FF003025FEADC0C18BF03325FEABB
:1005F000DC0C18BF033202EBDC02C2F1200300FA6C
:1006000003FC20FA02F001FA03FE40EA0E0021FA90
:1006100002F11444BDE600BF53B94AB9002908BF2E
:1006200000281CBF4FF0FF314FF0FF3000F088B9B9
:10063000ADF1080C6DE904CE00F006F8DDF804E039
:10064000DDE9022304B070472DE9F047089D8E468E
:1006500004468846002B4AD18A42174662D9B2FA2C
:1006600082F64EB1C6F1200301FA06F820FA03F330
:10067000B74043EA0808B4404FEA174E1FFA87FC18
:10068000B8FBFEF1230C0EFB118843EA084301FB83
:100690000CF29A4209D9FB1801F1FF3080F0EA8090
:1006A0009A4240F2E78002393B449A1AA3B2B2FB65
:1006B000FEF00EFB102243EA024300FB0CFC9C45BB
:1006C00009D9FB1800F1FF3280F0D6809C4540F23A
:1006D000D3803B44023840EA0140A3EB0C030021E5
:1006E0001DB1F3400022C5E90032BDE8F0878B421E
:1006F00005D90DB1C5E9000100210846F5E7B3FAB7
:1007000083F1002946D1734502D3824200F205816C
:10071000841A6EEB030201209046002DE5D0C5E956
:100720000048E2E7002A00F09080B2FA82F6002E3C
:1007300040F0A4808A1A030C4FEA174E80B2BCB274
:100740000121B2FBFEFC0EFB1C2243EA024304FB28
:100750000CF29A4207D9FB180CF1FF3802D29A42E8
:1007600000F2E080C4469B1AB3FBFEF20EFB12338C
:1007700040EA034302FB04F49C4207D9FB1802F150
:10078000FF3002D29C4200F2CA8002461B1B42EAA2
:100790000C40A5E7C1F120068B4022FA06F71F4363
:1007A0000EFA01F420FA06F32EFA06FE4FEA174974
:1007B000234300FA01F81FFA87FCBEFBF9F01C0C7A
:1007C00009FB10EE44EA0E4400FB0CFEA64502FABB
:1007D00001F209D93C1900F1FF3A80F09C80A6454E
:1007E00040F2998002383C44A4EB0E041FFA83FEC9
:1007F000B4FBF9F309FB13444EEA044403FB0CFC7D
:10080000A44508D93C1903F1FF3E80F08280A4453D
:100810007FD9023B3C4443EA0040A4EB0C04A0FB1C
:1008200002EC64457346E14662D35FD05DB1B8EB3C
:10083000030264EB090404FA06F622FA01F31E43EC
:10084000CC40C5E9006400214FE7B1FBF2FC010C8C
:1008500041EA0E4180B240EA01423B4638463C46FE
:10086000B846BE462026B1FBF7F1A2EB080241EAEA
:100870000C4166E7014618E710462CE7C6F1200256
:100880002EFA02F3B740B14020FA02F24FEA174EB7
:100890000A43B3FBFEF8BCB20EFB1833110C41EA5D
:1008A000034108FB04F9B04089454FEA104380B288
:1008B0003ED9791808F1FF3C01D289451FD8A1EB38
:1008C0000901B1FBFEF909FB04F80EFB191192B204
:1008D00042EA0142424529D2BA1809F1FF31C4D295
:1008E0004245C2D2A9F102013A44BEE7F0459DD289
:1008F000BEEB02036CEB070C0138E14696E7A7EB71
:1009000009094944A8F1020CB1FBFEF909FB04F8FE
:10091000DBE773467FE7504666E70846FDE63B4463
:10092000023A33E7ACF1020C3B441CE749469CE732
:10093000A1EB0901C446B1FBFEF909FB04F8C4E7C9
:10094000704700BF80B582B000AF78607B6803223B
:100950001A777B68184600F0E0FA00BF0837BD46FA
:1009600080BD80B584B000AF7860786802F002FA8C
:100970000521786802F003FB0346002B04D0786859
:1009800002F0CAFA002308E0786802F083FB03460D
:10099000FB81786802F0C0FAFB8918461037BD4623
:1009A00080BD000080B582B000AF786039607B68A0
:1009B000184600F09FFA7B6800221A777B683A6835
:1009C0005A627B68DB8B002B10D17B681B8B07EE98
:1009D000903AF8EEE77A9FED0F7A67EE877AFCEEB1
:1009E000E77A17EE903A9AB27B68DA837B681B6AE3
:1009F000002B03D17B6842F6E0621A627B685B8E53
:100A0000002B02D17B680A225A8600BF0837BD46F8
:100A100080BD00BF9A99193F80B582B000AF786061
:100A200039607B6801221A777B683A685A62786875
:100A30007B68DB8B1A46012100F08BFA00BF083778
:100A4000BD4680BD80B582B000AF786039607B68FC
:100A500002221A777B683A685A6278687B68DB8B77
:100A60001A46022100F075FA00BF0837BD4680BD66
:100A700080B582B000AF78607B6800221A777B680F
:100A8000184600F04AFA00BF0837BD4680BD80B561
:100A900084B000AF786039607B681B7F002B49D041
:100AA0007B681B7F032B45D07B685B6A3A68D21A50
:100AB0007B681B6A9A4203D97868FFF743FF3AE0E4
:100AC0007B6893F82830002B35D07B68DB6A1846AA
:100AD000FFF747FF0346FB81FB89002B03D17868B2
:100AE000FFF730FF27E0FB897A68528E13447A685B
:100AF000128E934208DA7B681B7F012B1BD039686A
:100B00007868FFF789FF16E0FA897B681B8E194623
:100B10007B685B8E0B449A4208DD7B681B7F022B4F
:100B200009D039687868FFF78DFF04E07868FFF72F
:100B30009FFF00E000BF1037BD4680BD2DE9F043A8
:100B4000BBB00AAF194B1B681846FFF70DFD0446F2
:100B50000D46164B5B681846FFF706FD8046894632
:100B6000124B9B681846FFF7FFFC02460B460F49E5
:100B7000C9680E4800690D4E367DBC460896079040
:100B80000691CDE90423CDE90289CDE90045084A63
:100B9000C02160460CF086FD3B46184601F098FBEC
:100BA00000BFC437BD46BDE8F08300BF7801002018
:100BB0004CE8000880B582B000AF18220021404800
:100BC0000CF0E9FD3E4B0022DA603D4B00221A7525
:100BD00002F05CF878603B4B3B4A1A60394B0122CB
:100BE0009A80384B384A9A60364B02229A81354BAC
:100BF000364A1A61334B00225A61324B4FF47A72F3
:100C00001A83304B4FF41672DA832E4B42F6E062B1
:100C10001A622C4B002283F828202A4B0022DA6229
:100C200079682848FFF7BEFE294B2A4A1A60284BEC
:100C30004FF400729A80264B264A9A60244B4FF458
:100C400000629A81224B214A1A61214B04225A6187
:100C50001F4B4FF47A721A831D4B4FF4FA72DA83EA
:100C60001B4B4FF4FA521A62194B012283F82820C9
:100C7000174B0022DA6279681548FFF793FE164891
:100C800000F0E8F8154800F0C1F81549154800F0E3
:100C9000A3F903461A46144B1A70134B1B78002B0A
:100CA00003D0124801F014FB02E0114801F010FBE0
:100CB000104801F00DFB00BF0837BD4680BD00BFE6
:100CC000780100209001002000040240540300201D
:100CD000C401002000100240F8010020040200209E
:100CE0000003002020020020500200207CE80008C1
:100CF000B4E80008D0E8000880B582B000AF01F089
:100D0000C5FF7860354B1B687A68D31A132B2ED930
:100D1000324A7B68136079683148FFF7B8FE79681A
:100D20003048FFF7B4FE304B1B687A68D31A40F6A0
:100D3000B73293421BD92C4A7B6813602B4B1B782C
:100D4000002B0AD079682648FFF77CFE284801F07E
:100D5000BFFA264B00221A7009E079682048FFF795
:100D60005BFE244801F0B4FA204B01221A70224B9A
:100D70001B687A68D31AB3F57A7F2AD31E4A7B6838
:100D800013601E4801F0C2FA1D4B1B78002B06D0E1
:100D90001C4800F08DF91B4B9B6A184A53600CF0FD
:100DA00081FB0146184B83FB0132CB17D21A134645
:100DB0005B001344CA1A114BDA600CF073FB034654
:100DC000002B03F00103B8BF5B420C4A1361FFF72D
:100DD000B5FE00BF0837BD4680BD00BF54020020ED
:100DE00090010020C40100205C020020600200206D
:100DF000E8E8000814E90008580200207801002003
:100E000050020020200200205655555580B483B072
:100E100000AF78607B6800221A707B6800225A60FD
:100E20007B684FF07E529A607B68094ADA607B6883
:100E30004FF47A621A617B684FF47A625A617B6878
:100E400000221A7600BF0C37BD465DF8047B704760
:100E50000000204180B483B000AF78607B6800223E
:100E60001A707B6800225A707B6800229A707B6837
:100E700000225A607B6800221A7200BF0C37BD4600
:100E80005DF8047B704780B483B000AF78600B4698
:100E90007B807B681B8B7A889A4202D97B681B8B8C
:100EA0007B807B685B69002B05D17B681B691B68B5
:100EB0007A885A6318E07B685B69042B05D17B68EC
:100EC0001B691A687B8893630EE07B685B69082B5B
:100ED00005D17B681B691A687B88D36304E07B6853
:100EE0001B691A687B88136400BF0C37BD465DF828
:100EF000047B704780B582B000AF78607B681A6968
:100F00007B685B691946104606F0A4FB786800F020
:100F100004F800BF0837BD4680BD80B582B000AF81
:100F2000786000217868FFF7AEFF7B6818687B68FF
:100F30009B880022194602F019FE7B6898687B683E
:100F40009B890022194602F011FE00BF0837BD46FA
:100F500080BD80B582B000AF78600B46FB70134651
:100F60003B80FB78012B02D0022B16D02BE07B6854
:100F700018687B689B880022194602F0F7FD7B68A1
:100F800098687B689B890122194602F0EFFD3B8837
:100F900019467868FFF777FF19E07B6818687B6867
:100FA0009B880122194602F0E1FD7B6898687B6806
:100FB0009B890022194602F0D9FD3B8819467868C2
:100FC000FFF761FF03E07868FFF7A7FF00BF00BFEE
:100FD0000837BD4680BD000080B586B002AF78609E
:100FE00039607B683A681A607B68304A5A621E230F
:100FF000BB7307F10E02642300930123EC213868D0
:1010000002F012FF0346002B01D0002349E00A2022
:1010100001F048FE0023FB7333E0FB7B5033DBB26F
:101020005B00DBB2BB7307F10E0264230093012364
:10103000EC21386802F0F8FE0346002B01D00023B3
:101040002FE007F10C02642300930223EC2138689F
:1010500002F0E8FF0346002B01D0002321E03B7B98
:101060001BB21B021AB27B7B1BB213431AB2FB7B6F
:1010700091B27A685B0013440A469A80FB7B013385
:10108000FB73FB7B062BC8D97B68DB88002B05D064
:101090007B68DB884FF6FF72934201D1002300E0AA
:1010A000012318461037BD4680BD00BF0020804494
:1010B0002DE9B04FD2B002AFC7F804014A2387F838
:1010C0000B31D7F80431186807F20B126423009330
:1010D0000123EC2102F0A8FE142001F0E3FD00231F
:1010E00087F80B31D7F80431186807F20B12642324
:1010F00000930123EC2102F097FED7F80431186821
:1011000007F58472642300930323EC2102F08AFF25
:1011100097F808311A0497F809311B021A4397F817
:101120000A3113431A46D7F804315A615A2387F813
:101130000B31D7F80431186807F20B1264230093BF
:101140000123EC2102F070FE142001F0ABFD00231E
:1011500087F80B31D7F80431186807F20B126423B3
:1011600000930123EC2102F05FFED7F804311868E8
:1011700007F58472642300930323EC2102F052FFED
:1011800097F808311A0497F809311B021A4397F8A7
:101190000A3113431A46D7F804319A61D7F804315B
:1011A0009B691A46D7F80431DB891B02D31AC7F8AA
:1011B0003031D7F83031DA17C7F8C830C7F8CC204B
:1011C000D7F804311B8A9BB200221C461546D7E98A
:1011D00032010B4604FB03F2034603FB05F3134401
:1011E0000246A2FB04AB5B449B4652465B46002B87
:1011F00007DAC3495118B96543F10003FB65D7E924
:1012000016234FF000004FF00001D00D40EA4320BC
:10121000D91502460B46134603F5FA631A46D7F86A
:101220000431DA61D7F80431DB889BB20022C7F8B9
:10123000C030C7F8C4204FF000044FF00005D7E9D4
:1012400030121346DD030B4645EA53450B46DC03DB
:10125000D7F804315B899BB20022C7F8B830C7F8D1
:10126000BC20D7F83031DA17C7F8F830C7F8FC20BF
:10127000D7E92E010B46D7E93EAB524602FB03F2FB
:10128000C7E93EAB5B4682468B46514601FB03F302
:1012900013445246D7F8F810A2FB0112C7F8F42005
:1012A0000A46C7F8F020D7F8F4201344C7F8F43002
:1012B000D7E93C23002B07DA12F1FF01396543F12E
:1012C00000037B65D7E914234FF000004FF00001C5
:1012D000100A40EA0360191202460B46A118B964CD
:1012E00045EB0303FB64D7E91234C7E94A34D7F866
:1012F00004311B899BB20022C7F8B030C7F8B42074
:101300004FF000044FF00005D7E92C1213461D04DE
:101310000B4645EA13450B461C04D7F804319B895C
:101320009BB20022C7F8A830C7F8AC20D7F83031FC
:10133000DA17C7F8E830C7F8EC20D7E92A010B46DE
:10134000D7E93AAB524602FB03F2C7E93AAB5B4638
:1013500082468B46514601FB03F313445246D7F8AD
:10136000E810A2FB0112C7F8E4200A46C7F8E02003
:10137000D7F8E4201344C7F8E430D7E93823002B2A
:1013800007DA12F17F01396443F100037B64D7E986
:1013900010234FF000004FF00001D00940EA4360F5
:1013A000D91102460B46A118B96345EB0303FB6351
:1013B000D7E90E34C7E94834D7F80431DB69B3F50F
:1013C000FA6F80F2A180D7F83031DA17C7F8A03071
:1013D000C7F8A420D7F83031DA17C7F89830C7F823
:1013E0009C20D7E928452B46D7E926AB524602FB7D
:1013F00003F25B46214601FB03F3134422465146A8
:10140000A2FB01894B44994642464B4691183963E9
:101410005B417B63D7E90C2312EB0801C7F89010FE
:1014200043EB0903C7F89430D7E92423002B06DAED
:10143000511EB96243F10103FB62D7E90A234FF061
:1014400000004FF000015810D91702460B46134612
:10145000C7F83431D7F80431DB69A3F5FA62D7F85D
:101460000431DB69A3F5FA6303FB02F213465B0068
:101470001A44D30F13445B10C7F83831D7F804313E
:10148000DB69A3F5FA62D7F80431DB69A3F5FA63E7
:1014900003FB02F213469B001344002B00DA0733D0
:1014A000DB10C7F83C31D7F80431DA69154B9A42A2
:1014B0007EDAD7F80431DB6903F2DC52D7F8043165
:1014C000DB6903F2DC5303FB02F21346DB009A1ADA
:1014D000D7F838311344C7F83831D7F80431DB690D
:1014E00003F2DC52D7F80431DB6903F2DC5302FB70
:1014F00003F39A00D7F83C311344C7F83C3157E066
:10150000FFFF7F0024FAFFFFD7F83031DA17C7F862
:101510008830C7F88C20D7F83031DA17C7F8803018
:10152000C7F88420D7E922452B46D7E920894246CF
:1015300002FB03F24B46214601FB03F31344224610
:101540004146A2FB0112C7F8DC200A46C7F8D820A2
:10155000D7F8DC201344C7F8DC30D7E93623002B5A
:1015600006DA511E396243F10F037B62D7E9082383
:101570004FF000004FF000011811D91702460B463A
:101580001346C7F83431D7F80431DB69A3F5FA62A2
:10159000D7F80431DB69A3F5FA6302FB03F3002BF0
:1015A00000DA0F331B11C7F838310023C7F83C317C
:1015B000D7F83831DA17BB67FA67D7E94823D7E994
:1015C0001E452146511AB961294663EB0103FB61AF
:1015D000D7E90634C7E94634D7F83C31DA173B6718
:1015E0007A67D7E94A23D7E91C452146511A396160
:1015F000294663EB01037B61D7E90434C7E944342E
:10160000D7F80431DA69D7F83431D21AD7F804316F
:10161000DA61D7F804315B690022BB66FA66D7F855
:101620001031D7E91A452A4602FB03F2D7F81431E4
:10163000214601FB03F31344D7F810212146A2FBF6
:101640000112C7F8D4200A46C7F8D020D7F8D42012
:101650001344C7F8D430D7E93423002B07DA3549CF
:101660005118B96043F10003FB60D7E902234FF042
:1016700000004FF00001500D40EAC3205915D7E992
:101680004623841A3C6661EB03037B66D7E9182383
:10169000002B08DA41F6FF715118396043F100035D
:1016A0007B60D7E900234FF000004FF00001500BA2
:1016B00040EAC340591302460B46D7F804311A6278
:1016C000D7F80431DB6907EE903AB8EEE77ADFED40
:1016D0001A6AC7EE267AD7F80431C3ED0B7AD7F829
:1016E00004311B6A07EE903AB8EEE77AF2EE046A2C
:1016F000C7EE267A9FED107A67EE877AC7ED437AB8
:10170000D7ED437A9FED0D7A77EEC76AD7F80431AB
:10171000D3ED097A9FED0A7A27EE877AC6EE877AAB
:10172000D7F80431C3ED0A7A00BF07F5A077BD46AC
:10173000BDE8B08FFFFF1F000000C84200DAC547B8
:101740000AE81C412DE9F04FEDB010AF0023C7F8B7
:101750006C314FF00003C7F8683101F031FA00F046
:10176000C9FA00F0F7FC0BF055F900F0C9FC00F0E5
:1017700069FC00F07BFB00F027FB00F0A5FB00F00C
:10178000D1FB18220021A5480CF005F8A34B00223C
:10179000DA60A24B00221A7501F078FA0346184667
:1017A0000BF052FEFFF706FA9D4800F091FD9D48B0
:1017B00000F08EFD642001F075FA0023C7F8643153
:1017C000012387F8633123E097F863319BB25B0014
:1017D00099B20A230122944803F082F90346002BB0
:1017E00011D197F8633107F15000904A32210BF084
:1017F00059FF07F15003184600F06AFDD7F864312D
:101800000133C7F8643197F86331013387F86331E6
:1018100097F96331002BD7DAD7F86431002B02D166
:10182000834800F055FD642001F03CFA002387F85E
:101830005A31642302930123019307F5AD7300939A
:10184000012300225021784802F018FF0346002BA4
:1018500079D197F85A31A02B75D1764B28221A707E
:10186000754800F035FD002387F85931714B1B781E
:101870005B0099B2642302930123019307F2591389
:10188000009301233D22684802F0FEFD192001F07B
:1018900009FA0C2387F85831664B1B785B0099B224
:1018A000642302930123019307F5AC730093012392
:1018B0003D225D4802F0E8FD642001F0F3F90023C9
:1018C00087F857315B4B1B785B0099B26423029316
:1018D0000123019307F25713009301233D2252483D
:1018E00002F0CCFE97F8573107F11C00534A322121
:1018F0000BF0D8FE07F11C03184600F0E9FC0023AA
:1019000087F856314B4B1B785B0099B264230293E6
:101910000123019307F5AB7300930123352242485D
:1019200002F0ACFE97F8563107F15000444A3221DC
:101930000BF0B8FE07F15003184600F0C9FC41480F
:1019400000F0C6FC87E0642302930123019307F5AE
:10195000AD730093012300225221334802F08EFE22
:101960000346002B74D197F85A31A02B70D1314B1C
:1019700029221A70344800F0ABFC002387F8553157
:101980002C4B1B785B0099B26423029301230193D3
:1019900007F25513009301233D22234802F074FD02
:1019A000192001F07FF90C2387F85431214B1B7863
:1019B0005B0099B2642302930123019307F5AA7394
:1019C000009301233D22184802F05EFD642001F0DF
:1019D00069F9002387F85331164B1B785B0099B2E5
:1019E000642302930123019307F25313009301230D
:1019F0003D220D4802F042FE97F8533107F15000A6
:101A00000E4A32210BF04EFE07F15003184600F04B
:101A10005FFC0E4800F05CFC1DE000BF2C040020C1
:101A200040E9000860E90008AC02002078E90008FD
:101A300098E9000800000020C4E90008E4E9000873
:101A4000FCE9000814EA00082CEA00084CEA000847
:101A5000954800F03DFCFFF74FF901F017F9C7F882
:101A60005C01924B1B68D7F85C21D31A4FF47A7251
:101A70009342F0D38D4AD7F85C3113608C4B1B78BE
:101A80005B0099B26423029306230193894B009370
:101A900001231A22884802F0F1FD034687F85B31E2
:101AA00097F85B31002B67D1824B5B781BB21B022E
:101AB0001AB2804B1B781BB213431AB27F4B1A80A9
:101AC0007C4BDB781BB21B021AB27A4B9B781BB2A1
:101AD00013431AB27A4B1A80764B5B791BB21B0206
:101AE0001AB2744B1B791BB213431AB2754B1A808E
:101AF000724BB3F9003007EE903AB8EEE77AF3EEA6
:101B0000006AC7EE267A704BC3ED007A6C4BB3F9CE
:101B1000003007EE903AB8EEE77AF3EE006AC7EECF
:101B2000267A6A4BC3ED007A664BB3F9003007EEB4
:101B3000903AB8EEE77AF3EE006AC7EE267A644B85
:101B4000C3ED007A5F4BB3F9003019465C4BB3F933
:101B500000301A46594BB3F9003007F15000019399
:101B600000920B465B4A64210BF09CFD07F1500389
:101B7000184600F0ADFB0BE0574B1B68022B07DC4F
:101B8000564800F0A5FB544B1B680133524A1360C2
:101B9000534801F0EFF80A21514801F0F0F90346EB
:101BA000002B10D14E4801F075FAC7F86C01D7F838
:101BB0006C3107EE903AF8EE677A9FED4A7A67EE5D
:101BC000877AC7ED5A7A464801F0A6F9464800F0F0
:101BD0009DFB0BF067FC0146444B83FB0132CB17A6
:101BE000D21A13465B001344CA1A3F4BDA600BF05B
:101BF00059FC0346002B03F00103B8BF5B423A4A8D
:101C00001361394B1B681846FEF7AEFC80468946C7
:101C1000354B5B681846FEF7A7FC82468B46D7F823
:101C20006801FEF7A1FCC7E904012F4BDB68FB60EC
:101C30002D4B1A69BA60264B1B681846FEF794FCB8
:101C4000C7E90001214B1B681846FEF78DFC0446CE
:101C50000D461D4B1B681846FEF786FC07F1500623
:101C6000D7F86C310E93CDE90C01CDE90A4597ED1B
:101C7000007B8DED087BBA680792FB68069397EDB1
:101C8000047B8DED047BCDE902ABCDE90089184AD8
:101C90004FF4807130460BF005FD07F150031846F4
:101CA00000F016FBD7E600BF6CEA000844040020F1
:101CB0000000002048040020AC0200205204002054
:101CC000500400204E0400205C0400205804002032
:101CD0005404002098EA0008A8040020B0EA000894
:101CE000640200206740533A2C0400205655555595
:101CF000C4EA000880B594B000AF07F12003302299
:101D0000002118460BF047FD07F10C0300221A6072
:101D10005A609A60DA601A610023BB60284B1B6C22
:101D2000274A43F080531364254B1B6C03F0805308
:101D3000BB60BB6800237B60224B1B68214A43F4D5
:101D4000804313601F4B1B6803F480437B607B68F8
:101D500001233B624FF480337B620223BB634FF469
:101D60008003FB6308233B644FF4A8737B64022366
:101D7000BB640723FB6407F12003184604F034FF1B
:101D80000346002B01D000F0FBFB0F23FB60022376
:101D90003B6100237B614FF4A053BB614FF4805340
:101DA000FB6107F10C030521184605F095F9034680
:101DB000002B01D000F0E4FB00BF5037BD4680BDD2
:101DC000003802400070004080B584B000AF3B4650
:101DD00000221A605A609A60DA60214B214A1A6028
:101DE0001F4B4FF480325A601D4B00229A601C4BEF
:101DF00000221A611A4B00221A76194B002283F82E
:101E00002020174B0022DA62154B174A9A62144BB6
:101E10000022DA60124B0122DA61114B002283F8B2
:101E200030200F4B01225A610D4800F05FFF03463E
:101E3000002B01D000F0A4FB00233B6001237B605A
:101E40000023BB603B461946054801F031F90346C3
:101E5000002B01D000F094FB00BF1037BD4680BDC1
:101E600064020020002001400100000F80B500AF97
:101E7000124B134A1A60114B124A5A600F4B002240
:101E80009A600E4B0022DA600C4B4FF480421A61CC
:101E90000A4B00225A61094B00229A61074B00222B
:101EA000DA61064B00221A62044801F079FE03460B
:101EB000002B01D000F064FB00BF80BDAC0200200D
:101EC00000540040A086010080B500AF124B134AB9
:101ED0001A60114B124A5A600F4B00229A600E4B47
:101EE0000022DA600C4B4FF480421A610A4B002248
:101EF0005A61094B00229A61074B0022DA61064BB6
:101F000000221A62044801F04BFE0346002B01D068
:101F100000F036FB00BF80BD0003002000580040E9
:101F2000A086010080B592B000AF07F14003002207
:101F30001A605A6007F1240300221A605A609A60FE
:101F4000DA601A615A619A613B1D2022002118460D
:101F50000BF021FC394B3A4A1A60384BA7225A60E1
:101F6000364B00229A60354B4FF47A72DA60334B6D
:101F700000221A61314B00225A61304B00229A61D3
:101F80002E4805F018FB0346002B01D000F0F8FAAC
:101F900000233B6400237B6407F140031946274874
:101FA00006F0C0F80346002B01D000F0E9FA6023E8
:101FB0007B620023BB620023FB6200233B630023A0
:101FC0007B630023BB630023FB6307F12403002230
:101FD00019461A4805F006FC0346002B01D000F014
:101FE000CFFA07F1240304221946144805F0FAFB3E
:101FF0000346002B01D000F0C3FA00237B600023CE
:10200000BB600023FB6000233B6100237B614FF436
:102010000053BB6100233B623B1D1946074806F095
:10202000FDF80346002B01D000F0AAFA034800F0A7
:10203000D7FB00BF4837BD4680BD00BF540300201A
:102040000000014080B588B000AF00237B602A4BC0
:102050001B6C294A43F001031364274B1B6C03F0EC
:1020600001037B607B6807F1100300221A605A604D
:102070009A60DA6007F1080300221A605A601F4B69
:102080004FF080421A601D4BA7225A601B4B002262
:102090009A601A4B4FF6FF72DA60184B00221A61F1
:1020A000164B00229A61154805F036FA0346002BBC
:1020B00001D000F065FA4FF480533B6107F1100343
:1020C00019460E4805F050FC0346002B01D000F0E5
:1020D00057FA0023BB600023FB6007F10803194691
:1020E000064806F01FF80346002B01D000F048FA1E
:1020F00000BF2037BD4680BD003802409C03002051
:1021000080B500AF114B124A1A60104B4FF41652B3
:102110005A600E4B00229A600C4B0022DA600B4B87
:1021200000221A61094B0C225A61084B00229A6165
:10213000064B0022DA61054806F0C2F80346002B80
:1021400001D000F01DFA00BF80BD00BFE4030020F5
:102150000044004080B58AB000AF07F114030022AC
:102160001A605A609A60DA601A6100233B61544B2E
:102170001B6B534A43F080031363514B1B6B03F0FB
:1021800080033B613B690023FB604D4B1B6B4C4A5A
:1021900043F0010313634A4B1B6B03F00103FB6025
:1021A000FB680023BB60464B1B6B454A43F00203B0
:1021B0001363434B1B6B03F00203BB60BB6800233C
:1021C0007B603F4B1B6B3E4A43F0100313633C4B59
:1021D0001B6B03F010037B607B6800233B60384B74
:1021E0001B6B374A43F008031363354B1B6B03F03B
:1021F00008033B603B6800220321324801F0B6FC33
:1022000000224FF42061304801F0B0FC02237B61D2
:102210000023BB610023FB6107F1140319462B481F
:1022200001F008FB03237B610123BB610023FB61F9
:1022300000233B6207F114031946224801F0FAFA21
:102240004FF420637B610123BB610023FB6100230A
:102250003B6207F1140319461B4801F0EBFA012316
:102260007B610123BB610023FB6100233B6207F11B
:1022700014031946154801F0DDFA02237B6100239F
:10228000BB610023FB6107F1140319460F4801F0FD
:10229000D1FAC0237B610123BB610023FB610023D2
:1022A0003B6207F114031946084801F0C3FA012202
:1022B000C021064801F05AFC00BF2837BD4680BD4A
:1022C00000380240000402400010024000000240BA
:1022D00080B582B000AF78607868FDF783FF034671
:1022E0009AB264237968084806F03AF87868FDF7EE
:1022F00079FF03469BB2194678680AF049FC00BF93
:102300000837BD4680BD00BFE403002080B584B01F
:1023100000AF78600BF0C6F80346464A82FB031212
:102320005110DA178A1AC92101FB02F29A1A07EE34
:10233000902AB8EEE77ADFED406AC7EE267AB2EE71
:10234000067A77EE877A7B68C3ED007A0BF0AAF8FD
:1023500002463A4B83FB021313445911D317C91A8F
:102360000B465B000B4419010B44D11A07EE901A7F
:10237000B8EEE77ADFED306AC7EE267AC7ED037A6A
:102380002F4B1B78002B1AD07B6893ED017AD7ED89
:10239000037A77EE277A7B68C3ED017A7B68D3ED09
:1023A000017A9FED287AF4EEC77AF1EE10FA1FDB7E
:1023B0007B68254A5A60224B00221A7018E07B681D
:1023C00093ED017AD7ED037A77EE677A7B68C3EDF8
:1023D000017A7B68D3ED017AF5EEC07AF1EE10FA5E
:1023E00006D87B684FF000025A60154B01221A7024
:1023F0000BF058F80346154A82FB03129112DA17C4
:102400008A1A40F6C51101FB02F29A1A07EE902AC9
:10241000B8EEE77ADFED086AC7EE267A9FED0C7A10
:1024200077EE877A7B68C3ED027A00BF1037BD462E
:1024300080BD00BF79198C020000C842A1A0A0A0F5
:10244000010000200000484200004842FFCFD06851
:1024500000008C4280B582B000AF78600B467B8074
:102460007B88002B07D07B883F2B04D87B887A6839
:10247000134400221A7017497868FDF7A9FE034635
:10248000002B06D1144B01221A751448FFF720FFC8
:102490001BE013497868FDF79BFE0346002B06D12D
:1024A0000D4B00221A750F48FFF712FF0DE00E4981
:1024B0007868FDF78DFE0346002B03D10B48FFF72C
:1024C00007FF02E00A48FFF703FF00BF0837BD46D9
:1024D00080BD00BF14EB00082C04002024EB000892
:1024E0003CEB00084CEB000864EB000874EB0008C0
:1024F00088EB000880B582B000AF78607B681A680E
:102500001B4B1B689A422ED11A4B1B780A2B03D007
:10251000184B1B780D2B12D1174B1B88002B1DD08D
:10252000154B1B8819461548FFF794FF124B0022E4
:102530001A804022002111480BF02DF90EE00E4BBD
:102540001B883E2B0AD80C4B1B885A1C91B20A4A96
:1025500011801A46074B1978084B995401220549F6
:10256000034805F088FF00BF0837BD4680BD00BFA7
:10257000E403002060040020A40400206404002080
:1025800080B400AF72B600BF00BFFDE780B483B077
:1025900000AF00237B60104B5B6C0F4A43F4804319
:1025A00053640D4B5B6C03F480437B607B680023BA
:1025B0003B60094B1B6C084A43F080531364064B85
:1025C0001B6C03F080533B603B6800BF0C37BD467B
:1025D0005DF8047B704700BF0038024080B58AB0C8
:1025E00000AF786007F1140300221A605A609A6005
:1025F000DA601A617B681B68174A934227D100236F
:102600003B61164B5B6C154A43F480735364134B68
:102610005B6C03F480733B613B690023FB600F4BF1
:102620001B6B0E4A43F0010313630C4B1B6B03F04F
:102630000103FB60FB6801237B610323BB61002373
:10264000FB6107F114031946054801F0F3F800BFD8
:102650002837BD4680BD00BF002001400038024041
:102660000000024080B58CB000AF786007F11C0319
:1026700000221A605A609A60DA601A617B681B68EF
:10268000324A93422CD10023BB61314B1B6B304A41
:1026900043F0020313632E4B1B6B03F00203BB6179
:1026A000BB69C023FB6112233B6200237B620323CF
:1026B000BB620423FB6207F11C031946254801F0A5
:1026C000B9F800237B61224B1B6C214A43F40013B1
:1026D00013641F4B1B6C03F400137B617B6931E0B7
:1026E0007B681B681C4A93422CD100233B61184B2A
:1026F0001B6B174A43F002031363154B1B6B03F06C
:1027000002033B613B694FF44063FB6112233B6270
:1027100000237B620323BB620423FB6207F11C03DB
:1027200019460C4801F086F80023FB60084B1B6C2F
:10273000074A43F480031364054B1B6C03F48003C6
:10274000FB60FB6800BF3037BD4680BD00540040D1
:1027500000380240000402400058004080B485B0B8
:1027600000AF78607B681B680B4A93420DD1002351
:10277000FB600A4B5B6C094A43F001035364074B4F
:102780005B6C03F00103FB60FB6800BF1437BD46C0
:102790005DF8047B704700BF000001400038024034
:1027A00080B485B000AF78607B681B68B3F1804F60
:1027B0000DD10023FB60094B1B6C084A43F0010359
:1027C0001364064B1B6C03F00103FB60FB6800BF46
:1027D0001437BD465DF8047B704700BF00380240E7
:1027E00080B588B000AF786007F10C0300221A6052
:1027F0005A609A60DA601A617B681B68124A9342D9
:102800001ED10023BB60114B1B6B104A43F0010328
:1028100013630E4B1B6B03F00103BB60BB684FF4EB
:102820004073FB6002233B6100237B610023BB619B
:102830000123FB6107F10C031946054800F0FAFF7C
:1028400000BF2037BD4680BD000001400038024077
:102850000000024080B58AB000AF786007F1140331
:1028600000221A605A609A60DA601A617B681B68FD
:102870002C4A934251D100233B612B4B1B6C2A4ABB
:1028800043F400331364284B1B6C03F400333B61A7
:102890003B690023FB60244B1B6B234A43F001037D
:1028A0001363214B1B6B03F00103FB60FB680023E8
:1028B000BB601D4B1B6B1C4A43F0080313631A4B90
:1028C0001B6B03F00803BB60BB6804237B6102231E
:1028D000BB610023FB6103233B6207237B6207F19B
:1028E00014031946114800F0A5FF40237B61022321
:1028F000BB610023FB6103233B6207237B6207F17B
:10290000140319460A4800F095FF002200212620F2
:1029100000F0C7FE262000F0E0FE00BF2837BD46CD
:1029200080BD00BF0044004000380240000002406B
:10293000000C024080B400AF00BFFDE780B400AFE0
:1029400000BFFDE780B400AF00BFFDE780B400AF7B
:1029500000BFFDE780B400AF00BFFDE780B400AF6B
:1029600000BFBD465DF8047B704780B400AF00BF78
:10297000BD465DF8047B704780B400AF00BFBD4624
:102980005DF8047B704780B500AF00F06BF900BFC5
:1029900080BD000080B500AF024805F091FD00BF8A
:1029A00080BD00BFE403002080B500AF024803F003
:1029B0000DF800BF80BD00BF9419002080B400AFA7
:1029C00001231846BD465DF8047B704780B582B090
:1029D00000AF786039600AF02DFF034616221A60B6
:1029E0004FF0FF3318460837BD4680BD80B582B032
:1029F00000AF78604FF0FF317868FFF7E7FF00BF66
:102A0000FDE780B586B000AFF860B9607A6000235A
:102A10007B610AE0AFF300800146BB685A1CBA60D4
:102A2000CAB21A707B6901337B617A697B689A420A
:102A3000F0DB7B6818461837BD4680BD80B586B090
:102A400000AFF860B9607A6000237B6109E0BB6881
:102A50005A1CBA601B781846AFF300807B690133BB
:102A60007B617A697B689A42F1DB7B68184618378C
:102A7000BD4680BD80B483B000AF78604FF0FF33B7
:102A800018460C37BD465DF8047B704780B483B0B0
:102A900000AF786039603B684FF400525A60002301
:102AA00018460C37BD465DF8047B704780B483B090
:102AB00000AF7860012318460C37BD465DF8047BF3
:102AC000704780B485B000AFF860B9607A600023C9
:102AD00018461437BD465DF8047B704780B586B054
:102AE00000AF7860144A154BD31A7B617B693B6158
:102AF000134B1B68002B02D1114B124A1A60104B6A
:102B00001A687B6813443A699A4207D20AF092FE27
:102B100003460C221A604FF0FF3309E0084B1B6894
:102B2000FB60074B1A687B681344054A1360FB6817
:102B300018461837BD4680BD000002200004000082
:102B4000AC040020E821002080B400AF064BD3F88D
:102B50008830054A43F47003C2F8883000BFBD4690
:102B60005DF8047B704700BF00ED00E0DFF834D073
:102B7000FFF7EAFF0C480D490D4A002302E0D45844
:102B8000C4500433C4188C42F9D30A4A0A4C0023B7
:102B900001E013600432A242FBD30AF051FEFEF7BB
:102BA000D1FD704700000220000000205C010020E1
:102BB000F0EC00085C010020E4210020FEE70000AA
:102BC00080B500AF0E4B1B680D4A43F400731360D1
:102BD0000B4B1B680A4A43F480631360084B1B6865
:102BE000074A43F480731360032000F04FFD0F2069
:102BF00000F008F8FFF7CAFC0023184680BD00BFAC
:102C0000003C024080B582B000AF7860124B1A6879
:102C1000124B1B7819464FF47A73B3FBF1F3B2FBF6
:102C2000F3F3184600F067FD0346002B01D00123A3
:102C30000EE07B680F2B0AD8002279684FF0FF3036
:102C400000F02FFD064A7B681360002300E001239B
:102C500018460837BD4680BD040000200C00002047
:102C60000800002080B400AF064B1B781A46064BC4
:102C70001B681344044A136000BFBD465DF8047B23
:102C8000704700BF0C000020B004002080B400AFEB
:102C9000034B1B681846BD465DF8047B704700BFB8
:102CA000B004002080B584B000AF7860FFF7EEFF7D
:102CB000B8607B68FB60FB68B3F1FF3F05D00A4B4F
:102CC0001B781A46FB681344FB6000BFFFF7DEFF6A
:102CD0000246BB68D31AFA689A42F7D800BF00BF11
:102CE0001037BD4680BD00BF0C00002080B584B009
:102CF00000AF78600023FB737B68002B01D10123B8
:102D000033E07B681B6C002B09D17868FFF766FC09
:102D10007B6800225A647B68002283F83C207B6831
:102D20001B6C03F01003002B18D17B681B6C23F481
:102D3000885323F0020343F002027B681A64786828
:102D400000F0D8FA7B6800225A647B681B6C23F081
:102D5000030343F001027B681A6401E00123FB7363
:102D60007B68002283F83C20FB7B18461037BD4669
:102D700080BD000080B485B000AF78600023BB60E8
:102D80007B6893F83C30012B01D10223B2E07B68D1
:102D9000012283F83C207B681B689B6803F00103D9
:102DA000012B18D07B681B689A687B681B6842F00F
:102DB00001029A60524B1B68524AA2FB03239A0CF1
:102DC00013465B001344BB6002E0BB68013BBB6081
:102DD000BB68002BF9D17B681B689B6803F001037B
:102DE000012B7AD17B681B6C23F4E06323F0010391
:102DF00043F480727B681A647B681B685B6803F429
:102E00008063002B07D07B681B6C23F4405343F492
:102E100080527B681A647B681B6C03F48053B3F5A3
:102E2000805F06D17B685B6C23F006027B685A6486
:102E300002E07B6800225A647B68002283F83C2011
:102E4000314BFB607B681B686FF022021A60FB68E5
:102E50005B6803F01F03002B2AD17B681B682B4A99
:102E6000934215D07B681B68294A934205D1264BB3
:102E70005B6803F01F03002B0AD07B681B68254AA0
:102E8000934236D1204B5B6803F01003002B30D106
:102E90007B681B689B6803F04053002B29D17B683B
:102EA0001B689A687B681B6842F080429A6020E049
:102EB0007B681B68154A93421BD17B681B689B6823
:102EC00003F04053002B14D17B681B689A687B6821
:102ED0001B6842F080429A600BE07B681B6C43F0F9
:102EE00010027B681A647B685B6C43F001027B68AC
:102EF0005A64002318461437BD465DF8047B7047BA
:102F00000400002083DE1B43002301400020014019
:102F1000002101400022014080B483B000AF7860FE
:102F20007B6893F83C30012B01D1022321E07B68C0
:102F3000012283F83C207B681B689A687B681B68C9
:102F400022F001029A607B681B689B6803F0010312
:102F5000002B09D17B681B6C23F4885323F00103F9
:102F600043F001027B681A647B68002283F83C20EE
:102F7000002318460C37BD465DF8047B704780B5CA
:102F800084B000AF786039600023FB607B681B6809
:102F90009B6803F48063B3F5806F13D17B681B6873
:102FA0009B6803F48073B3F5807F0BD17B681B6C47
:102FB00043F020027B681A647B68002283F83C207F
:102FC000012363E0FFF762FEF86021E03B68B3F1A4
:102FD000FF3F1DD03B68002B07D0FFF757FE02468E
:102FE000FB68D31A3A689A4212D27B681B681B6846
:102FF00003F00203022B0BD07B681B6C43F004022E
:103000007B681A647B68002283F83C2003233DE040
:103010007B681B681B6803F00203022BD6D17B6818
:103020001B686FF012021A607B681B6C43F400721D
:103030007B681A647B681B689B6803F04053002B15
:1030400023D17B681B7E002B1FD17B681B68DB6A4A
:1030500003F47003002B06D07B681B689B6803F4A5
:103060008063002B11D17B681B6C23F480727B681A
:103070001A647B681B6C03F48053002B05D17B68BA
:103080001B6C43F001027B681A640023184610375A
:10309000BD4680BD80B483B000AF78607B681B689C
:1030A000DB6C18460C37BD465DF8047B70470000AA
:1030B00080B485B000AF786039600023BB607B6866
:1030C00093F83C30012B01D1022305E17B680122FA
:1030D00083F83C203B681B68092B25D97B681B685B
:1030E000D9683B681B689BB21A4613465B001344C1
:1030F0001E3B072202FA03F3DA437B681B680A408F
:10310000DA607B681B68D9683B689A683B681B6813
:103110009BB2184603465B0003441E3B9A407B6803
:103120001B680A43DA6022E07B681B6819693B6808
:103130001B689BB21A4613465B001344072202FA2F
:1031400003F3DA437B681B680A401A617B681B68DB
:1031500019693B689A683B681B689BB2184603462E
:103160005B0003449A407B681B680A431A613B6812
:103170005B68062B24D87B681B68596B3B685A68D0
:1031800013469B001344053B1F2202FA03F3DA4364
:103190007B681B680A405A637B681B68596B3B68F5
:1031A0001B689BB218463B685A6813469B00134441
:1031B000053B00FA03F27B681B680A435A634CE044
:1031C0003B685B680C2B24D87B681B68196B3B68D9
:1031D0005A6813469B001344233B1F2202FA03F351
:1031E000DA437B681B680A401A637B681B68196BAB
:1031F0003B681B689BB218463B685A6813469B00A5
:103200001344233B00FA03F27B681B680A431A63EA
:1032100023E07B681B68D96A3B685A6813469B00A9
:103220001344413B1F2202FA03F3DA437B681B6815
:103230000A40DA627B681B68D96A3B681B689BB2EC
:1032400018463B685A6813469B001344413B00FAFA
:1032500003F27B681B680A43DA62224BFB607B68DF
:103260001B68214A934209D13B681B68122B05D188
:10327000FB685B6843F48002FB685A607B681B68EC
:10328000194A934223D13B681B68102B03D03B683B
:103290001B68112B1BD1FB685B6843F40002FB68C1
:1032A0005A603B681B68102B11D1104B1B68104AE9
:1032B000A2FB03239A0C13469B0013445B00BB60E4
:1032C00002E0BB68013BBB60BB68002BF9D17B68A7
:1032D000002283F83C20002318461437BD465DF8D1
:1032E000047B7047002301400020014004000020BF
:1032F00083DE1B4380B485B000AF7860794BFB6000
:10330000FB685B6823F44032FB685A60FB685A68CC
:103310007B685B681A43FB685A607B681B685A6865
:103320007B681B6822F480725A607B681B6859684E
:103330007B681B691A027B681B680A435A607B68BA
:103340001B685A687B681B6822F040725A607B6871
:103350001B6859687B689A687B681B680A435A60D7
:103360007B681B689A687B681B6822F400629A601D
:103370007B681B6899687B68DA687B681B680A430E
:103380009A607B689B6A584A934222D07B681B688C
:103390009A687B681B6822F070629A607B681B6881
:1033A00099687B689A6A7B681B680A439A607B68A5
:1033B0001B689A687B681B6822F040529A607B68A1
:1033C0001B6899687B68DA6A7B681B680A439A60A5
:1033D0000FE07B681B689A687B681B6822F070624C
:1033E0009A607B681B689A687B681B6822F0405271
:1033F0009A607B681B689A687B681B6822F00202EF
:103400009A607B681B6899687B681B7E5A007B68A2
:103410001B680A439A607B6893F82030002B1BD00E
:103420007B681B685A687B681B6842F400625A60BC
:103430007B681B685A687B681B6822F460425A608C
:103440007B681B6859687B685B6A013B5A037B6831
:103450001B680A435A6007E07B681B685A687B68F0
:103460001B6822F400625A607B681B68DA6A7B681A
:103470001B6822F47002DA627B681B68D96A7B6879
:10348000DB69013B1A057B681B680A43DA627B68CB
:103490001B689A687B681B6822F400729A607B68DC
:1034A0001B6899687B6893F830305A027B681B6808
:1034B0000A439A607B681B689A687B681B6822F4E1
:1034C00080629A607B681B6899687B685B699A0276
:1034D0007B681B680A439A6000BF1437BD465DF8DD
:1034E000047B7047002301400100000F80B485B0C9
:1034F00000AF78607B6803F00703FB600C4BDB6870
:10350000BB60BA684FF6FF031340BB60FB681A024A
:10351000BB68134343F0BF6343F40033BB60044A0A
:10352000BB68D36000BF1437BD465DF8047B7047AD
:1035300000ED00E080B400AF044BDB681B0A03F031
:1035400007031846BD465DF8047B704700ED00E0B8
:1035500080B483B000AF0346FB7197F90730002BAE
:103560000BDBFB7903F01F02074997F907305B0972
:10357000012000FA02F241F8232000BF0C37BD46BB
:103580005DF8047B704700BF00E100E080B483B0C9
:1035900000AF03463960FB7197F90730002B0ADB57
:1035A0003B68DAB20C4997F907301201D2B20B44EA
:1035B00083F800230AE03B68DAB20849FB7903F09C
:1035C0000F03043B1201D2B20B441A7600BF0C3732
:1035D000BD465DF8047B704700E100E000ED00E0CF
:1035E00080B489B000AFF860B9607A60FB6803F01E
:1035F0000703FB61FB69C3F10703042B28BF042306
:10360000BB61FB690433062B02D9FB69033B00E075
:1036100000237B614FF0FF32BB6902FA03F3DA4308
:10362000BB681A407B699A404FF0FF317B6901FA11
:1036300003F3D9437B680B40134318462437BD4638
:103640005DF8047B7047000080B582B000AF786001
:103650007B68013BB3F1807F01D301230FE00A4A6D
:103660007B68013B53600F214FF0FF30FFF78EFF67
:10367000054B00229A60044B07221A60002318466B
:103680000837BD4680BD00BF10E000E080B582B0C5
:1036900000AF78607868FFF729FF00BF0837BD46A4
:1036A00080BD80B586B000AF0346B9607A60FB7319
:1036B00000237B61FFF73EFF78617A68B96878691B
:1036C000FFF78EFF024697F90F3011461846FFF7B5
:1036D0005DFF00BF1837BD4680BD80B582B000AF2A
:1036E0000346FB7197F907301846FFF731FF00BF1B
:1036F0000837BD4680BD80B582B000AF786078687D
:10370000FFF7A2FF034618460837BD4680BD80B5C7
:1037100084B000AF78607B689B6DFB60FFF7B6FA02
:10372000B8607B6893F83530DBB2022B08D07B6839
:1037300080225A657B68002283F83420012352E0FE
:103740007B681B681A687B681B6822F016021A6087
:103750007B681B685A697B681B6822F080025A618B
:103760007B681B6C002B03D17B689B6C002B07D004
:103770007B681B681A687B681B6822F008021A6065
:103780007B681B681A687B681B6822F001021A605C
:1037900013E0FFF77BFA0246BB68D31A052B0CD95E
:1037A0007B6820225A657B68032283F835207B687A
:1037B000002283F83420032315E07B681B681B6814
:1037C00003F00103002BE4D17B68DB6D3F229A40BC
:1037D000FB689A607B68012283F835207B680022B1
:1037E00083F83420002318461037BD4680BD80B4CE
:1037F00083B000AF78607B6893F83530DBB2022B82
:1038000004D07B6880225A6501230CE07B68052286
:1038100083F835207B681B681A687B681B6822F078
:1038200001021A60002318460C37BD465DF8047B80
:103830007047000080B489B000AF78603960002321
:103840007B6100233B610023BB610023FB616BE1D3
:103850000122FB6902FA03F37B613B681B687A690A
:1038600013403B613A697B699A4240F05A813B6858
:103870005B6803F00303012B05D03B685B6803F032
:103880000303022B30D17B689B68BB61FB695B0043
:10389000032202FA03F3DB43BA691340BB613B68BE
:1038A000DA68FB695B0002FA03F3BA691343BB6190
:1038B0007B68BA699A607B685B68BB610122FB69BF
:1038C00002FA03F3DB43BA691340BB613B685B68F0
:1038D0001B0903F00102FB6902FA03F3BA691343FF
:1038E000BB617B68BA695A603B685B6803F003039D
:1038F000032B17D07B68DB68BB61FB695B0003228D
:1039000002FA03F3DB43BA691340BB613B689A6870
:10391000FB695B0002FA03F3BA691343BB617B687E
:10392000BA69DA603B685B6803F00303022B23D1BA
:10393000FB69DA087B68083253F82230BB61FB6907
:1039400003F007039B000F2202FA03F3DB43BA697B
:103950001340BB613B681A69FB6903F007039B00D6
:1039600002FA03F3BA691343BB61FB69DA087B68A7
:103970000832B96943F822107B681B68BB61FB6998
:103980005B00032202FA03F3DB43BA691340BB6115
:103990003B685B6803F00302FB695B0002FA03F318
:1039A000BA691343BB617B68BA691A603B685B689C
:1039B00003F44033002B00F0B4800023FB60604B25
:1039C0005B6C5F4A43F4804353645D4B5B6C03F470
:1039D0008043FB60FB685B4AFB699B08023352F83B
:1039E0002330BB61FB6903F003039B000F2202FA43
:1039F00003F3DB43BA691340BB617B68524A9342CD
:103A00002BD07B68514A934225D07B68504A934221
:103A10001FD07B684F4A934219D07B684E4A93422D
:103A200013D07B684D4A93420DD07B684C4A934239
:103A300007D07B684B4A934201D107230EE008234D
:103A40000CE006230AE0052308E0042306E0032334
:103A500004E0022302E0012300E00023FA6902F0FF
:103A6000030292009340BA691343BB613549FB6975
:103A70009B080233BA6941F823203B4B9B68BB612A
:103A80003B69DB43BA691340BB613B685B6803F485
:103A90008013002B03D0BA693B691343BB61324AE0
:103AA000BB699360304BDB68BB613B69DB43BA6940
:103AB0001340BB613B685B6803F40013002B03D029
:103AC000BA693B691343BB61274ABB69D360264B84
:103AD0005B68BB613B69DB43BA691340BB613B6810
:103AE0005B6803F40033002B03D0BA693B691343CE
:103AF000BB611D4ABB6953601B4B1B68BB613B69C3
:103B0000DB43BA691340BB613B685B6803F48033F5
:103B1000002B03D0BA693B691343BB61124ABB69EE
:103B20001360FB690133FB61FB690F2B7FF690AEDD
:103B300000BF00BF2437BD465DF8047B704700BF5F
:103B400000380240003801400000024000040240FA
:103B500000080240000C0240001002400014024025
:103B600000180240001C0240003C014080B483B0B9
:103B700000AF78600B467B8013467B707B78002B10
:103B800003D07A887B689A6103E07B881A047B689B
:103B90009A6100BF0C37BD465DF8047B704700009A
:103BA00080B584B000AF78607B68002B01D1012321
:103BB0002BE17B6893F83D30DBB2002B06D17B68AC
:103BC000002283F83C207868FEF74CFD7B682422B5
:103BD00083F83D207B681B681A687B681B6822F0AD
:103BE00001021A607B681B681A687B681B6842F4D4
:103BF00000421A607B681B681A687B681B6822F4A5
:103C000000421A6003F060FCF8607B685B68814AE0
:103C1000934207D8FB68804A934294BF0123002354
:103C2000DBB206E0FB687D4A934294BF0123002388
:103C3000DBB2002B01D00123E7E0FB68784AA2FB4E
:103C400003239B0CBB607B681B685B6823F03F0110
:103C50007B681B68BA680A435A607B681B681B6AEA
:103C600023F03F017B685B686A4A934202D8BB68D5
:103C7000013309E0BB684FF4967202FB03F3694A13
:103C8000A2FB03239B0901337A6812680B4313627A
:103C90007B681B68DB6923F44F4222F0FF027B68DC
:103CA0005B685C498B4219D8FB68591E7B685B686E
:103CB0005B00B1FBF3F3591C40F6FC730B40002B87
:103CC0000AD0FB68591E7B685B685B00B1FBF3F3AD
:103CD0000133C3F30B0351E004234FE07B689B687F
:103CE000002B11D1FB68581E7B6859680B465B009E
:103CF0000B44B0FBF3F30133C3F30B03002B0CBFF6
:103D000001230023DBB212E0FB68581E7B68596870
:103D10000B469B000B4499000B44B0FBF3F30133BB
:103D2000C3F30B03002B0CBF01230023DBB2002BDA
:103D300001D0012322E07B689B68002B0ED1FB6839
:103D4000581E7B6859680B465B000B44B0FBF3F3CD
:103D50000133C3F30B0343F400430FE0FB68581E29
:103D60007B6859680B469B000B4499000B44B0FBE1
:103D7000F3F30133C3F30B0343F440437968096859
:103D80001343CB617B681B681B6823F0C0017B6811
:103D9000DA697B681B6A1A437B681B680A431A60EE
:103DA0007B681B689B6823F4034323F0FF037A6856
:103DB00011697A68D26811437A6812680B4393607C
:103DC0007B681B68DB6823F0FF017B685A697B68AE
:103DD0009B691A437B681B680A43DA607B681B682F
:103DE0001A687B681B6842F001021A607B68002237
:103DF0001A647B68202283F83D207B6800221A63C6
:103E00007B68002283F83E20002318461037BD4609
:103E100080BD00BFA08601007F841E00FF083D001A
:103E200083DE1B43D34D621080B588B002AFF860CB
:103E30007A601A460B467B8113463B81FEF726FFCC
:103E40007861FB6893F83D30DBB2202B40F0E080D6
:103E50007B690093192301227049F86801F03CFA4C
:103E60000346002B01D00223D3E0FB6893F83C30DB
:103E7000012B01D10223CCE0FB68012283F83C2016
:103E8000FB681B681B6803F00103012B07D0FB686C
:103E90001B681A68FB681B6842F001021A60FB6825
:103EA0001B681A68FB681B6822F400621A60FB68D2
:103EB000212283F83D20FB68102283F83E20FB6816
:103EC00000221A64FB687A685A62FB683A895A854C
:103ED000FB685B8D9AB2FB681A85FB68504ADA6210
:103EE00079897B693A6AF86800F028FF0346002B5D
:103EF00001D001238DE000233B61FB681B685B69F7
:103F00003B61FB681B689B693B613B6966E07A69C2
:103F1000396AF86801F0FAFA0346002B0DD0FB6805
:103F20001B6C042B07D1FB681B681A68FB681B68B5
:103F300042F400721A6001236BE0FB685B6A1A7836
:103F4000FB681B681A61FB685B6A5A1CFB685A6253
:103F5000FB685B8D9BB2013B9AB2FB685A85FB689C
:103F60001B8D013B9AB2FB681A85FB681B685B6975
:103F700003F00403042B1BD1FB681B8D002B17D00F
:103F8000FB685B6A1A78FB681B681A61FB685B6AEE
:103F90005A1CFB685A62FB685B8D9BB2013B9AB26C
:103FA000FB685A85FB681B8D013B9AB2FB681A853A
:103FB0007A69396AF86801F0F1FA0346002B0DD0EE
:103FC000FB681B6C042B07D1FB681B681A68FB6835
:103FD0001B6842F400721A6001231AE0FB681B8D13
:103FE000002B94D1FB681B681A68FB681B6842F4BD
:103FF00000721A60FB68202283F83D20FB680022D3
:1040000083F83E20FB68002283F83C20002300E078
:10401000022318461837BD4680BD00BF02001000BD
:104020000000FFFF80B58CB002AFF8607A601A46DE
:104030000B467B8113463B81FEF728FE7862FB68C6
:1040400093F83D30DBB2202B40F017827B6A00935F
:10405000192301227C49F86801F03EF90346002B40
:1040600001D002230AE2FB6893F83C30012B01D116
:10407000022303E2FB68012283F83C20FB681B68F3
:104080001B6803F00103012B07D0FB681B681A684B
:10409000FB681B6842F001021A60FB681B681A6823
:1040A000FB681B6822F400621A60FB68222283F816
:1040B0003D20FB68102283F83E20FB6800221A6432
:1040C000FB687A685A62FB683A895A85FB685B8D9F
:1040D0009AB2FB681A85FB685C4ADA6279897B6A66
:1040E0003A6BF86800F0ACFE0346002B01D00123C8
:1040F000C4E1FB681B8D002B13D100233B62FB68DE
:104100001B685B693B62FB681B689B693B623B6A9F
:10411000FB681B681A68FB681B6842F400721A602F
:1041200098E1FB681B8D012B1BD1FB681B681A688B
:10413000FB681B6822F480621A600023FB61FB6845
:104140001B685B69FB61FB681B689B69FB61FB6922
:10415000FB681B681A68FB681B6842F400721A60EF
:1041600078E1FB681B8D022B1BD1FB681B681A686A
:10417000FB681B6822F480621A60FB681B681A687F
:10418000FB681B6842F400621A600023BB61FB6895
:104190001B685B69BB61FB681B689B69BB61BB6992
:1041A00058E1FB681B681A68FB681B6842F4806270
:1041B0001A6000237B61FB681B685B697B61FB689D
:1041C0001B689B697B617B6944E1FB681B8D032B4A
:1041D00000F2F180FB681B8D012B23D17A6A396BC9
:1041E000F86801F023FA0346002B01D0012345E1D2
:1041F000FB681B681A69FB685B6AD2B21A70FB68BD
:104200005B6A5A1CFB685A62FB681B8D013B9AB2C1
:10421000FB681A85FB685B8D9BB2013B9AB2FB6819
:104220005A8517E1FB681B8D022B4ED17B6A0093E8
:104230003B6B00220649F86801F04EF80346002B5C
:1042400008D001231AE100BF020010000000FFFFA8
:1042500004000100FB681B681A68FB681B6842F4D5
:1042600000721A60FB681B681A69FB685B6AD2B24D
:104270001A70FB685B6A5A1CFB685A62FB681B8DEC
:10428000013B9AB2FB681A85FB685B8D9BB2013BD0
:104290009AB2FB685A85FB681B681A69FB685B6AFF
:1042A000D2B21A70FB685B6A5A1CFB685A62FB68E0
:1042B0001B8D013B9AB2FB681A85FB685B8D9BB234
:1042C000013B9AB2FB685A85C4E07B6A00933B6B62
:1042D00000226C49F86800F0FFFF0346002B01D074
:1042E0000123CBE0FB681B681A68FB681B6822F49B
:1042F00080621A60FB681B681A69FB685B6AD2B24D
:104300001A70FB685B6A5A1CFB685A62FB681B8D5B
:10431000013B9AB2FB681A85FB685B8D9BB2013B3F
:104320009AB2FB685A857B6A00933B6B0022554921
:10433000F86800F0D1FF0346002B01D001239DE077
:10434000FB681B681A68FB681B6842F400721A60FD
:10435000FB681B681A69FB685B6AD2B21A70FB685B
:104360005B6A5A1CFB685A62FB681B8D013B9AB260
:10437000FB681A85FB685B8D9BB2013B9AB2FB68B8
:104380005A85FB681B681A69FB685B6AD2B21A70AF
:10439000FB685B6A5A1CFB685A62FB681B8D013B19
:1043A0009AB2FB681A85FB685B8D9BB2013B9AB29F
:1043B000FB685A854EE07A6A396BF86801F036F985
:1043C0000346002B01D0012358E0FB681B681A69E3
:1043D000FB685B6AD2B21A70FB685B6A5A1CFB68A6
:1043E0005A62FB681B8D013B9AB2FB681A85FB6819
:1043F0005B8D9BB2013B9AB2FB685A85FB681B68D8
:104400005B6903F00403042B24D1FB681B8D032B91
:1044100007D1FB681B681A68FB681B6822F480627E
:104420001A60FB681B681A69FB685B6AD2B21A7073
:10443000FB685B6A5A1CFB685A62FB681B8D013B78
:104440009AB2FB681A85FB685B8D9BB2013B9AB2FE
:10445000FB685A85FB681B8D002B7FF4B6AEFB68AA
:10446000202283F83D20FB68002283F83E20FB6871
:10447000002283F83C20002300E00223184628375E
:10448000BD4680BD0400010080B588B002AFF86071
:10449000084611461A4603467B810B463B8113466C
:1044A000FB80FEF7F3FB7861FB6893F83D30DBB2ED
:1044B000202B40F0D9807B690093192301226D499C
:1044C000F86800F009FF0346002B01D00223CCE07E
:1044D000FB6893F83C30012B01D10223C5E0FB6857
:1044E000012283F83C20FB681B681B6803F0010372
:1044F000012B07D0FB681B681A68FB681B6842F039
:1045000001021A60FB681B681A68FB681B6822F4CA
:1045100000621A60FB68212283F83D20FB6840227C
:1045200083F83E20FB6800221A64FB683A6A5A62EC
:10453000FB68BA8C5A85FB685B8D9AB2FB681A855A
:10454000FB684D4ADA62F8883A8979897B69019378
:10455000BB6A00930346F86800F040FD0346002B59
:1045600052D0012381E07A69B96AF86800F0CEFF81
:104570000346002B0DD0FB681B6C042B07D1FB6896
:104580001B681A68FB681B6842F400721A600123FA
:104590006BE0FB685B6A1A78FB681B681A61FB6852
:1045A0005B6A5A1CFB685A62FB681B8D013B9AB21E
:1045B000FB681A85FB685B8D9BB2013B9AB2FB6876
:1045C0005A85FB681B685B6903F00403042B1BD14D
:1045D000FB681B8D002B17D0FB685B6A1A78FB68A1
:1045E0001B681A61FB685B6A5A1CFB685A62FB68AD
:1045F0001B8D013B9AB2FB681A85FB685B8D9BB2F1
:10460000013B9AB2FB685A85FB681B8D002BAAD12F
:104610007A69B96AF86800F0C1FF0346002B0DD033
:10462000FB681B6C042B07D1FB681B681A68FB68CE
:104630001B6842F400721A60012316E0FB681B68D5
:104640001A68FB681B6842F400721A60FB6820223B
:1046500083F83D20FB68002283F83E20FB6800229F
:1046600083F83C20002300E0022318461837BD469B
:1046700080BD00BF020010000000FFFF80B58CB0BD
:1046800002AFF860084611461A4603467B810B4686
:104690003B811346FB80FEF7F9FA7862FB6893F8DA
:1046A0003D30DBB2202B40F014827B6A009319234B
:1046B00001227B49F86800F00FFE0346002B01D071
:1046C000022307E2FB6893F83C30012B01D102235F
:1046D00000E2FB68012283F83C20FB681B681B6832
:1046E00003F00103012B07D0FB681B681A68FB6805
:1046F0001B6842F001021A60FB681B681A68FB68BD
:104700001B6822F400621A60FB68222283F83D20B5
:10471000FB68402283F83E20FB6800221A64FB6895
:104720003A6B5A62FB68BA8E5A85FB685B8D9AB207
:10473000FB681A85FB685B4ADA62F8883A897989EE
:104740007B6A0193BB6B00930346F86800F0DCFCC6
:104750000346002B01D00123BCE1FB681B8D002B1D
:1047600013D100233B62FB681B685B693B62FB68FB
:104770001B689B693B623B6AFB681B681A68FB68A5
:104780001B6842F400721A6090E1FB681B8D012BDC
:104790001BD1FB681B681A68FB681B6822F48062E7
:1047A0001A600023FB61FB681B685B69FB61FB68A7
:1047B0001B689B69FB61FB69FB681B681A68FB68E7
:1047C0001B6842F400721A6070E1FB681B8D022BBB
:1047D0001BD1FB681B681A68FB681B6822F48062A7
:1047E0001A60FB681B681A68FB681B6842F4006269
:1047F0001A600023BB61FB681B685B69BB61FB68D7
:104800001B689B69BB61BB6950E100237B61FB684E
:104810001B685B697B61FB681B689B697B617B69CB
:1048200044E1FB681B8D032B00F2F180FB681B8DBC
:10483000012B23D17A6AB96BF86800F0F7FE0346C2
:10484000002B01D0012345E1FB681B681A69FB6856
:104850005B6AD2B21A70FB685B6A5A1CFB685A62C8
:10486000FB681B8D013B9AB2FB681A85FB685B8D68
:104870009BB2013B9AB2FB685A8517E1FB681B8D1E
:10488000022B4ED17B6A0093BB6B00220649F8686D
:1048900000F022FD0346002B08D001231AE100BFDF
:1048A000020010000000FFFF04000100FB681B680D
:1048B0001A68FB681B6842F400721A60FB681B6888
:1048C0001A69FB685B6AD2B21A70FB685B6A5A1C91
:1048D000FB685A62FB681B8D013B9AB2FB681A8524
:1048E000FB685B8D9BB2013B9AB2FB685A85FB6803
:1048F0001B681A69FB685B6AD2B21A70FB685B6A54
:104900005A1CFB685A62FB681B8D013B9AB2FB681C
:104910001A85FB685B8D9BB2013B9AB2FB685A8596
:10492000C4E07B6A0093BB6B00226C49F86800F01E
:10493000D3FC0346002B01D00123CBE0FB681B68AE
:104940001A68FB681B6822F480621A60FB681B68A7
:104950001A69FB685B6AD2B21A70FB685B6A5A1C00
:10496000FB685A62FB681B8D013B9AB2FB681A8593
:10497000FB685B8D9BB2013B9AB2FB685A857B6AF0
:104980000093BB6B00225549F86800F0A5FC034674
:10499000002B01D001239DE0FB681B681A68FB68AF
:1049A0001B6842F400721A60FB681B681A69FB6896
:1049B0005B6AD2B21A70FB685B6A5A1CFB685A6267
:1049C000FB681B8D013B9AB2FB681A85FB685B8D07
:1049D0009BB2013B9AB2FB685A85FB681B681A6957
:1049E000FB685B6AD2B21A70FB685B6A5A1CFB6890
:1049F0005A62FB681B8D013B9AB2FB681A85FB6803
:104A00005B8D9BB2013B9AB2FB685A854EE07A6A95
:104A1000B96BF86800F00AFE0346002B01D00123B1
:104A200058E0FB681B681A69FB685B6AD2B21A70AF
:104A3000FB685B6A5A1CFB685A62FB681B8D013B72
:104A40009AB2FB681A85FB685B8D9BB2013B9AB2F8
:104A5000FB685A85FB681B685B6903F00403042B41
:104A600024D1FB681B8D032B07D1FB681B681A68D8
:104A7000FB681B6822F480621A60FB681B681A6975
:104A8000FB685B6AD2B21A70FB685B6A5A1CFB68EF
:104A90005A62FB681B8D013B9AB2FB681A85FB6862
:104AA0005B8D9BB2013B9AB2FB685A85FB681B8DFC
:104AB000002B7FF4B6AEFB68202283F83D20FB6814
:104AC000002283F83E20FB68002283F83C2000236C
:104AD00000E0022318462837BD4680BD04000100CF
:104AE00080B58AB002AFF8607A603B600B467B818C
:104AF000FEF7CCF8F8610023BB61FB6893F83D300A
:104B0000DBB2202B40F01181FB69009319230122B5
:104B10008849F86800F0E0FB0346002B01D002232F
:104B200004E1FB6893F83C30012B01D10223FDE046
:104B3000FB68012283F83C20FB681B681B6803F0BC
:104B40000103012B07D0FB681B681A68FB681B6810
:104B500042F001021A60FB681B681A68FB681B6858
:104B600022F400621A60FB68242283F83D20FB686F
:104B700000221A64FB68704ADA62FB681B681A68D4
:104B8000FB681B6842F480721A60FB6900933B6803
:104B900000224FF00111F86800F09EFB0346002B45
:104BA0000DD0FB681B681B6803F48073B3F5807F2E
:104BB00003D1FB684FF400721A640323B6E07B89CB
:104BC000DBB21A46FB681B6802F0FE021A61FEF7B0
:104BD0005DF8F861FB681B685B6903F00203022B58
:104BE0000CBF01230023DBB2FB75FB681B685B690C
:104BF00003F48063B3F5806F0CBF01230023DBB2A5
:104C0000BB7525E0FEF742F80246FB69D31A3A6805
:104C10009A4202D33B68002B03D1FB68A02283F8A1
:104C20003D20FB681B685B6903F00203022B0CBF8D
:104C300001230023DBB2FB75FB681B685B6903F48F
:104C40008063B3F5806F0CBF01230023DBB2BB751B
:104C5000FB6893F83D30DBB2A02B05D0FB7D002B29
:104C600002D1BB7D002BCDD0FB68202283F83D20F4
:104C7000FB681B685B6903F00203022B29D1FB6808
:104C80001B681A68FB681B6842F400721A600023F4
:104C90003B61FB681B685B693B61FB681B689B6948
:104CA0003B613B69FB690093192301222149F868A4
:104CB00000F012FB0346002B01D0012336E0FB6815
:104CC000202283F83D20FB68002283F83C2000234B
:104CD0002CE0FB681B681A68FB681B6842F40072D2
:104CE0001A60FB681B686FF480625A61FB6900936D
:104CF000192301220F49F86800F0EEFA0346002B51
:104D000001D0012312E0BB690133BB61BA697B6842
:104D10009A42FFF432AFFB68202283F83D20FB6803
:104D2000002283F83C20012300E0022318462037AC
:104D3000BD4680BD020010000000FFFF80B588B0B6
:104D400002AFF8607A603B600B467B81FB68DB6AF0
:104D50007B617B69082B06D07B69012B03D07B69C3
:104D600013F5803F08D1FB681B681A68FB681B6855
:104D700042F480721A600BE0FB681B6B122B07D1A8
:104D8000FB681B681A68FB681B6842F480721A6033
:104D90003B6800937B6800224FF00111F86800F037
:104DA0009BFA0346002B0DD0FB681B681B6803F4BD
:104DB0008073B3F5807F03D1FB684FF400721A64EF
:104DC000032335E0FB681B69B3F5804F08D17B896D
:104DD000DBB21A46FB681B6802F0FE021A611BE098
:104DE0007B89DB11DBB203F00603DBB263F00F0358
:104DF000DAB2FB681B681A613B687A680E49F8688A
:104E000000F0E4FA0346002B01D0012310E07B8977
:104E1000DAB2FB681B681A613B687A680749F86870
:104E200000F0D4FA0346002B01D0012300E0002358
:104E300018461837BD4680BD080001000200010079
:104E400080B588B002AFF8607A603B600B467B812A
:104E5000FB68DB6A7B61FB681B681A68FB681B6880
:104E600042F480621A607B69082B06D07B69012BB3
:104E700003D07B6913F5803F08D1FB681B681A6873
:104E8000FB681B6842F480721A600BE0FB681B6BC6
:104E9000112B07D1FB681B681A68FB681B6842F47A
:104EA00080721A603B6800937B6800224FF001110A
:104EB000F86800F011FA0346002B0DD0FB681B6860
:104EC0001B6803F48073B3F5807F03D1FB684FF454
:104ED00000721A64032379E0FB681B69B3F5804F05
:104EE00008D17B89DBB243F00103DAB2FB681B68AF
:104EF0001A615FE07B89DB11DBB203F00603DBB2F2
:104F000063F00F03DAB2FB681B681A613B687A68CA
:104F10003049F86800F05AFA0346002B01D001230B
:104F200054E07B89DAB2FB681B681A613B687A68D7
:104F30002949F86800F04AFA0346002B01D0012302
:104F400044E000233B61FB681B685B693B61FB68D5
:104F50001B689B693B613B69FB681B681A68FB68BF
:104F60001B6842F480721A603B6800937B680022E1
:104F70004FF00111F86800F0AFF90346002B0DD097
:104F8000FB681B681B6803F48073B3F5807F03D153
:104F9000FB684FF400721A64032317E07B89DB116E
:104FA000DBB203F00603DBB263F00E03DAB2FB6898
:104FB0001B681A613B687A680749F86800F006FACE
:104FC0000346002B01D0012300E0002318461837C8
:104FD000BD4680BD080001000200010080B588B018
:104FE00002AFF860084611461A4603467B810B461D
:104FF0003B811346FB80FB681B681A68FB681B68D3
:1050000042F480721A607B6A00933B6A00224FF080
:105010000111F86800F060F90346002B0DD0FB6821
:105020001B681B6803F48073B3F5807F03D1FB68B2
:105030004FF400721A6403235FE07B89DBB21A46E7
:10504000FB681B6802F0FE021A617B6A3A6A2D490E
:10505000F86800F0BBF90346002B01D001234CE0B7
:1050600000237B61FB681B685B697B61FB681B68D5
:105070009B697B617B697A6A396AF86800F046FA55
:105080000346002B0DD0FB681B6C042B07D1FB687B
:105090001B681A68FB681B6842F400721A600123DF
:1050A0002BE0FB88012B05D13B89DAB2FB681B683A
:1050B0001A6121E03B891B0A9BB2DAB2FB681B68CC
:1050C0001A617A6A396AF86800F020FA0346002B00
:1050D0000DD0FB681B6C042B07D1FB681B681A689A
:1050E000FB681B6842F400721A60012305E03B89EB
:1050F000DAB2FB681B681A61002318461837BD46F0
:1051000080BD00BF0200010080B588B002AFF8602A
:10511000084611461A4603467B810B463B811346DF
:10512000FB80FB681B681A68FB681B6842F480629E
:105130001A60FB681B681A68FB681B6842F480727F
:105140001A607B6A00933B6A00224FF00111F868F5
:1051500000F0C2F80346002B0DD0FB681B681B68EB
:1051600003F48073B3F5807F03D1FB684FF40072C2
:105170001A640323AAE07B89DBB21A46FB681B682A
:1051800002F0FE021A617B6A3A6A5249F86800F03E
:105190001DF90346002B01D0012397E000237B611A
:1051A000FB681B685B697B61FB681B689B697B61B3
:1051B0007B697A6A396AF86800F0A8F90346002B1F
:1051C0000DD0FB681B6C042B07D1FB681B681A68A9
:1051D000FB681B6842F400721A60012376E0FB88CA
:1051E000012B05D13B89DAB2FB681B681A6121E00B
:1051F0003B891B0A9BB2DAB2FB681B681A617A6AA8
:10520000396AF86800F082F90346002B0DD0FB687C
:105210001B6C042B07D1FB681B681A68FB681B68B2
:1052200042F400721A60012350E03B89DAB2FB6855
:105230001B681A617A6A396AF86800F067F90346F0
:10524000002B0DD0FB681B6C042B07D1FB681B687F
:105250001A68FB681B6842F400721A60012335E08B
:10526000FB681B681A68FB681B6842F480721A604E
:105270007B6A00933B6A00224FF00111F86800F04E
:105280002BF80346002B0DD0FB681B681B6803F44A
:105290008073B3F5807F03D1FB684FF400721A640A
:1052A000032313E07B89DBB243F00103DAB2FB682E
:1052B0001B681A617B6A3A6A0649F86800F086F84A
:1052C0000346002B01D0012300E0002318461837C5
:1052D000BD4680BD0200010080B584B000AFF8601B
:1052E000B9603B601346FB7148E03B68B3F1FF3F98
:1052F00044D0FDF7CBFC0246BB69D31A3A689A4208
:1053000002D33B68002B39D1BB681B0CDBB2012BED
:105310000DD1FB681B685B69DA43BB6813409BB225
:10532000002B0CBF01230023DBB21A460CE0FB6804
:105330001B689B69DA43BB6813409BB2002B0CBF10
:1053400001230023DBB21A46FB799A4216D1FB688F
:1053500000221A63FB68202283F83D20FB680022AC
:1053600083F83E20FB681B6C43F02002FB681A6444
:10537000FB68002283F83C20012323E0BB681B0C60
:10538000DBB2012B0DD1FB681B685B69DA43BB689C
:1053900013409BB2002B0CBF01230023DBB21A4643
:1053A0000CE0FB681B689B69DA43BB6813409BB247
:1053B000002B0CBF01230023DBB21A46FB799A4273
:1053C00093D0002318461037BD4680BD80B584B009
:1053D00000AFF860B9607A603B6071E0FB681B6801
:1053E0005B6903F48063B3F5806F23D1FB681B68AE
:1053F0001A68FB681B6842F400721A60FB681B683D
:105400006FF480625A61FB6800221A63FB682022F5
:1054100083F83D20FB68002283F83E20FB681B6C6C
:1054200043F00402FB681A64FB68002283F83C2006
:10543000012367E07B68B3F1FF3F41D0FDF726FC15
:1054400002463B68D31A7A689A4202D37B68002BE3
:1054500036D1BB681B0CDBB2012B0CD1FB681B687F
:105460005B69DA43BB6813409BB2002B14BF012376
:105470000023DBB20BE0FB681B689B69DA43BB6867
:1054800013409BB2002B14BF01230023DBB2002B7F
:1054900016D0FB6800221A63FB68202283F83D20A7
:1054A000FB68002283F83E20FB681B6C43F020025F
:1054B000FB681A64FB68002283F83C20012321E08A
:1054C000BB681B0CDBB2012B0CD1FB681B685B6952
:1054D000DA43BB6813409BB2002B14BF01230023A7
:1054E000DBB20BE0FB681B689B69DA43BB681340C7
:1054F0009BB2002B14BF01230023DBB2002B7FF4EF
:105500006DAF002318461037BD4680BD80B584B00E
:1055100000AFF860B9607A6034E0F86800F0E3F852
:105520000346002B01D0012334E0BB68B3F1FF3FF9
:1055300028D0FDF7ABFB02467B68D31ABA689A42C3
:1055400002D3BB68002B1DD1FB681B685B6903F0AD
:105550008003802B16D0FB6800221A63FB68202290
:1055600083F83D20FB68002283F83E20FB681B6C1B
:1055700043F02002FB681A64FB68002283F83C2099
:10558000012307E0FB681B685B6903F08003802B45
:10559000C3D1002318461037BD4680BD80B584B006
:1055A00000AFF860B9607A6034E0F86800F09BF80A
:1055B0000346002B01D0012334E0BB68B3F1FF3F69
:1055C00028D0FDF763FB02467B68D31ABA689A427B
:1055D00002D3BB68002B1DD1FB681B685B6903F01D
:1055E0000403042B16D0FB6800221A63FB682022F8
:1055F00083F83D20FB68002283F83E20FB681B6C8B
:1056000043F02002FB681A64FB68002283F83C2008
:10561000012307E0FB681B685B6903F00403042BAC
:10562000C3D1002318461037BD4680BD80B584B075
:1056300000AFF860B9607A6049E0FB681B685B699D
:1056400003F01003102B19D1FB681B686FF01002D8
:105650005A61FB6800221A63FB68202283F83D2010
:10566000FB68002283F83E20FB681A6CFB681A6412
:10567000FB68002283F83C20012330E0FDF706FBA5
:1056800002467B68D31ABA689A4202D3BB68002BE1
:105690001DD1FB681B685B6903F04003402B16D0EB
:1056A000FB6800221A63FB68202283F83D20FB6818
:1056B000002283F83E20FB681B6C43F02002FB684D
:1056C0001A64FB68002283F83C20012307E0FB6892
:1056D0001B685B6903F04003402BAED100231846E2
:1056E0001037BD4680BD80B483B000AF78607B6862
:1056F0001B685B6903F48063B3F5806F1BD17B6823
:105700001B686FF480625A617B6800221A637B68B1
:10571000202283F83D207B68002283F83E207B68AE
:105720001B6C43F004027B681A647B68002283F8D8
:105730003C20012300E0002318460C37BD465DF8ED
:10574000047B704780B586B002AF78607B68002B21
:1057500001D1012301E17B681B68BB607B6893F882
:105760009534DBB2002B06D17B68002283F89424A9
:10577000786807F055FB7B68032283F89524BB68A3
:10578000B3F1A04F02D17B6800229A717B681B683D
:10579000184603F018FF7B6818687B681A7C8DF840
:1057A000002004330ECB03F0F7FD0346002B05D099
:1057B0007B68022283F895240123CEE07B681B6876
:1057C0000021184603F010FF0346002B05D07B682C
:1057D000022283F895240123BFE00023FB734AE0F3
:1057E000FA7B79681346DB0013449B000B441533A6
:1057F00001221A70FA7B79681346DB0013449B0080
:105800000B441433FA7B1A70FA7BFB7B98B27968ED
:105810001346DB0013449B000B442E3302461A80D0
:10582000FA7B79681346DB0013449B000B44183362
:1058300000221A70FA7B79681346DB0013449B0040
:105840000B441C3300221A60FA7B79681346DB0094
:1058500013449B000B44203300221A60FA7B7968C2
:105860001346DB0013449B000B44243300221A60D0
:10587000FB7B0133FB737B681B79FA7B9A42AFD3C6
:105880000023FB7344E0FA7B79681346DB00134482
:105890009B000B4403F2552300221A70FA7B7968AF
:1058A0001346DB0013449B000B4403F51573FA7B8E
:1058B0001A70FA7B79681346DB0013449B000B4493
:1058C00003F5167300221A70FA7B79681346DB0021
:1058D00013449B000B4403F5177300221A60FA7BF4
:1058E00079681346DB0013449B000B4403F51873DF
:1058F00000221A60FA7B79681346DB0013449B0090
:105900000B4403F5197300221A60FB7B0133FB7310
:105910007B681B79FA7B9A42B5D37B6818687B68F1
:105920001A7C8DF8002004330ECB03F0A9FE034649
:10593000002B05D07B68022283F8952401230CE01C
:105940007B6800225A747B68012283F895247B6867
:105950001B68184604F0F3FE002318461037BD46B6
:1059600080BD80B584B000AF78607B681B68FB6049
:105970007B6893F89434012B01D1022322E07B68E9
:10598000012283F89424FB68DB6803F04003002BBA
:1059900009D07B685B7B012B05D1FB689B6B43F4D3
:1059A0008032FB689A637B681B68184603F0FAFD37
:1059B0007B681B68184604F0A1FE7B68002283F810
:1059C0009424002318461037BD4680BD90B58DB095
:1059D00000AF78607B681B683B623B6AFB617B6859
:1059E0001B68184604F05FFF0346002B40F08C84D0
:1059F0007B681B68184604F0C3FE0346002B00F0CA
:105A00008284FB6903F500639B681B0AC3F30D02E4
:105A10007B68C3F8D4247B681B68184604F0B0FE8A
:105A2000034603F00203022B07D17B681B685A6907
:105A30007B681B6802F002025A617B681B6818468B
:105A400004F09EFE034603F01003102B61D17B6827
:105A50001B689A697B681B6822F010029A613B6A96
:105A60001B6ABB61BB6903F00F021346DB001344E2
:105A70009B0003F514737A68134404337B61BB699C
:105A800003F4F013B3F5802F24D1BA6947F6F0730D
:105A90001340002B35D07B69D968BB691B099BB2C9
:105AA000C3F30A039BB21A46386A04F0D5FC7B693B
:105AB000DA68BB691B09C3F30A031A447B69DA601D
:105AC0007B695A69BB691B09C3F30A031A447B69E2
:105AD0005A6116E0BB6903F4F013B3F5402F10D1FF
