:020000040800F2
:100000000000022031430008E5400008ED400008F0
:10001000F5400008FD400008054100080000000010
:100020000000000000000000000000000D4100087A
:100030001B4100080000000029410008374100086A
:100040008143000881430008814300088143000880
:100050008143000881430008814300088143000870
:100060008143000881430008814300088143000860
:100070008143000881430008814300088143000850
:100080008143000881430008814300088143000840
:100090008143000881430008814300088143000830
:1000A0008143000881430008814300088143000820
:1000B0008143000881430008814300088143000810
:1000C0008143000881430008814300088143000800
:1000D0008143000881430008454100085941000858
:1000E00081430008814300088143000881430008E0
:1000F00081430008814300088143000881430008D0
:1001000081430008814300088143000881430008BF
:1001100081430008814300088143000881430008AF
:10012000814300088143000881430008814300089F
:10013000814300088143000881430008814300088F
:100140008143000881430008814300086D41000895
:10015000814300088143000881430008814300086F
:10016000814300088143000881430008814300085F
:10017000814300088143000881430008000000001B
:080180008143000881430008DF
:1001900010B5054C237833B9044B13B10448AFF3C1
:1001A00000800123237010BDC80200200000000061
:1001B0002C48010808B5034B1BB103490348AFF3B2
:1001C000008008BD00000000CC0200202C4801087F
:1001D00010F8012B11F8013B012A28BF9A42F7D0F1
:1001E000D01A7047034613F8012B002AFBD1181AC6
:1001F000013870470000000000000000000000000F
:1002000001F0FF01102A2BDB10F0070F08D010F8C7
:10021000013B013A8B422DD010F0070F42B3F6D1CB
:10022000F0B441EA012141EA014122F007047FF0E4
:1002300000070023F0E80256083C85EA010586EA3B
:10024000010685FA47F5A3FA87F586FA47F6A5FA77
:1002500087F68EB9EED1F0BC01F0FF0102F0070283
:1002600032B110F8013B013A83EA010313B1F8D12E
:100270000020704701387047002D06BF354603380F
:10028000073815F0010F07D1013015F4807F02BF48
:10029000013015F4C03F0130F0BC0138704700BF99
:1002A00081F0004102E000BF83F0004330B54FEA27
:1002B00041044FEA430594EA050F08BF90EA020F94
:1002C0001FBF54EA000C55EA020C7FEA645C7FEA27
:1002D000655C00F0E2804FEA5454D4EB5555B8BF4A
:1002E0006D420CDD2C4480EA020281EA030382EABB
:1002F000000083EA010180EA020281EA0303362D4D
:1003000088BF30BD11F0004F4FEA01314FF4801C1F
:100310004CEA113102D0404261EB410113F0004F31
:100320004FEA03334CEA133302D0524263EB4303E8
:1003300094EA050F00F0A780A4F10104D5F1200E86
:100340000DDB02FA0EFC22FA05F2801841F10001E1
:1003500003FA0EF2801843FA05F359410EE0A5F1B5
:1003600020050EF1200E012A03FA0EFC28BF4CF0E6
:10037000020C43FA05F3C01851EBE37101F000459C
:1003800007D54FF0000EDCF1000C7EEB00006EEBA9
:100390000101B1F5801F1BD3B1F5001F0CD3490833
:1003A0005FEA30004FEA3C0C04F101044FEA44528A
:1003B00012F5800F80F09A80BCF1004F08BF5FEA11
:1003C000500C50F1000041EB045141EA050130BDF1
:1003D0005FEA4C0C404141EB0101013C28BFB1F503
:1003E000801FE9D291F0000F04BF01460020B1FA4E
:1003F00081F308BF2033A3F10B03B3F120020CDA21
:100400000C3208DD02F1140CC2F10C0201FA0CF0FE
:1004100021FA02F10CE002F11402D8BFC2F1200C63
:1004200001FA02F120FA0CFCDCBF41EA0C01904019
:10043000E41AA2BF01EB0451294330BD6FEA040462
:100440001F3C1CDA0C340EDC04F11404C4F120024D
:1004500020FA04F001FA02F340EA030021FA04F35F
:1004600045EA030130BDC4F10C04C4F1200220FAB6
:1004700002F001FA04F340EA0300294630BD21FAF4
:1004800004F0294630BD94F0000F83F4801306BFBA
:1004900081F480110134013D4EE77FEA645C18BFAE
:1004A0007FEA655C29D094EA050F08BF90EA020F45
:1004B00005D054EA000C04BF1946104630BD91EA3D
:1004C000030F1EBF0021002030BD5FEA545C05D140
:1004D0004000494128BF41F0004130BD14F580047F
:1004E0003CBF01F5801130BD01F0004545F0FE41F3
:1004F00041F470014FF0000030BD7FEA645C1ABF28
:10050000194610467FEA655C1CBF0B46024650EA5E
:10051000013406BF52EA033591EA030F41F400218A
:1005200030BD00BF90F0000F04BF0021704730B510
:100530004FF4806404F132044FF000054FF00001E5
:1005400050E700BF90F0000F04BF0021704730B5A6
:100550004FF4806404F1320410F0004548BF40427B
:100560004FF000013EE700BF42004FEAE2014FEAD0
:1005700031014FEA02701FBF12F07F4393F07F4FAB
:1005800081F06051704732F07F4208BF704793F0AE
:100590007F4F04BF41F40021704730B54FF46074C1
:1005A00001F0004521F000411CE700BF50EA0102C4
:1005B00008BF704730B54FF000050AE050EA01026D
:1005C00008BF704730B511F0004502D5404261EBDD
:1005D00041014FF4806404F132045FEA915C3FF41E
:1005E000D8AE4FF003025FEADC0C18BF03325FEABB
:1005F000DC0C18BF033202EBDC02C2F1200300FA6C
:1006000003FC20FA02F001FA03FE40EA0E0021FA90
:1006100002F11444BDE600BF70B54FF0FF0C4CF47E
:10062000E06C1CEA11541DBF1CEA135594EA0C0F30
:1006300095EA0C0F00F0DEF82C4481EA030621EA6B
:100640004C5123EA4C5350EA013518BF52EA0335A6
:1006500041F4801143F4801338D0A0FB02CE4FF058
:100660000005E1FB02E506F00042E0FB03E54FF088
:100670000006E1FB03569CF0000F18BF4EF0010E80
:10068000A4F1FF04B6F5007F64F5407404D25FEA7C
:100690004E0E6D4146EB060642EAC62141EA55512F
:1006A0004FEAC52040EA5E504FEACE2EB4F1FD0C71
:1006B00088BFBCF5E06F1ED8BEF1004F08BF5FEAEF
:1006C000500E50F1000041EB045170BD06F00046A1
:1006D00046EA010140EA020081EA0301B4EB5C044E
:1006E000C2BFD4EB0C0541EA045170BD41F4801146
:1006F0004FF0000E013C00F3AB8014F1360FDEBF6B
:10070000002001F0004170BDC4F10004203C35DA46
:100710000C341BDC04F11404C4F1200500FA05F3C9
:1007200020FA04F001FA05F240EA020001F000426A
:1007300021F0004110EBD37021FA04F642EB0601E0
:100740005EEA430E08BF20EAD37070BDC4F10C040A
:10075000C4F1200500FA04F320FA05F001FA04F2CE
:1007600040EA020001F0004110EBD37041F10001BA
:100770005EEA430E08BF20EAD37070BDC4F12005C5
:1007800000FA05F24EEA020E20FA04F301FA05F22D
:1007900043EA020321FA04F001F0004121FA04F2D5
:1007A00020EA020000EBD3705EEA430E08BF20EAA5
:1007B000D37070BD94F0000F0FD101F000464000DF
:1007C00041EB010111F4801F08BF013CF7D041EA61
:1007D000060195F0000F18BF704703F00046520065
:1007E00043EB030313F4801F08BF013DF7D043EA36
:1007F0000603704794EA0C0F0CEA135518BF95EAEC
:100800000C0F0CD050EA410618BF52EA4306D1D172
:1008100081EA030101F000414FF0000070BD50EA91
:10082000410606BF1046194652EA430619D094EA1B
:100830000C0F02D150EA013613D195EA0C0F05D105
:1008400052EA03361CBF104619460AD181EA030159
:1008500001F0004141F0FE4141F470014FF0000011
:1008600070BD41F0FE4141F4780170BD70B54FF0AC
:10087000FF0C4CF4E06C1CEA11541DBF1CEA13552C
:1008800094EA0C0F95EA0C0F00F0A7F8A4EB05040E
:1008900081EA030E52EA03354FEA013100F0888005
:1008A0004FEA03334FF0805545EA131343EA1263CE
:1008B0004FEA022245EA111545EA10654FEA002683
:1008C0000EF000419D4208BF964244F1FD0404F53C
:1008D000407402D25B084FEA3202B61A65EB030598
:1008E0005B084FEA32024FF480104FF4002CB6EB55
:1008F000020E75EB030E22BFB61A754640EA0C00D5
:100900005B084FEA3202B6EB020E75EB030E22BF14
:10091000B61A754640EA5C005B084FEA3202B6EB55
:10092000020E75EB030E22BFB61A754640EA9C0014
:100930005B084FEA3202B6EB020E75EB030E22BFE4
:10094000B61A754640EADC0055EA060E18D04FEAA2
:10095000051545EA16754FEA06164FEAC30343EA42
:1009600052734FEAC2025FEA1C1CC0D111F4801F0F
:100970000BD141EA00014FF000004FF0004CB6E708
:1009800011F4801F04BF01430020B4F1FD0C88BFA7
:10099000BCF5E06F3FF6AFAEB5EB030C04BFB6EBB2
:1009A000020C5FEA500C50F1000041EB045170BDA5
:1009B0000EF0004E4EEA113114EB5C04C2BFD4EBD2
:1009C0000C0541EA045170BD41F480114FF0000E56
:1009D000013C90E645EA060E8DE60CEA135594EAD2
:1009E0000C0F08BF95EA0C0F3FF43BAF94EA0C0FD5
:1009F0000AD150EA01347FF434AF95EA0C0F7FF44A
:100A000025AF104619462CE795EA0C0F06D152EA9D
:100A100003353FF4FDAE1046194622E750EA410681
:100A200018BF52EA43067FF4C5AE50EA41047FF492
:100A30000DAF52EA43057FF4EBAE12E74FF0FF3CF7
:100A400006E000BF4FF0010C02E000BF4FF0010CC8
:100A50004DF804CD4FEA410C7FEA6C5C4FEA430C41
:100A600018BF7FEA6C5C1BD001B050EA410C0CBF90
:100A700052EA430C91EA030F02BF90EA020F0020F2
:100A8000704710F1000F91EA030F58BF994208BF59
:100A900090422CBFD8176FEAE37040F00100704716
:100AA0004FEA410C7FEA6C5C02D150EA013C07D16D
:100AB0004FEA430C7FEA6C5CD6D152EA033CD3D0B8
:100AC0005DF8040B704700BF8446104662468C46B2
:100AD0001946634600E000BF01B5FFF7B7FF0028E5
:100AE00048BF10F1000F01BD4DF808EDFFF7F4FF0E
:100AF0000CBF012000205DF808FB00BF4DF808ED99
:100B0000FFF7EAFF34BF012000205DF808FB00BFBB
:100B10004DF808EDFFF7E0FF94BF012000205DF8DD
:100B200008FB00BF4DF808EDFFF7CEFF94BF012092
:100B300000205DF808FB00BF4DF808EDFFF7C4FF8B
:100B400034BF012000205DF808FB00BF4A0011D22D
:100B500012F5001211D20DD56FF47873B3EB625217
:100B60000ED44FEAC12343F0004343EA505323FA23
:100B700002F070474FF00000704750EA013002D198
:100B80004FF0FF3070474FF0000070474FEA4102CE
:100B9000B2F1E04324BFB3F5001CDCF1FE5C0DD9DB
:100BA00001F0004C4FEAC0024CEA5070B2F1004F25
:100BB00040EB830008BF20F00100704711F0804F28
:100BC00021D113F13872BCBF01F00040704741F4ED
:100BD00080114FEA5252C2F11802C2F1200C10FAF1
:100BE0000CF320FA02F018BF40F001004FEAC123D5
:100BF0004FEAD32303FA0CFC40EA0C0023FA02F379
:100C00004FEA4303CCE77FEA625307D150EA01334E
:100C10001EBF4FF0FE4040F44000704701F000401E
:100C200040F0FE4040F40000704700BF53B94AB99D
:100C3000002908BF00281CBF4FF0FF314FF0FF30E4
:100C400000F0BEB9ADF1080C6DE904CE00F03CF83F
:100C5000DDF804E0DDE9022304B0704738B5002276
:100C6000002304460D46FFF749FF28B920462946D0
:100C7000BDE8384000F00AB8204605F1004100F018
:100C800005F8404261EB410138BD00BFD0B50C4BC7
:100C9000002206460F46FFF7BFFCFFF757FF04464A
:100CA000FFF740FC074B0022FFF7B6FC02460B465D
:100CB00030463946FFF7F8FAFFF748FF2146D0BD26
:100CC0000000F03D0000F0412DE9F047089D8E4600
:100CD00004468846002B4AD18A42174662D9B2FAA6
:100CE00082F64EB1C6F1200301FA06F820FA03F3AA
:100CF000B74043EA0808B4404FEA174E1FFA87FC92
:100D0000B8FBFEF1230C0EFB118843EA084301FBFC
:100D10000CF29A4209D9FB1801F1FF3080F0EA8009
:100D20009A4240F2E78002393B449A1AA3B2B2FBDE
:100D3000FEF00EFB102243EA024300FB0CFC9C4534
:100D400009D9FB1800F1FF3280F0D6809C4540F2B3
:100D5000D3803B44023840EA0140A3EB0C0300215E
:100D60001DB1F3400022C5E90032BDE8F0878B4297
:100D700005D90DB1C5E9000100210846F5E7B3FA30
:100D800083F1002946D1734502D3824200F20581E6
:100D9000841A6EEB030201209046002DE5D0C5E9D0
:100DA0000048E2E7002A00F09080B2FA82F6002EB6
:100DB00040F0A4808A1A030C4FEA174E80B2BCB2EE
:100DC0000121B2FBFEFC0EFB1C2243EA024304FBA2
:100DD0000CF29A4207D9FB180CF1FF3802D29A4262
:100DE00000F2E080C4469B1AB3FBFEF20EFB123306
:100DF00040EA034302FB04F49C4207D9FB1802F1CA
:100E0000FF3002D29C4200F2CA8002461B1B42EA1B
:100E10000C40A5E7C1F120068B4022FA06F71F43DC
:100E20000EFA01F420FA06F32EFA06FE4FEA1749ED
:100E3000234300FA01F81FFA87FCBEFBF9F01C0CF3
:100E400009FB10EE44EA0E4400FB0CFEA64502FA34
:100E500001F209D93C1900F1FF3A80F09C80A645C7
:100E600040F2998002383C44A4EB0E041FFA83FE42
:100E7000B4FBF9F309FB13444EEA044403FB0CFCF6
:100E8000A44508D93C1903F1FF3E80F08280A445B7
:100E90007FD9023B3C4443EA0040A4EB0C04A0FB96
:100EA00002EC64457346E14662D35FD05DB1B8EBB6
:100EB000030264EB090404FA06F622FA01F31E4366
:100EC000CC40C5E9006400214FE7B1FBF2FC010C06
:100ED00041EA0E4180B240EA01423B4638463C4678
:100EE000B846BE462026B1FBF7F1A2EB080241EA64
:100EF0000C4166E7014618E710462CE7C6F12002D0
:100F00002EFA02F3B740B14020FA02F24FEA174E30
:100F10000A43B3FBFEF8BCB20EFB1833110C41EAD6
:100F2000034108FB04F9B04089454FEA104380B201
:100F30003ED9791808F1FF3C01D289451FD8A1EBB1
:100F40000901B1FBFEF909FB04F80EFB191192B27D
:100F500042EA0142424529D2BA1809F1FF31C4D20E
:100F60004245C2D2A9F102013A44BEE7F0459DD202
:100F7000BEEB02036CEB070C0138E14696E7A7EBEA
:100F800009094944A8F1020CB1FBFEF909FB04F878
:100F9000DBE773467FE7504666E70846FDE63B44DD
:100FA000023A33E7ACF1020C3B441CE749469CE7AC
:100FB000A1EB0901C446B1FBFEF909FB04F8C4E743
:100FC000704700BF80B582B000AF78607B680322B5
:100FD0001A777B68184600F0F6FC00BF0837BD465C
:100FE00080BD80B584B000AF78607B68002B01D1F4
:100FF000002317E0786803F09FFA0521786803F072
:10100000A0FB0346002B04D0786803F067FB0023A5
:1010100008E0786803F020FC0346FB81786803F061
:101020005DFBFB8918461037BD4680BD80B582B098
:1010300000AF786039607B68184600F0B1FC7B68CF
:1010400000221A777B683A685A627B68DB8B002B38
:1010500010D17B681B8B07EE903AF8EEE77A9FED94
:101060000F7A67EE877AFCEEE77A17EE903A9AB23B
:101070007B68DA837B681B6A002B03D17B6842F6AE
:10108000E0621A627B685B8E002B02D17B680A22C9
:101090005A8600BF0837BD4680BD00BF9A99193FE8
:1010A00080B582B000AF786039607B6801221A7722
:1010B0007B683A685A6278687B68DB8B1A46012144
:1010C00000F09DFC00BF0837BD4680BD80B582B0F2
:1010D00000AF786039607B6802221A777B683A68D3
:1010E0005A6278687B68DB8B1A46022100F087FC25
:1010F00000BF0837BD4680BD80B582B000AF7860C4
:101100007B6800221A777B68184600F05CFC00BF01
:101110000837BD4680BD80B584B000AF78603960C7
:101120007B681B7F002B49D07B681B7F032B45D03E
:101130007B685B6A3A68D21A7B681B6A9A4203D959
:101140007868FFF73FFF3AE07B6893F82830002B80
:1011500035D07B68DB6A1846FFF743FF0346FB8107
:10116000FB89002B03D17868FFF72CFF27E0FB8970
:101170007A68528E13447A68128E934208DA7B683A
:101180001B7F012B1BD039687868FFF789FF16E0B9
:10119000FA897B681B8E19467B685B8E0B449A42EA
:1011A00008DD7B681B7F022B09D039687868FFF760
:1011B0008DFF04E07868FFF79FFF00E000BF103765
:1011C000BD4680BD80B400AF024B1846BD465DF8F9
:1011D000047B7047E402002080B5DAB00EAF924B7A
:1011E000D3ED007AFDEEE77A17EE903AC7F81431A6
:1011F0008D4B93ED007AD7F8143107EE903AF8EE64
:10120000E77A77EE677A9FED897A67EE877AFDEE67
:10121000E77A17EE903AC7F82C31D7F82C31002B2B
:1012200004DAD7F82C315B42C7F82C317E4BD3ED72
:10123000017AFDEEE77A17EE903AC7F810317A4B53
:1012400093ED017AD7F8103107EE903AF8EEE77A8D
:1012500077EE677A9FED757A67EE877AFDEEE77A2B
:1012600017EE903AC7F82831D7F82831002B04DA66
:10127000D7F828315B42C7F828316B4BD3ED027A9F
:10128000FDEEE77A17EE903AC7F80C31664B93ED16
:10129000027AD7F80C3107EE903AF8EEE77A77EE5B
:1012A000677A9FED627A67EE877AFDEEE77A17EE4E
:1012B000903AC7F82431D7F82431002B04DAD7F854
:1012C00024315B42C7F82431594BD3ED007AFDEE4F
:1012D000E77A17EE903AC7F80831554B93ED007A4C
:1012E000D7F8083107EE903AF8EEE77A77EE677AAA
:1012F0009FED4E7A67EE877AFDEEE77A17EE903A29
:10130000C7F82031D7F82031002B04DAD7F8203184
:101310005B42C7F82031474BD3ED007AFDEEE77A08
:1013200017EE903AC7F80431424B93ED007AD7F8A4
:10133000043107EE903AF8EEE77A77EE677A9FEDA0
:101340003B7A67EE877AFDEEE77A17EE903AC7F8B8
:101350001C31D7F81C31002B04DAD7F81C315B4262
:10136000C7F81C31344BD3ED007AFDEEE77A17EE67
:10137000903AC7F80031304B93ED007AD7F800313E
:1013800007EE903AF8EEE77A77EE677A9FED277AE4
:1013900067EE877AFDEEE77A17EE903AC7F81831D4
:1013A000D7F81831002B04DAD7F818315B42C7F8A8
:1013B00018311D4B1B691C4A52691B49097E38466E
:1013C0000D910C920B93D7F818310A93D7F800318E
:1013D0000993D7F81C310893D7F804310793D7F84D
:1013E00020310693D7F808310593D7F824310493B8
:1013F000D7F80C310393D7F828310293D7F810317E
:101400000193D7F82C310093D7F814310B4A4FF4DD
:10141000807110F04BFF3B46184602F0DDF900BF2B
:1014200007F59877BD4680BDE40200200000C84261
:10143000500700204C0700204807002048480108BA
:1014400080B582B000AF1C220021424810F0A7FFF7
:10145000404B00221A613F4B00221A7602F0F8FF3F
:1014600078603D4B3D4A1A603B4B01229A803A4BD3
:101470003A4A9A60384B02229A81374B384A1A61AD
:10148000354B00225A61344B4FF47A721A83324B37
:101490004FF41672DA83304B42F6E0621A622E4B3A
:1014A000002283F828202C4B0022DA6279682A482F
:1014B000FFF7BCFD2B4B2C4A1A602A4B4FF40072ED
:1014C0009A80284B284A9A60264B4FF400629A81F2
:1014D000244B234A1A61234B04225A61214B4FF4B7
:1014E0007A721A831F4B4FF4FA72DA831D4B4FF452
:1014F000FA521A621B4B002283F82820194B002253
:10150000DA6279681748FFF791FD184800F0F8F99A
:10151000174800F0D1F91749174800F0B3FA03460D
:101520001A46164B1A70154B1B78002B03D0144823
:1015300002F052F902E0134802F04EF979681248BD
:1015400000F0DAF8114802F047F900BF0837BD464D
:1015500080BD00BFE4020020000300200004024020
:1015600068050020340300200010024068030020BA
:10157000740300207004002098030020C80300209A
:10158000A0480108D848010890030020F448010849
:10159000B0B596B004AF02F05BFF7864374B1B68C0
:1015A0007A6CD31A132B10D9344A7B6C1360796C84
:1015B0003348FFF7B0FD796C3248FFF7ACFD314B93
:1015C0002F4A796C304800F0ABF8304B1B687A6CCE
:1015D000D31AB3F57A7F4CD32C4A7B6C13602C481A
:1015E00002F018F92B4B1B78002B28D02A4800F06A
:1015F000B5FA294B9B6A264A5360274B9B6A1846CB
:10160000FEF7B2FF04460D46234BDB6A1846FEF791
:10161000ABFF02460B46381DCDE90223CDE900455C
:101620001E4A402110F042FE3B1D1846FEF7DAFD2F
:1016300003469AB2391D3223194809F02FFF0FF0E3
:1016400027FF0146174B83FB0132CB17D21A1346F3
:101650005B001344CA1A0E4B1A610FF019FF0346C0
:10166000002B03F00103B8BF5B42094A5361FFF747
:10167000B3FD00BF4837BD46B0BD00BFCC0300205E
:10168000000300203403002090030020D00300203A
:10169000E4020020C8030020980300201849010834
:1016A000400600205655555580B58EB000AF786085
:1016B00039607B681B7801335A4203F0070302F05C
:1016C000070258BF5342DAB27B681A707B683A68E7
:1016D0005A607B681B7807F10800064A302110F039
:1016E000E5FD07F10803184602F076F800BF383729
:1016F000BD4680BD2849010880B582B000AF786042
:1017000039607B6800221A707B683A685A60034827
:1017100002F062F800BF0837BD4680BD3C490108B1
:1017200080B586B000AFF860B9607A603B60FB6856
:101730005B68BA68D31A7B61FB681B78072B00F2E1
:10174000AD8001A252F823F069170008991700082C
:10175000AB170008DB170008ED1700081B1800087E
:101760002D1800085B1800087B681B7F002B06D132
:101770004C4802F031F8B9687868FFF791FC7B6952
:1017800042F6DF6293427AD97868FFF7B5FCB96810
:10179000F868FFF789FF72E07B69B3F57A7F70D351
:1017A000B968F868FFF780FF6BE07B681B7F002B50
:1017B00006D13D4802F010F8B9687868FFF786FC5A
:1017C0007B6942F6DF6293425DD97868FFF794FC4B
:1017D000B968F868FFF768FF55E07B69B3F57A7F71
:1017E00053D3B968F868FFF75FFF4EE03B681B7F93
:1017F000002B06D12D4801F0EFFFB9683868FFF7DC
:101800004FFC7B69B3F5FA6F41D33868FFF774FC7E
:10181000B968F868FFF748FF39E07B69B3F57A7F6C
:1018200037D3B968F868FFF73FFF32E03B681B7FAA
:10183000002B06D11E4801F0CFFFB9683868FFF7CA
:1018400045FC7B69B3F5FA6F25D33868FFF754FC84
:10185000B968F868FFF728FF1DE07B69B3F57A7F68
:101860001BD3144801F0B8FF7868FFF745FC3868CF
:10187000FFF742FCB968F868FFF716FF0DE000BFFC
:101880000CE000BF0AE000BF08E000BF06E000BFB8
:1018900004E000BF02E000BF00E000BF00BF183757
:1018A000BD4680BD5C490108744901088C490108A6
:1018B000A4490108BC49010880B483B000AF786036
:1018C0007B6800221A707B6800225A607B684FF0A8
:1018D0007E529A607B68094ADA607B684FF47A62CC
:1018E0001A617B684FF47A625A617B6800221A762B
:1018F00000BF0C37BD465DF8047B704700002041F7
:1019000080B483B000AF78607B6800221A707B6877
:1019100000225A707B6800229A707B6800225A600D
:101920007B6800221A7200BF0C37BD465DF8047B4D
:10193000704780B483B000AF78600B467B807B68D3
:101940001B8B7A889A4202D97B681B8B7B807B68D1
:101950005B69002B05D17B681B691B687A885A6319
:1019600018E07B685B69042B05D17B681B691A68EA
:101970007B8893630EE07B685B69082B05D17B68ED
:101980001B691A687B88D36304E07B681B691A684B
:101990007B88136400BF0C37BD465DF8047B70473D
:1019A00080B582B000AF78607B681A697B685B693C
:1019B0001946104608F0ECFE786800F004F800BF05
:1019C0000837BD4680BD80B582B000AF7860002189
:1019D0007868FFF7AEFF7B6818687B689B880022F9
:1019E000194603F0A5FC7B6898687B689B890022F8
:1019F000194603F09DFC00BF0837BD4680BD80B589
:101A000082B000AF78600B46FB7013463B80FB78DA
:101A1000012B02D0022B16D02BE07B6818687B6864
:101A20009B880022194603F083FC7B6898687B68DA
:101A30009B890122194603F07BFC3B881946786894
:101A4000FFF777FF19E07B6818687B689B880122A5
:101A5000194603F06DFC7B6898687B689B890022BF
:101A6000194603F065FC3B8819467868FFF761FF6B
:101A700003E07868FFF7A7FF00BF00BF0837BD4647
:101A800080BD000080B586B002AF786039607B68A9
:101A90003A681A607B68304A5A621E23BB7307F1AA
:101AA0000E02642300930123EC21386803F09EFDAD
:101AB0000346002B01D0002349E00A2002F0D4FCA9
:101AC0000023FB7333E0FB7B5033DBB25B00DBB204
:101AD000BB7307F10E02642300930123EC213868E5
:101AE00003F084FD0346002B01D000232FE007F113
:101AF0000C02642300930223EC21386803F074FE87
:101B00000346002B01D0002321E03B7B1BB21B02CC
:101B10001AB27B7B1BB213431AB2FB7B91B27A6879
:101B20005B0013440A469A80FB7B0133FB73FB7B0B
:101B3000062BC8D97B68DB88002B05D07B68DB8847
:101B40004FF6FF72934201D1002300E001231846B3
:101B50001037BD4680BD00BF002080442DE9B04F46
:101B6000D2B002AFC7F804014A2387F80B31D7F887
:101B70000431186807F20B12642300930123EC214F
:101B800003F034FD142002F06FFC002387F80B31C2
:101B9000D7F80431186807F20B126423009301236D
:101BA000EC2103F023FDD7F80431186807F584729F
:101BB000642300930323EC2103F016FE97F8083109
:101BC0001A0497F809311B021A4397F80A31134394
:101BD0001A46D7F804315A615A2387F80B31D7F8DF
:101BE0000431186807F20B12642300930123EC21DF
:101BF00003F0FCFC142002F037FC002387F80B31C3
:101C0000D7F80431186807F20B12642300930123FC
:101C1000EC2103F0EBFCD7F80431186807F5847267
:101C2000642300930323EC2103F0DEFD97F80831D1
:101C30001A0497F809311B021A4397F80A31134323
:101C40001A46D7F804319A61D7F804319B691A46CD
:101C5000D7F80431DB891B02D31AC7F83031D7F823
:101C60003031DA17C7F8C830C7F8CC20D7F80431BC
:101C70001B8A9BB200221C461546D7E932010B464F
:101C800004FB03F2034603FB05F313440246A2FBE5
:101C900004AB5B449B4652465B46002B07DAC349C4
:101CA0005118B96543F10003FB65D7E916234FF0DE
:101CB00000004FF00001D00D40EA4320D915024644
:101CC0000B46134603F5FA631A46D7F80431DA6176
:101CD000D7F80431DB889BB20022C7F8C030C7F8C0
:101CE000C4204FF000044FF00005D7E9301213462E
:101CF000DD030B4645EA53450B46DC03D7F80431B8
:101D00005B899BB20022C7F8B830C7F8BC20D7F86F
:101D10003031DA17C7F8F830C7F8FC20D7E92E01C0
:101D20000B46D7E93EAB524602FB03F2C7E93EAB96
:101D30005B4682468B46514601FB03F313445246F1
:101D4000D7F8F810A2FB0112C7F8F4200A46C7F82A
:101D5000F020D7F8F4201344C7F8F430D7E93C2337
:101D6000002B07DA12F1FF01396543F100037B65AF
:101D7000D7E914234FF000004FF00001100A40EAA9
:101D80000360191202460B46A118B96445EB030320
:101D9000FB64D7E91234C7E94A34D7F804311B8908
:101DA0009BB20022C7F8B030C7F8B4204FF000044F
:101DB0004FF00005D7E92C1213461D040B4645EAE7
:101DC00013450B461C04D7F804319B899BB20022B3
:101DD000C7F8A830C7F8AC20D7F83031DA17C7F801
:101DE000E830C7F8EC20D7E92A010B46D7E93AAB2F
:101DF000524602FB03F2C7E93AAB5B4682468B468A
:101E0000514601FB03F313445246D7F8E810A2FBF6
:101E10000112C7F8E4200A46C7F8E020D7F8E4200A
:101E20001344C7F8E430D7E93823002B07DA12F15E
:101E30007F01396443F100037B64D7E910234FF03D
:101E400000004FF00001D00940EA4360D91102467A
:101E50000B46A118B96345EB0303FB63D7E90E34C6
:101E6000C7E94834D7F80431DB69B3F5FA6F80F27B
:101E7000A180D7F83031DA17C7F8A030C7F8A4200E
:101E8000D7F83031DA17C7F89830C7F89C20D7E96F
:101E900028452B46D7E926AB524602FB03F25B46A8
:101EA000214601FB03F3134422465146A2FB01895C
:101EB0004B44994642464B46911839635B417B63DC
:101EC000D7E90C2312EB0801C7F8901043EB090384
:101ED000C7F89430D7E92423002B06DA511EB962E3
:101EE00043F10103FB62D7E90A234FF000004FF0F2
:101EF00000015810D91702460B461346C7F8343173
:101F0000D7F80431DB69A3F5FA62D7F80431DB694D
:101F1000A3F5FA6303FB02F213465B001A44D30FE6
:101F200013445B10C7F83831D7F80431DB69A3F5E7
:101F3000FA62D7F80431DB69A3F5FA6303FB02F216
:101F400013469B001344002B00DA0733DB10C7F85D
:101F50003C31D7F80431DA69154B9A427EDAD7F86A
:101F60000431DB6903F2DC52D7F80431DB6903F298
:101F7000DC5303FB02F21346DB009A1AD7F8383120
:101F80001344C7F83831D7F80431DB6903F2DC5267
:101F9000D7F80431DB6903F2DC5302FB03F39A0048
:101FA000D7F83C311344C7F83C3157E0FFFF7F00BE
:101FB00024FAFFFFD7F83031DA17C7F88830C7F8AE
:101FC0008C20D7F83031DA17C7F88030C7F8842072
:101FD000D7E922452B46D7E92089424602FB03F286
:101FE0004B46214601FB03F3134422464146A2FB24
:101FF0000112C7F8DC200A46C7F8D820D7F8DC2041
:102000001344C7F8DC30D7E93623002B06DA511E1B
:10201000396243F10F037B62D7E908234FF00000D8
:102020004FF000011811D91702460B461346C7F8A6
:102030003431D7F80431DB69A3F5FA62D7F80431FB
:10204000DB69A3F5FA6302FB03F3002B00DA0F331D
:102050001B11C7F838310023C7F83C31D7F83831A5
:10206000DA17BB67FA67D7E94823D7E91E45214647
:10207000511AB961294663EB0103FB61D7E90634C4
:10208000C7E94634D7F83C31DA173B677A67D7E9B6
:102090004A23D7E91C452146511A3961294663EB89
:1020A00001037B61D7E90434C7E94434D7F804312C
:1020B000DA69D7F83431D21AD7F80431DA61D7F8AF
:1020C00004315B690022BB66FA66D7F81031D7E9A4
:1020D0001A452A4602FB03F2D7F81431214601FBC8
:1020E00003F31344D7F810212146A2FB0112C7F8CD
:1020F000D4200A46C7F8D020D7F8D4201344C7F814
:10210000D430D7E93423002B07DA35495118B960A8
:1021100043F10003FB60D7E902234FF000004FF0CA
:102120000001500D40EAC3205915D7E94623841A0F
:102130003C6661EB03037B66D7E91823002B08DAC2
:1021400041F6FF715118396043F100037B60D7E914
:1021500000234FF000004FF00001500B40EAC34055
:10216000591302460B46D7F804311A62D7F80431E6
:10217000DB6907EE903AB8EEE77ADFED1A6AC7EE50
:10218000267AD7F80431C3ED0B7AD7F804311B6AED
:1021900007EE903AB8EEE77AF2EE046AC7EE267AD6
:1021A0009FED107A67EE877AC7ED437AD7ED437AD1
:1021B0009FED0D7A77EEC76AD7F80431D3ED097A2F
:1021C0009FED0A7A27EE877AC6EE877AD7F8043130
:1021D000C3ED0A7A00BF07F5A077BD46BDE8B08F12
:1021E000FFFF1F000000C84200DAC5470AE81C4193
:1021F00090B52DED028BADF5057D10AF0023C7F82E
:10220000CC314FF00003C7F8C83102F0BBF800F042
:10221000CBFE01F0B5F90EF0EFFB01F05DF901F036
:10222000FDF800F095FF00F02BFF00F0BFFF01F07C
:1022300065F801F07BF900F0E7FF01F03FF80CF0E2
:102240000BFA1C220021AC4810F0A9F8AA4B00227E
:102250001A61A94B00221A76FFF7F2F802F0F8F89B
:10226000034618460FF0E6F80122A449A44809F0F5
:10227000A0F90122A349A44809F09BF9A34801F061
:10228000ABFAA34801F0A8FA642002F0EDF80023AD
:10229000C7F8C431012387F8C33123E097F8C3316D
:1022A0009BB25B0099B20A2301229A4803F0FAFF1D
:1022B0000346002B11D197F8C33107F13400964A39
:1022C00032210FF0F3FF07F13403184601F084FACE
:1022D000D7F8C4310133C7F8C43197F8C33101339B
:1022E00087F8C33197F9C331002BD7DAD7F8C43157
:1022F000002B02D1894801F06FFAD7F8C431002BC6
:1023000002DD874801F068FA642002F0ADF800238E
:1023100087F84731642302930123019307F247139F
:1023200000930123002250217A4803F089FD0346DF
:10233000002B77D197F84731A02B73D1794B282206
:102340001A70794801F048FA002387F84631754B36
:102350001B785B0099B2642302930123019307F574
:10236000A373009301233D226A4803F06FFC1920F8
:1023700002F07AF80C2387F845316A4B1B785B0032
:1023800099B2642302930123019307F2451300934A
:1023900001233D225F4803F059FC642002F064F8F9
:1023A000002387F844315F4B1B785B0099B26423AC
:1023B00002930123019307F5A273009301233D22A9
:1023C000544803F03DFD97F844313846574A3221CE
:1023D0000FF06CFF3B46184601F0FEF9002387F82A
:1023E0004331504B1B785B0099B264230293012365
:1023F000019307F24313009301233522454803F06C
:102400001FFD97F8433107F13400494A32210FF09C
:102410004DFF07F13403184601F0DEF9454801F09D
:10242000DBF986E1642302930123019307F247134A
:102430000093012300225221364803F001FD034698
:10244000002B7DD197F84731A02B79D1354B29222C
:102450001A70394801F0C0F9002387F84231314B36
:102460001B785B0099B2642302930123019307F563
:10247000A173009301233D22264803F0E7FB1920B6
:1024800001F0F2FF0C2387F84131264B1B785B00EB
:1024900099B2642302930123019307F2411300933D
:1024A00001233D221B4803F0D1FB642001F0DCFF37
:1024B000002387F840311B4B1B785B0099B26423E3
:1024C00002930123019307F5A073009301233D229A
:1024D000104803F0B5FC97F8403107F13400134A77
:1024E00032210FF0E3FE07F13403184601F074F9CE
:1024F000124801F071F91CE10C070020550700207B
:10250000F8050020DA07002040060020E049010815
:10251000084A01081C040020204A0108404A01081A
:102520006C4A0108000000209C4A0108BC4A0108CE
:10253000D44A0108EC4A0108044B0108244B010865
:102540006A4801F049F9002387F83F31684B1B784E
:102550005B0099B2642302930123019307F23F13B6
:10256000009301237522634803F06AFC034687F851
:102570009B3197F89B31002B40F0C88097F83F3192
:10258000712B08D097F83F31702B04D097F83F316A
:10259000112B40F0BB80584B01221A7097F83F3145
:1025A00007F13400554A32210FF080FE07F1340361
:1025B000184601F011F9002387F83E31802387F88F
:1025C0003E314B4B1B785B0099B26423029301238D
:1025D000019307F59F73009301236B22454803F095
:1025E00035FB642001F040FF012387F83E31404B6A
:1025F0001B785B0099B2642302930123019307F5D2
:102600009F73009301236B223A4803F01FFB0A20BB
:1026100001F02AFF032387F83E31354B1B785B001E
:1026200099B2642302930123019307F59F730093EA
:1026300001231A222F4803F009FB182387F83E31A3
:102640002B4B1B785B0099B2642302930123019307
:1026500007F59F73009301231B22264803F0F6FA27
:10266000082387F83E31224B1B785B0099B2642324
:1026700002930123019307F59F73009301231C220A
:102680001C4803F0E3FA022387F83E31184B1B780D
:102690005B0099B2642302930123019307F59F73B2
:1026A000009301233722134803F0D0FA0A2001F0E7
:1026B000DBFE162387F83E31114B1B785B0099B285
:1026C000642302930123019307F59F730093012371
:1026D0000A22084803F0BAFA0346002B02D109483F
:1026E00001F07AF8084801F077F822E0444B01083D
:1026F000010000201C04002054070020844B010826
:1027000002000020AC4B0108D44B010897F89B3124
:1027100097F83F2107F134000092874A64210FF0B7
:10272000C5FD07F13403184601F056F8834801F05F
:1027300053F8FEF72DFF824B1B78DBB2002B0BD03A
:102740008048FDF74FFD03469BB219467D4801F0D6
:1027500005F97B4B00221A707B4B1B78DBB2002BF8
:1027600011D007F13400794B794AA0210FF09EFD7A
:1027700007F13403184601F02FF8744800F0D6FF33
:10278000714B00221A7001F063FEC7F89401714B7F
:102790001B68D7F89421D31A4FF47A729342C8D3A6
:1027A0006C4AD7F8943113604FF07F53C7F89031DB
:1027B000694BC7F88C31D7ED647AFDEEE77A17EEF6
:1027C000903AC7F88831D7F8883107EE903AF8EE9A
:1027D000E77A97ED647A77EE677A9FED607A67EE35
:1027E000877AFDEEE77A17EE903AC7F88431D7ED95
:1027F000637AFDEEE77A17EE903AC7F88031D7F8A2
:10280000803107EE903AF8EEE77A97ED637A77EE4B
:10281000677A9FED527A67EE877AFDEEE77A17EED8
:10282000903AC7F87C313846D7F87C310293D7F814
:1028300080310193D7F884310093D7F88831484A22
:1028400032210FF033FD3B461846FDF7CBFC034623
:102850009AB239466423434808F020FE424B1B7865
:1028600083F00103DBB2002B00F092803F4B1B781A
:102870005B0099B264230293062301933C4B0093BF
:1028800001231A223B4803F0DBFA034687F8633141
:1028900097F86331002B40F0FD81354B5B781BB21C
:1028A0001B021AB2324B1B781BB213431AB2324BC3
:1028B0001A802F4BDB781BB21B021AB22C4B9B7871
:1028C0001BB213431AB22D4B1A80294B5B791BB2F2
:1028D0001B021AB2264B1B791BB213431AB2284BA8
:1028E0001A80254BB3F9003007EE903AB8EEE77A3C
:1028F000F3EE006AC7EE267A224BC3ED007A1F4B37
:10290000B3F9003007EE903AB8EEE77AF3EE006ADA
:10291000C7EE267A1C4BC3ED007A194BB3F9003091
:1029200007EE903AB8EEE77AF3EE006AC7EE267A41
:10293000164BC3ED007AADE1F44B0108284C0108B9
:102940006408002068080020880600208C0600200B
:10295000504C0108280700206666A2410000C842CA
:10296000684C0108F80500205407002000000020F2
:102970002C0700201C0400204607002044070020EC
:1029800042070020500700204C0700204807002085
:10299000D34B1B785B0099B2642302930E230193FF
:1029A000D04B009301233B22CF4803F049FA034662
:1029B000002B40F06F81CB4B1B781BB21B021AB26D
:1029C000C84B5B781BB21343A7F87A31C54B9B7891
:1029D0001BB21B021AB2C34BDB781BB21343A7F81E
:1029E0007831C04B1B791BB21B021AB2BD4B5B790D
:1029F0001BB21343A7F87631B7F9783107EE903A56
:102A0000B8EEE78AB7F97A3107EE903AB8EEE77A8E
:102A1000B7F97A3107EE903AF8EEE77A27EE277A9F
:102A2000B7F9763107EE903AF8EEE76AB7F9763102
:102A300007EE903AF8EEE77A66EEA77A77EE277A15
:102A4000B0EE670A11F054FDF0EE407AF0EE670A3E
:102A5000B0EE480A11F04AFDF0EE407A9FEDA37AFD
:102A600067EE877AA24BC3ED007AB7F97A3107EEA9
:102A7000903AF8EEE77AF1EE677AB7F9763107EE39
:102A8000103AB8EEC77AF0EE470AB0EE670A11F0D6
:102A90002DFDF0EE407A9FED957A67EE877A954BA3
:102AA000C3ED007A002387F83D31934B1B785B0020
:102AB00099B2642302930123019307F23D1300931B
:102AC00001230222884803F0BBF997F83D3103F057
:102AD0000103002B43D0884B1B785B0099B2642321
:102AE00002930723019307F59A73009301230322AE
:102AF0007D4803F0A5F90346002B30D197F8353116
:102B00001BB21B021AB297F834311BB21343A7F859
:102B1000743197F837311BB21B021AB297F836316D
:102B20001BB21343A7F87231B7F9723107EE903A2E
:102B3000F8EEE77AB7F9743107EE103AB8EEC77AD3
:102B4000F0EE470AB0EE670A11F0D0FCF0EE407AE2
:102B50009FED667A67EE877A684BC3ED007A644B27
:102B6000D3ED007AFDEEE77A17EE903AC7F86C31B4
:102B70005F4B93ED007AD7F86C3107EE903AF8EEA0
:102B8000E77A77EE677AB2EE047A67EE877AFDEE3F
:102B9000E77A17EE903AC7F8BC31D7F8BC31002B72
:102BA00004DAD7F8BC315B42C7F8BC31514BD3EDE6
:102BB000007AFDEEE77A17EE903AC7F868314D4B90
:102BC00093ED007AD7F8683107EE903AF8EEE77A9D
:102BD00077EE677AB2EE047A67EE877AFDEEE77AEF
:102BE00017EE903AC7F8B831D7F8B831002B04DAAD
:102BF000D7F8B8315B42C7F8B831404BD3ED007A13
:102C0000FDEEE77A17EE903AC7F864313B4B93ED4F
:102C1000007AD7F8643107EE903AF8EEE77A77EE6B
:102C2000677AB2EE047A67EE877AFDEEE77A17EEFE
:102C3000903AC7F8B431D7F8B431002B04DAD7F89A
:102C4000B4315B42C7F8B431B7F97A41B7F978319A
:102C5000B7F9762107F13400D7F8B4110791D7F806
:102C600064110691D7F8B8110591D7F8681104914D
:102C7000D7F8BC110391D7F86C110291019200931F
:102C800023461F4A64210FF011FB07F13403184655
:102C900000F0A2FD1B4801F04FFC0A21194801F089
:102CA00050FD0346002B10D1164801F0D5FDC7F8A2
:102CB000CC01D7F8CC3107EE903AF8EE677A9FED69
:102CC000127A67EE877AC7ED727A0E4801F006FD38
:102CD0000E4800F09FFD0EF0DBFB014618E000BF40
:102CE00001000020340700201C040020E12E654272
:102CF000480700204C070020020000205007002059
:102D0000804C0108D40300206740533A0C07002090
:102D10009C4B83FB0132CB17D21A13465B00134442
:102D2000CA1A994B1A610EF0B3FB0346002B03F04D
:102D30000103B8BF5B42944A5361934BD3ED007AD1
:102D4000FDEEE77A17EE903AC7F85C318E4B93EDC3
:102D5000007AD7F85C3107EE903AF8EEE77A77EE32
:102D6000677A9FED8A7A67EE877AFDEEE77A17EE4B
:102D7000903AC7F8B031D7F8B031002B04DAD7F861
:102D8000B0315B42C7F8B0317F4BD3ED017AFDEE35
:102D9000E77A17EE903AC7F858317B4B93ED017AFA
:102DA000D7F8583107EE903AF8EEE77A77EE677A7F
:102DB0009FED767A67EE877AFDEEE77A17EE903A26
:102DC000C7F8AC31D7F8AC31002B04DAD7F8AC3106
:102DD0005B42C7F8AC316E4BD3ED007AFDEEE77A7B
:102DE00017EE903AC7F85431694B93ED007AD7F853
:102DF000543107EE903AF8EEE77A77EE677A9FED76
:102E0000637A67EE877AFDEEE77A17EE903AC7F8B5
:102E1000A831D7F8A831002B04DAD7F8A8315B42E3
:102E2000C7F8A8315B4BD3ED007AFDEEE77A17EED9
:102E3000903AC7F85031574B93ED007AD7F850319C
:102E400007EE903AF8EEE77A77EE677A9FED4F7AE1
:102E500067EE877AFDEEE77A17EE903AC7F8A4316D
:102E6000D7F8A431002B04DAD7F8A4315B42C7F8B5
:102E7000A431494BD3ED007AFDEEE77A17EE903A94
:102E8000C7F84C31444B93ED007AD7F84C3107EE3C
:102E9000903AF8EEE77A77EE677A9FED3C7A67EE44
:102EA000877AFDEEE77A17EE903AC7F8A031D7F8A7
:102EB000A031002B04DAD7F8A0315B42C7F8A0316B
:102EC000D7ED727AFDEEE77A17EE903AC7F84831FF
:102ED000D7F8483107EE903AF8EEE77A97ED727A34
:102EE00077EE677A9FED2D7A67EE877AFDEEE77AC7
:102EF00017EE903AC7F89C31D7F89C31002B04DAD2
:102F0000D7F89C315B42C7F89C311F4B1B691E4AA6
:102F100052692349096807F134000E91D7F8CC11A2
:102F20000D910C920B93D7F89C310A93D7F8483146
:102F30000993D7F8B0310893D7F85C310793D7F8E5
:102F4000AC310693D7F858310593D7F8A8310493DC
:102F5000D7F854310393D7F8A4310293D7F85031FE
:102F60000193D7F8A0310093D7F84C310D4A4FF4B4
:102F700080710FF09BF907F13403184600F02CFC28
:102F8000FFF7D7BB565555550C0700200000C84227
:102F9000480700204C0700205007002000007A441A
:102FA00060080020B04C010880B594B000AF07F174
:102FB00020033022002118460FF0F1F907F10C032D
:102FC00000221A605A609A60DA601A610023BB60BE
:102FD000294B1B6C284A43F080531364264B1B6C0F
:102FE00003F08053BB60BB6800237B60234B1B68EE
:102FF000224A43F480431360204B1B6803F4804350
:103000007B607B6809233B624FF480337B62012342
:103010007B630223BB634FF48003FB6308233B64A1
:103020004FF4A8737B640223BB640723FB6407F19E
:103030002003184605F0BAF90346002B01D000F032
:10304000A9FD0F23FB6002233B6100237B614FF44A
:10305000A053BB614FF48053FB6107F10C030521C2
:10306000184605F01BFC0346002B01D000F092FD32
:1030700000BF5037BD4680BD0038024000700040A0
:1030800080B58AB000AF07F1180300221A605A60B9
:103090009A60DA602A4B2B4A1A60294B4FF480322F
:1030A0005A60274B00229A60254B00221A61244B5C
:1030B00000221A76224B002283F82020204B002287
:1030C000DA621F4B204A9A621D4B0022DA601C4BC9
:1030D0000122DA611A4B002283F83020184B0122BA
:1030E0005A61174801F0E4F90346002B01D000F0C3
:1030F00051FD0023BB610123FB6100233B6207F10B
:10310000180319460E4801F0B5FB0346002B01D009
:1031100000F040FD3B1D00221A605A609A60DA60A0
:103120001A6101237B600323BB600023FB603B1D0E
:103130001946064801F060FF00BF2837BD4680BD34
:10314000D4030020002001400100000F00000240D5
:1031500080B500AF124B134A1A60114B124A5A60E5
:103160000F4B00229A600E4B0022DA600C4B4FF49A
:1031700080421A610A4B00225A61094B00229A616F
:10318000074B0022DA61064B00221A62044802F063
:10319000E9F80346002B01D000F0FCFC00BF80BD25
:1031A0001C04002000540040A086010080B500AF40
:1031B000124B134A1A60114B124A5A600F4B0022ED
:1031C0009A600E4B0022DA600C4B4FF480421A6179
:1031D0000A4B00225A61094B00229A61074B0022D8
:1031E000DA61064B00221A62044802F0BBF803467B
:1031F000002B01D000F0CEFC00BF80BD7004002089
:1032000000580040A086010080B586B000AF3B1D8D
:1032100000221A605A609A60DA601A6100233B60EB
:10322000244B254A1A60234B00225A60214B7F22EF
:103230009A60204BFF22DA601E4B00221A611D4B60
:1032400000225A611B4B00229A611A4805F028FEA1
:103250000346002B01D000F09DFC00233B710023AE
:103260007B710023BB7100233B6100237B613B1D0D
:10327000012219460F4805F094FE0346002B01D0A9
:1032800000F088FC01233B7001237B700123BB709D
:103290000023FB703B4601221946064805F01BFF40
:1032A0000346002B01D000F075FC00BF1837BD4667
:1032B00080BD00BFC40400200028004080B400AFDF
:1032C0000C4B0D4A1A600B4B00225A60094B00222E
:1032D0009A60084B0022DA60064B00221A61054B07
:1032E00000225A61034B00229A6100BFBD465DF87F
:1032F000047B7047E4040020002C014080B592B0AC
:1033000000AF07F1400300221A605A6007F124035E
:1033100000221A605A609A60DA601A615A619A61F2
:103320003B1D2022002118460FF039F8394B3A4A4C
:103330001A60384BA7225A60364B00229A60354BF0
:103340004FF47A72DA60334B00221A61314B00225B
:103350005A61304B00229A612E4807F0CAF90346A1
:10336000002B01D000F016FC00233B6400237B649B
:1033700007F140031946274807F072FF0346002B68
:1033800001D000F007FC60237B620023BB620023B6
:10339000FB6200233B6300237B630023BB630023AA
:1033A000FB6307F12403002219461A4807F0B8FA14
:1033B0000346002B01D000F0EDFB07F124030422AB
:1033C0001946144807F0ACFA0346002B01D000F070
:1033D000E1FB00237B600023BB600023FB60002334
:1033E0003B6100237B614FF40053BB6100233B62D0
:1033F0003B1D1946074807F0AFFF0346002B01D0DD
:1034000000F0C8FB034800F087FD00BF4837BD4609
:1034100080BD00BF680500200000014080B588B075
:1034200000AF00237B602A4B1B6C294A43F0010349
:103430001364274B1B6C03F001037B607B6807F16F
:10344000100300221A605A609A60DA6007F10803DC
:1034500000221A605A601F4B4FF080421A601D4BC9
:10346000A7225A601B4B00229A601A4B4FF6FF723C
:10347000DA60184B00221A61164B00229A61154837
:1034800007F0E8F80346002B01D000F083FB4FF46F
:1034900080533B6107F1100319460E4807F002FB09
:1034A0000346002B01D000F075FB0023BB60002316
:1034B000FB6007F108031946064807F0D1FE0346F2
:1034C000002B01D000F066FB00BF2037BD4680BD59
:1034D00000380240B005002080B500AF114B124A01
:1034E0001A60104B4FF4E1325A600E4B00229A6082
:1034F0000C4B0022DA600B4B00221A61094B0C22A4
:103500005A61084B00229A61064B0022DA61054895
:1035100007F074FF0346002B01D000F03BFB00BF17
:1035200080BD00BFF80500200044004080B500AF1A
:10353000114B124A1A60104B4FF4E1325A600E4B95
:1035400000229A600C4B0022DA600B4B00221A61B9
:10355000094B0C225A61084B00229A61064B00224B
:10356000DA61054807F04AFF0346002B01D000F05E
:1035700011FB00BF80BD00BF400600200048004096
:1035800080B58CB000AF07F11C0300221A605A60AE
:103590009A60DA601A610023BB61604B1B6B5F4A63
:1035A00043F0800313635D4B1B6B03F08003BB612F
:1035B000BB6900237B61594B1B6B584A43F00103E5
:1035C0001363564B1B6B03F001037B617B69002384
:1035D0003B61524B1B6B514A43F0020313634F4B49
:1035E0001B6B03F002033B613B690023FB604B4B09
:1035F0001B6B4A4A43F010031363484B1B6B03F0E9
:103600001003FB60FB680023BB60444B1B6B434A09
:1036100043F008031363414B1B6B03F00803BB60CB
:10362000BB6800237B603D4B1B6B3C4A43F00403AB
:1036300013633A4B1B6B03F004037B607B6800222F
:103640000321374801F074FE00224FF42061354811
:1036500001F06EFE0223FB6100233B6200237B62CC
:1036600007F11C031946304801F0C6FC0323FB6137
:1036700001233B6200237B620023BB6207F11C0332
:103680001946274801F0B8FC4FF42063FB61012381
:103690003B6200237B620023BB6207F11C031946D7
:1036A000204801F0A9FCC023FB6101233B620023F9
:1036B0007B620023BB6207F11C0319461A4801F024
:1036C0009BFC0122C021184801F032FE00233B6020
:1036D000124B1B6B114A43F0020313630F4B1B6B1E
:1036E00003F002033B603B6840F60343FB610123A8
:1036F0003B6200237B620023BB6207F11C03194677
:10370000074801F079FC002240F60341044801F02B
:103710000FFE00BF3037BD4680BD00BF00380240FD
:1037200000040240001002400000024080B5AAB030
:1037300000AF786007F108007B68214A94210EF001
:10374000B5FD07F10803184600F046F81D497868F2
:103750000EF052FEC7F8A400D7F8A430002B24D0F6
:10376000D7F8A430023318460DF060FE53EC102B4E
:1037700010461946FDF70AFA0346C7F8A030D7ED00
:10378000287AB7EE007AF4EEC77AF1EE10FA06DB8B
:10379000642308220C490D4807F080FE05E06423ED
:1037A00008220B49094807F079FE0A4978680EF0AB
:1037B00023FEC7F89C0000BFA837BD4680BD00BFF0
:1037C000244D0108384D01083C4D010840060020F9
:1037D000484D0108544D010880B582B000AF7860B3
:1037E0007868FCF7FFFC03469AB2642379680848BE
:1037F00007F054FE7868FCF7F5FC03469BB21946C7
:1038000078680DF0B7F900BF0837BD4680BD00BF2E
:10381000F805002080B584B000AF78600DF038FE68
:103820000346464A82FB03125110DA178A1AC9214D
:1038300001FB02F29A1A07EE902AB8EEE77ADFED62
:10384000406AC7EE267AB2EE067A77EE877A7B6810
:10385000C3ED007A0DF01CFE02463A4B83FB0213C7
:1038600013445911D317C91A0B465B000B441901B5
:103870000B44D11A07EE901AB8EEE77ADFED306A02
:10388000C7EE267AC7ED037A2F4B1B78002B1AD090
:103890007B6893ED017AD7ED037A77EE277A7B6820
:1038A000C3ED017A7B68D3ED017A9FED287AF4EEBF
:1038B000C77AF1EE10FA1FDB7B68254A5A60224B6B
:1038C00000221A7018E07B6893ED017AD7ED037A35
:1038D00077EE677A7B68C3ED017A7B68D3ED017A76
:1038E000F5EEC07AF1EE10FA06D87B684FF00002D0
:1038F0005A60154B01221A700DF0CAFD0346154A95
:1039000082FB03129112DA178A1A40F6C51101FBE5
:1039100002F29A1A07EE902AB8EEE77ADFED086A0B
:10392000C7EE267A9FED0C7A77EE877A7B68C3ED37
:10393000027A00BF1037BD4680BD00BF79198C02E6
:103940000000C842A1A0A0A003000020000048423F
:1039500000004842FFCFD06800008C4280B582B0A2
:1039600000AF78600B467B807B88002B07D07B887C
:103970007F2B04D87B887A68134400221A70194977
:103980007868FCF725FC0346002B08D1FDF71AFCEC
:10399000034601221A761448FFF71EFF1DE0134963
:1039A0007868FCF715FC0346002B08D1FDF70AFCEC
:1039B000034600221A760E48FFF70EFF0DE00D4970
:1039C0007868FCF705FC0346002B03D10A48FFF793
:1039D00003FF02E00948FFF7FFFE00BF0837BD46BE
:1039E00080BD00BF584D0108684D0108804D010899
:1039F000904D0108A84D0108B84D0108CC4D0108B3
:103A000080B582B000AF78607B681A68544B1B6841
:103A10009A423FD1534B1B780A2B03D0514B1B7852
:103A20000D2B22D1504B1B88002B2DD04E4B1B88C9
:103A30001A464E4B002199544D4B1B78DBB283F054
:103A40000103DBB2002B07D08022484949480EF021
:103A5000C0FC474B01221A70434B00221A8080227F
:103A6000002142480EF09BFC0EE03F4B1B887E2B52
:103A70000AD83D4B1B885A1C91B23B4A11801A460A
:103A8000384B1978394B995401223649344807F09C
:103A900090FD61E07B681A68374B1B689A425BD1E6
:103AA000364B1B780A2B03D0344B1B780D2B22D1BD
:103AB000334B1B88002B4AD0314B1B881A46314BA5
:103AC00000219954304B1B78DBB283F00103DBB249
:103AD000002B07D080222B492C480EF07AFC2A4B71
:103AE00001221A70264B00221A80802200212548CC
:103AF0000EF055FC2BE0264B1B680133244A136063
:103B00001F4B1B887E2B0BD81D4B1B885A1C91B258
:103B10001B4A11801A46194B19781A4B995416E012
:103B2000184B002283F87F20174B1B78DBB283F001
:103B30000103DBB2002B07D08022124913480EF09C
:103B400048FC114B01221A700D4B00221A800122F1
:103B50000A49094807F02DFD00BF0837BD4680BD62
:103B6000F805002055070020D8070020580700203E
:103B7000640800206808002040060020DA070020C2
:103B80005C080020DC070020880600208C0600204E
:103B90006008002080B400AF72B600BF00BFFDE730
:103BA00080B483B000AF00237B60104B5B6C0F4A86
:103BB00043F4804353640D4B5B6C03F480437B60A0
:103BC0007B6800233B60094B1B6C084A43F0805321
:103BD0001364064B1B6C03F080533B603B6800BFD3
:103BE0000C37BD465DF8047B704700BF00380240CB
:103BF00080B58AB000AF786007F1140300221A6024
:103C00005A609A60DA601A617B681B68174A9342AF
:103C100027D100233B61164B5B6C154A43F480733C
:103C20005364134B5B6C03F480733B613B6900236B
:103C3000FB600F4B1B6B0E4A43F0010313630C4BED
:103C40001B6B03F00103FB60FB6801237B61032313
:103C5000BB610023FB6107F114031946054801F01D
:103C6000CBF900BF2837BD4680BD00BF0020014012
:103C7000003802400000024080B58CB000AF786090
:103C800007F11C0300221A605A609A60DA601A6118
:103C90007B681B68324A93422CD10023BB61314BB5
:103CA0001B6B304A43F0020313632E4B1B6B03F074
:103CB0000203BB61BB69C023FB6112233B6200238B
:103CC0007B620323BB620423FB6207F11C031946DA
:103CD000254801F091F900237B61224B1B6C214A9E
:103CE00043F4001313641F4B1B6C03F400137B613C
:103CF0007B6931E07B681B681C4A93422CD100230E
:103D00003B61184B1B6B174A43F002031363154BBF
:103D10001B6B03F002033B613B694FF44063FB61A3
:103D200012233B6200237B620323BB620423FB62FA
:103D300007F11C0319460C4801F05EF90023FB60F3
:103D4000084B1B6C074A43F480031364054B1B6C40
:103D500003F48003FB60FB6800BF3037BD4680BDC5
:103D60000054004000380240000402400058004067
:103D700080B586B000AF786007F1080300221A60B2
:103D80005A609A60DA607B681B680C4A934211D1D2
:103D90000223BB604FF400737B6107F108031846F0
:103DA00004F09CFF0346002B01D0FFF7F3FE044B09
:103DB00001221A6000BF1837BD4680BD00280040B0
:103DC0003C0E474280B58AB000AF786007F114031B
:103DD00000221A605A609A60DA601A617B681B6878
:103DE000284A93424AD100233B61274B5B6C264A09
:103DF00043F400635364244B5B6C03F400633B6146
:103E00003B690023FB60204B1B6B1F4A43F00403FC
:103E100013631D4B1B6B03F00403FB60FB68002363
:103E2000BB60194B1B6B184A43F008031363164B16
:103E30001B6B03F00803BB60BB684FF4F8537B6156
:103E40000223BB610023FB6103233B620C237B62E3
:103E500007F1140319460D4801F0CEF804237B61E5
:103E60000223BB610023FB6103233B620C237B62C3
:103E700007F114031946064801F0BEF800BF2837C1
:103E8000BD4680BD002C01400038024000080240C1
:103E9000000C024080B485B000AF78607B681B687E
:103EA0000B4A93420DD10023FB600A4B5B6C094A1D
:103EB00043F001035364074B5B6C03F00103FB60A9
:103EC000FB6800BF1437BD465DF8047B704700BF38
:103ED000000001400038024080B485B000AF786037
:103EE0007B681B68B3F1804F0DD10023FB60094B49
:103EF0001B6C084A43F001031364064B1B6C03F070
:103F00000103FB60FB6800BF1437BD465DF8047B0E
:103F1000704700BF0038024080B588B000AF7860BD
:103F200007F10C0300221A605A609A60DA601A6185
:103F30007B681B68124A93421ED10023BB60114B61
:103F40001B6B104A43F0010313630E4B1B6B03F012
:103F50000103BB60BB684FF44073FB6002233B610D
:103F600000237B610023BB610123FB6107F10C038C
:103F70001946054801F040F800BF2037BD4680BD16
:103F800000000140003802400000024080B58CB0C3
:103F900000AF786007F11C0300221A605A609A6033
:103FA000DA601A617B681B68494A934252D1002348
:103FB000BB61484B1B6C474A43F400331364454BC9
:103FC0001B6C03F40033BB61BB6900237B61414B75
:103FD0001B6B404A43F0010313633E4B1B6B03F022
:103FE00001037B617B6900233B613A4B1B6B394AC0
:103FF00043F008031363374B1B6B03F008033B616B
:104000003B690423FB6102233B6200237B620323A1
:10401000BB620723FB6207F11C0319462E4800F020
:10402000EBFF4023FB6102233B6200237B620323FF
:10403000BB620723FB6207F11C031946274800F007
:10404000DBFF00220021262000F00DFF262000F0DB
:1040500026FF39E07B681B68214A934234D1002354
:10406000FB601C4B1B6C1B4A43F480231364194BED
:104070001B6C03F48023FB60FB680023BB60154BC3
:104080001B6B144A43F008031363124B1B6B03F0C2
:104090000803BB60BB684FF44073FB6102233B62C3
:1040A00000237B620323BB620723FB6207F11C032F
:1040B00019460A4800F0A0FF00220021272000F046
:1040C000D2FE272000F0EBFE00BF3037BD4680BD9A
:1040D000004400400038024000000240000C024052
:1040E0000048004080B400AF00BFFDE780B400AFDF
:1040F00000BFFDE780B400AF00BFFDE780B400AFB4
:1041000000BFFDE780B400AF00BFFDE780B400AFA3
:1041100000BFBD465DF8047B704780B400AF00BFB0
:10412000BD465DF8047B704780B400AF00BFBD465C
:104130005DF8047B704780B500AF00F075F900BFF3
:1041400080BD000080B500AF024807F057FA00BFFD
:1041500080BD00BFF805002080B500AF024807F021
:104160004DFA00BF80BD00BF4006002080B500AF03
:10417000024803F00DF800BF80BD00BFE41D002021
:1041800080B400AF01231846BD465DF8047B70473C
:1041900080B582B000AF786039600EF089F90346CF
:1041A00016221A604FF0FF3318460837BD4680BD0F
:1041B00080B582B000AF78604FF0FF317868FFF7CC
:1041C000E7FF00BFFDE780B586B000AFF860B960DB
:1041D0007A6000237B610AE0AFF300800146BB6890
:1041E0005A1CBA60CAB21A707B6901337B617A6962
:1041F0007B689A42F0DB7B6818461837BD4680BD65
:1042000080B586B000AFF860B9607A6000237B614A
:1042100009E0BB685A1CBA601B781846AFF30080EF
:104220007B6901337B617A697B689A42F1DB7B6849
:1042300018461837BD4680BD80B483B000AF7860A3
:104240004FF0FF3318460C37BD465DF8047B7047CE
:1042500080B483B000AF786039603B684FF400529F
:104260005A60002318460C37BD465DF8047B704742
:1042700080B483B000AF7860012318460C37BD4688
:104280005DF8047B704780B485B000AFF860B9601A
:104290007A60002318461437BD465DF8047B7047EA
:1042A00080B586B000AF7860144A154BD31A7B6195
:1042B0007B693B61134B1B68002B02D1114B124AE7
:1042C0001A60104B1A687B6813443A699A4207D205
:1042D0000EF0EEF803460C221A604FF0FF3309E0AF
:1042E000084B1B68FB60074B1A687B681344054A40
:1042F0001360FB6818461837BD4680BD00000220D9
:1043000000040000E80800203826002080B400AF38
:10431000064BD3F88830054A43F47003C2F888305E
:1043200000BFBD465DF8047B704700BF00ED00E0B4
:10433000DFF834D0FFF7EAFF0C480D490D4A00239F
:1043400002E0D458C4500433C4188C42F9D30A4A4A
:104350000A4C002301E013600432A242FBD30EF0AA
:10436000ADF8FDF745FF7047000002200000002077
:10437000C8020020B4520108C802002034260020E0
:10438000FEE7000080B500AF0E4B1B680D4A43F4FA
:10439000007313600B4B1B680A4A43F4806313607D
:1043A000084B1B68074A43F480731360032000F036
:1043B0004FFD0F2000F008F8FFF7F2FB002318462E
:1043C00080BD00BF003C024080B582B000AF786085
:1043D000124B1A68124B1B7819464FF47A73B3FBD1
:1043E000F1F3B2FBF3F3184600F067FD0346002B30
:1043F00001D001230EE07B680F2B0AD800227968D8
:104400004FF0FF3000F02FFD064A7B681360002359
:1044100000E0012318460837BD4680BD0400002097
:104420000C0000200800002080B400AF064B1B7871
:104430001A46064B1B681344044A136000BFBD466E
:104440005DF8047B704700BF0C000020EC080020E2
:1044500080B400AF034B1B681846BD465DF8047B73
:10446000704700BFEC08002080B584B000AF7860D2
:10447000FFF7EEFFB8607B68FB60FB68B3F1FF3FBE
:1044800005D00A4B1B781A46FB681344FB6000BF3B
:10449000FFF7DEFF0246BB68D31AFA689A42F7D8E4
:1044A00000BF00BF1037BD4680BD00BF0C0000201C
:1044B00080B584B000AF78600023FB737B68002B6D
:1044C00001D1012333E07B681B6C002B09D1786894
:1044D000FFF78EFB7B6800225A647B68002283F81A
:1044E0003C207B681B6C03F01003002B18D17B6809
:1044F0001B6C23F4885323F0020343F002027B6811
:104500001A64786800F0D8FA7B6800225A647B68E5
:104510001B6C23F0030343F001027B681A6401E083
:104520000123FB737B68002283F83C20FB7B184649
:104530001037BD4680BD000080B485B000AF786004
:104540000023BB607B6893F83C30012B01D1022330
:10455000B2E07B68012283F83C207B681B689B6883
:1045600003F00103012B18D07B681B689A687B68F5
:104570001B6842F001029A60524B1B68524AA2FB30
:1045800003239A0C13465B001344BB6002E0BB6834
:10459000013BBB60BB68002BF9D17B681B689B6843
:1045A00003F00103012B7AD17B681B6C23F4E063D9
:1045B00023F0010343F480727B681A647B681B68F4
:1045C0005B6803F48063002B07D07B681B6C23F4CB
:1045D000405343F480527B681A647B681B6C03F47D
:1045E0008053B3F5805F06D17B685B6C23F00602D5
:1045F0007B685A6402E07B6800225A647B68002270
:1046000083F83C20314BFB607B681B686FF0220213
:104610001A60FB685B6803F01F03002B2AD17B68DC
:104620001B682B4A934215D07B681B68294A93422A
:1046300005D1264B5B6803F01F03002B0AD07B6873
:104640001B68254A934236D1204B5B6803F0100368
:10465000002B30D17B681B689B6803F04053002B14
:1046600029D17B681B689A687B681B6842F080428E
:104670009A6020E07B681B68154A93421BD17B68D7
:104680001B689B6803F04053002B14D17B681B68A8
:104690009A687B681B6842F080429A600BE07B68F6
:1046A0001B6C43F010027B681A647B685B6C43F000
:1046B00001027B685A64002318461437BD465DF832
:1046C000047B70470400002083DE1B43002301406D
:1046D00000200140002101400022014080B483B04D
:1046E00000AF78607B6893F83C30012B01D1022346
:1046F00021E07B68012283F83C207B681B689A6874
:104700007B681B6822F001029A607B681B689B68CB
:1047100003F00103002B09D17B681B6C23F4885341
:1047200023F0010343F001027B681A647B680022D6
:1047300083F83C20002318460C37BD465DF8047B07
:10474000704780B584B000AF786039600023FB60AB
:104750007B681B689B6803F48063B3F5806F13D19B
:104760007B681B689B6803F48073B3F5807F0BD173
:104770007B681B6C43F020027B681A647B68002214
:1047800083F83C20012363E0FFF762FEF86021E03C
:104790003B68B3F1FF3F1DD03B68002B07D0FFF70C
:1047A00057FE0246FB68D31A3A689A4212D27B68D7
:1047B0001B681B6803F00203022B0BD07B681B6C89
:1047C00043F004027B681A647B68002283F83C2073
:1047D00003233DE07B681B681B6803F00203022B88
:1047E000D6D17B681B686FF012021A607B681B6C65
:1047F00043F400727B681A647B681B689B6803F053
:104800004053002B23D17B681B7E002B1FD17B687C
:104810001B68DB6A03F47003002B06D07B681B68FF
:104820009B6803F48063002B11D17B681B6C23F41D
:1048300080727B681A647B681B6C03F48053002BC6
:1048400005D17B681B6C43F001027B681A6400236E
:1048500018461037BD4680BD80B483B000AF786085
:104860007B681B68DB6C18460C37BD465DF8047B23
:104870007047000080B485B000AF786039600023D5
:10488000BB607B6893F83C30012B01D1022305E12A
:104890007B68012283F83C203B681B68092B25D9E3
:1048A0007B681B68D9683B681B689BB21A46134635
:1048B0005B0013441E3B072202FA03F3DA437B68D2
:1048C0001B680A40DA607B681B68D9683B689A6895
:1048D0003B681B689BB2184603465B0003441E3BC3
:1048E0009A407B681B680A43DA6022E07B681B6899
:1048F00019693B681B689BB21A4613465B00134458
:10490000072202FA03F3DA437B681B680A401A6144
:104910007B681B6819693B689A683B681B689BB297
:10492000184603465B0003449A407B681B680A43B1
:104930001A613B685B68062B24D87B681B68596B3F
:104940003B685A6813469B001344053B1F2202FA3A
:1049500003F3DA437B681B680A405A637B681B6871
:10496000596B3B681B689BB218463B685A681346F4
:104970009B001344053B00FA03F27B681B680A4363
:104980005A634CE03B685B680C2B24D87B681B683F
:10499000196B3B685A6813469B001344233B1F2244
:1049A00002FA03F3DA437B681B680A401A637B68E8
:1049B0001B68196B3B681B689BB218463B685A68BA
:1049C00013469B001344233B00FA03F27B681B68E9
:1049D0000A431A6323E07B681B68D96A3B685A68FC
:1049E00013469B001344413B1F2202FA03F3DA43B0
:1049F0007B681B680A40DA627B681B68D96A3B687F
:104A00001B689BB218463B685A6813469B001344C8
:104A1000413B00FA03F27B681B680A43DA62224BCF
:104A2000FB607B681B68214A934209D13B681B6885
:104A3000122B05D1FB685B6843F48002FB685A6067
:104A40007B681B68194A934223D13B681B68102B73
:104A500003D03B681B68112B1BD1FB685B6843F4D8
:104A60000002FB685A603B681B68102B11D1104B89
:104A70001B68104AA2FB03239A0C13469B001344A5
:104A80005B00BB6002E0BB68013BBB60BB68002B06
:104A9000F9D17B68002283F83C20002318461437A4
:104AA000BD465DF8047B70470023014000200140B3
:104AB0000400002083DE1B4380B485B000AF786023
:104AC000794BFB60FB685B6823F44032FB685A60FB
:104AD000FB685A687B685B681A43FB685A607B68AE
:104AE0001B685A687B681B6822F480725A607B6876
:104AF0001B6859687B681B691A027B681B680A433C
:104B00005A607B681B685A687B681B6822F0407299
:104B10005A607B681B6859687B689A687B681B6869
:104B20000A435A607B681B689A687B681B6822F49A
:104B300000629A607B681B6899687B68DA687B68AA
:104B40001B680A439A607B689B6A584A934222D04A
:104B50007B681B689A687B681B6822F070629A60A9
:104B60007B681B6899687B689A6A7B681B680A4344
:104B70009A607B681B689A687B681B6822F04052C9
:104B80009A607B681B6899687B68DA6A7B681B6837
:104B90000A439A600FE07B681B689A687B681B6811
:104BA00022F070629A607B681B689A687B681B6859
:104BB00022F040529A607B681B689A687B681B6889
:104BC00022F002029A607B681B6899687B681B7EF2
:104BD0005A007B681B680A439A607B6893F8203010
:104BE000002B1BD07B681B685A687B681B6842F4EB
:104BF00000625A607B681B685A687B681B6822F4F5
:104C000060425A607B681B6859687B685B6A013B3D
:104C10005A037B681B680A435A6007E07B681B687D
:104C20005A687B681B6822F400625A607B681B68C4
:104C3000DA6A7B681B6822F47002DA627B681B68A0
:104C4000D96A7B68DB69013B1A057B681B680A43EC
:104C5000DA627B681B689A687B681B6822F40072C2
:104C60009A607B681B6899687B6893F830305A02B9
:104C70007B681B680A439A607B681B689A687B683C
:104C80001B6822F480629A607B681B6899687B6865
:104C90005B699A027B681B680A439A6000BF1437FD
:104CA000BD465DF8047B7047002301400100000F02
:104CB00080B485B000AF78607B6803F00703FB60C9
:104CC0000C4BDB68BB60BA684FF6FF031340BB6058
:104CD000FB681A02BB68134343F0BF6343F400331D
:104CE000BB60044ABB68D36000BF1437BD465DF8A3
:104CF000047B704700ED00E080B400AF044BDB683C
:104D00001B0A03F007031846BD465DF8047B704795
:104D100000ED00E080B483B000AF0346FB7197F96B
:104D20000730002B0BDBFB7903F01F02074997F9D3
:104D300007305B09012000FA02F241F8232000BF8E
:104D40000C37BD465DF8047B704700BF00E100E012
:104D500080B483B000AF03463960FB7197F9073028
:104D6000002B0ADB3B68DAB20C4997F907301201D5
:104D7000D2B20B4483F800230AE03B68DAB2084958
:104D8000FB7903F00F03043B1201D2B20B441A76F5
:104D900000BF0C37BD465DF8047B704700E100E0C2
:104DA00000ED00E080B489B000AFF860B9607A60CF
:104DB000FB6803F00703FB61FB69C3F10703042BE6
:104DC00028BF0423BB61FB690433062B02D9FB69AE
:104DD000033B00E000237B614FF0FF32BB6902FA26
:104DE00003F3DA43BB681A407B699A404FF0FF3106
:104DF0007B6901FA03F3D9437B680B4013431846E0
:104E00002437BD465DF8047B7047000080B582B052
:104E100000AF78607B68013BB3F1807F01D3012351
:104E20000FE00A4A7B68013B53600F214FF0FF30CF
:104E3000FFF78EFF054B00229A60044B07221A6091
:104E4000002318460837BD4680BD00BF10E000E0D3
:104E500080B582B000AF78607868FFF729FF00BFA7
:104E60000837BD4680BD80B586B000AF0346B96047
:104E70007A60FB7300237B61FFF73EFF78617A68FD
:104E8000B9687869FFF78EFF024697F90F3011462F
:104E90001846FFF75DFF00BF1837BD4680BD80B5DF
:104EA00082B000AF0346FB7197F907301846FFF751
:104EB00031FF00BF0837BD4680BD80B582B000AF6E
:104EC00078607868FFF7A2FF034618460837BD46AA
:104ED00080BD80B584B000AF78607B689B6DFB605F
:104EE000FFF7B6FAB8607B6893F83530DBB2022B77
:104EF00008D07B6880225A657B68002283F83420C2
:104F0000012352E07B681B681A687B681B6822F0EB
:104F100016021A607B681B685A697B681B6822F05E
:104F200080025A617B681B6C002B03D17B689B6CF1
:104F3000002B07D07B681B681A687B681B6822F00F
:104F400008021A607B681B681A687B681B6822F07D
:104F500001021A6013E0FFF77BFA0246BB68D31A1E
:104F6000052B0CD97B6820225A657B68032283F8C5
:104F700035207B68002283F83420032315E07B680A
:104F80001B681B6803F00103002BE4D17B68DB6D19
:104F90003F229A40FB689A607B68012283F83520A3
:104FA0007B68002283F83420002318461037BD4662
:104FB00080BD80B483B000AF78607B6893F83530F3
:104FC000DBB2022B04D07B6880225A6501230CE0FF
:104FD0007B68052283F835207B681B681A687B682C
:104FE0001B6822F001021A60002318460C37BD46E8
:104FF0005DF8047B7047000080B489B000AF786032
:10500000396000237B6100233B610023BB610023E7
:10501000FB616BE10122FB6902FA03F37B613B68F0
:105020001B687A6913403B613A697B699A4240F098
:105030005A813B685B6803F00303012B05D03B6892
:105040005B6803F00303022B30D17B689B68BB6174
:10505000FB695B00032202FA03F3DB43BA691340E6
:10506000BB613B68DA68FB695B0002FA03F3BA696B
:105070001343BB617B68BA699A607B685B68BB61FC
:105080000122FB6902FA03F3DB43BA691340BB61F7
:105090003B685B681B0903F00102FB6902FA03F33A
:1050A000BA691343BB617B68BA695A603B685B6845
:1050B00003F00303032B17D07B68DB68BB61FB693C
:1050C0005B00032202FA03F3DB43BA691340BB61BE
:1050D0003B689A68FB695B0002FA03F3BA69134301
:1050E000BB617B68BA69DA603B685B6803F0030305
:1050F000022B23D1FB69DA087B68083253F822308F
:10510000BB61FB6903F007039B000F2202FA03F364
:10511000DB43BA691340BB613B681A69FB6903F062
:1051200007039B0002FA03F3BA691343BB61FB69EF
:10513000DA087B680832B96943F822107B681B687B
:10514000BB61FB695B00032202FA03F3DB43BA692C
:105150001340BB613B685B6803F00302FB695B00C3
:1051600002FA03F3BA691343BB617B68BA691A6038
:105170003B685B6803F44033002B00F0B4800023ED
:10518000FB60604B5B6C5F4A43F4804353645D4B50
:105190005B6C03F48043FB60FB685B4AFB699B0824
:1051A000023352F82330BB61FB6903F003039B0019
:1051B0000F2202FA03F3DB43BA691340BB617B6839
:1051C000524A93422BD07B68514A934225D07B6848
:1051D000504A93421FD07B684F4A934219D07B6854
:1051E0004E4A934213D07B684D4A93420DD07B6860
:1051F0004C4A934207D07B684B4A934201D1072324
:105200000EE008230CE006230AE0052308E004234F
:1052100006E0032304E0022302E0012300E0002370
:10522000FA6902F0030292009340BA691343BB612A
:105230003549FB699B080233BA6941F823203B4B8F
:105240009B68BB613B69DB43BA691340BB613B6848
:105250005B6803F48013002B03D0BA693B691343E6
:10526000BB61324ABB699360304BDB68BB613B6911
:10527000DB43BA691340BB613B685B6803F400130E
:10528000002B03D0BA693B691343BB61274ABB6952
:10529000D360264B5B68BB613B69DB43BA69134053
:1052A000BB613B685B6803F40033002B03D0BA6931
:1052B0003B691343BB611D4ABB6953601B4B1B68B1
:1052C000BB613B69DB43BA691340BB613B685B6808
:1052D00003F48033002B03D0BA693B691343BB61ED
:1052E000124ABB691360FB690133FB61FB690F2B39
:1052F0007FF690AE00BF00BF2437BD465DF8047B4B
:10530000704700BF003802400038014000000240F2
:105310000004024000080240000C0240001002405D
:105320000014024000180240001C0240003C0140F2
:1053300080B483B000AF78600B467B8013467B70EF
:105340007B78002B03D07A887B689A6103E07B88A6
:105350001A047B689A6100BF0C37BD465DF8047B78
:105360007047000080B584B000AF78607B68002B88
:1053700001D101232BE17B6893F83D30DBB2002B98
:1053800006D17B68002283F83C207868FEF774FC25
:105390007B68242283F83D207B681B681A687B6841
:1053A0001B6822F001021A607B681B681A687B6820
:1053B0001B6842F400421A607B681B681A687B68AD
:1053C0001B6822F400421A6003F060FCF8607B68FE
:1053D0005B68814A934207D8FB68804A934294BF36
:1053E00001230023DBB206E0FB687D4A934294BFB1
:1053F00001230023DBB2002B01D00123E7E0FB688F
:10540000784AA2FB03239B0CBB607B681B685B682C
:1054100023F03F017B681B68BA680A435A607B68C7
:105420001B681B6A23F03F017B685B686A4A9342F2
:1054300002D8BB68013309E0BB684FF4967202FBE7
:1054400003F3694AA2FB03239B0901337A681268BC
:105450000B4313627B681B68DB6923F44F4222F025
:10546000FF027B685B685C498B4219D8FB68591E58
:105470007B685B685B00B1FBF3F3591C40F6FC737F
:105480000B40002B0AD0FB68591E7B685B685B00F1
:10549000B1FBF3F30133C3F30B0351E004234FE0FB
:1054A0007B689B68002B11D1FB68581E7B6859688C
:1054B0000B465B000B44B0FBF3F30133C3F30B0368
:1054C000002B0CBF01230023DBB212E0FB68581E47
:1054D0007B6859680B469B000B4499000B44B0FB5A
:1054E000F3F30133C3F30B03002B0CBF01230023A1
:1054F000DBB2002B01D0012322E07B689B68002BEC
:105500000ED1FB68581E7B6859680B465B000B4444
:10551000B0FBF3F30133C3F30B0343F400430FE099
:10552000FB68581E7B6859680B469B000B4499002A
:105530000B44B0FBF3F30133C3F30B0343F44043D9
:10554000796809681343CB617B681B681B6823F08B
:10555000C0017B68DA697B681B6A1A437B681B6839
:105560000A431A607B681B689B6823F4034323F09B
:10557000FF037A6811697A68D26811437A68126801
:105580000B4393607B681B68DB6823F0FF017B683B
:105590005A697B689B691A437B681B680A43DA6017
:1055A0007B681B681A687B681B6842F001021A60FE
:1055B0007B6800221A647B68202283F83D207B6888
:1055C00000221A637B68002283F83E2000231846DD
:1055D0001037BD4680BD00BFA08601007F841E003D
:1055E000FF083D0083DE1B43D34D621080B588B0B9
:1055F00002AFF8607A601A460B467B8113463B8106
:10560000FEF726FF7861FB6893F83D30DBB2202B74
:1056100040F0E0807B690093192301227049F8680B
:1056200001F03CFA0346002B01D00223D3E0FB68D3
:1056300093F83C30012B01D10223CCE0FB6801221E
:1056400083F83C20FB681B681B6803F00103012BF7
:1056500007D0FB681B681A68FB681B6842F00102F0
:105660001A60FB681B681A68FB681B6822F40062FA
:105670001A60FB68212283F83D20FB68102283F822
:105680003E20FB6800221A64FB687A685A62FB6855
:105690003A895A85FB685B8D9AB2FB681A85FB686C
:1056A000504ADA6279897B693A6AF86800F028FF23
:1056B0000346002B01D001238DE000233B61FB68F2
:1056C0001B685B693B61FB681B689B693B613B69CD
:1056D00066E07A69396AF86801F0FAFA0346002B45
:1056E0000DD0FB681B6C042B07D1FB681B681A6884
:1056F000FB681B6842F400721A6001236BE0FB68D0
:105700005B6A1A78FB681B681A61FB685B6A5A1C43
:10571000FB685A62FB685B8D9BB2013B9AB2FB68E7
:105720005A85FB681B8D013B9AB2FB681A85FB68A2
:105730001B685B6903F00403042B1BD1FB681B8D02
:10574000002B17D0FB685B6A1A78FB681B681A612C
:10575000FB685B6A5A1CFB685A62FB685B8D9BB2F4
:10576000013B9AB2FB685A85FB681B8D013B9AB2DC
:10577000FB681A857A69396AF86801F0F1FA03461C
:10578000002B0DD0FB681B6C042B07D1FB681B683A
:105790001A68FB681B6842F400721A6001231AE061
:1057A000FB681B8D002B94D1FB681B681A68FB6893
:1057B0001B6842F400721A60FB68202283F83D20C7
:1057C000FB68002283F83E20FB68002283F83C201F
:1057D000002300E0022318461837BD4680BD00BFF5
:1057E000020010000000FFFF80B58CB002AFF8602F
:1057F0007A601A460B467B8113463B81FEF728FEF2
:105800007862FB6893F83D30DBB2202B40F01782C2
:105810007B6A0093192301227C49F86801F03EF964
:105820000346002B01D002230AE2FB6893F83C30C8
:10583000012B01D1022303E2FB68012283F83C2003
:10584000FB681B681B6803F00103012B07D0FB6892
:105850001B681A68FB681B6842F001021A60FB684B
:105860001B681A68FB681B6822F400621A60FB68F8
:10587000222283F83D20FB68102283F83E20FB683B
:1058800000221A64FB687A685A62FB683A895A8572
:10589000FB685B8D9AB2FB681A85FB685C4ADA622A
:1058A00079897B6A3A6BF86800F0ACFE0346002BFE
:1058B00001D00123C4E1FB681B8D002B13D1002311
:1058C0003B62FB681B685B693B62FB681B689B690A
:1058D0003B623B6AFB681B681A68FB681B6842F402
:1058E00000721A6098E1FB681B8D012B1BD1FB68CD
:1058F0001B681A68FB681B6822F480621A60002328
:10590000FB61FB681B685B69FB61FB681B689B694B
:10591000FB61FB69FB681B681A68FB681B6842F443
:1059200000721A6078E1FB681B8D022B1BD1FB68AB
:105930001B681A68FB681B6822F480621A60FB68A7
:105940001B681A68FB681B6842F400621A60002337
:10595000BB61FB681B685B69BB61FB681B689B697B
:10596000BB61BB6958E1FB681B681A68FB681B6870
:1059700042F480621A6000237B61FB681B685B69EC
:105980007B61FB681B689B697B617B6944E1FB6809
:105990001B8D032B00F2F180FB681B8D012B23D1A3
:1059A0007A6A396BF86801F023FA0346002B01D0BC
:1059B000012345E1FB681B681A69FB685B6AD2B288
:1059C0001A70FB685B6A5A1CFB685A62FB681B8D85
:1059D000013B9AB2FB681A85FB685B8D9BB2013B69
:1059E0009AB2FB685A8517E1FB681B8D022B4ED1DA
:1059F0007B6A00933B6B00220649F86801F04EF881
:105A00000346002B08D001231AE100BF020010005A
:105A10000000FFFF04000100FB681B681A68FB68B8
:105A20001B6842F400721A60FB681B681A69FB6805
:105A30005B6AD2B21A70FB685B6A5A1CFB685A62D6
:105A4000FB681B8D013B9AB2FB681A85FB685B8D76
:105A50009BB2013B9AB2FB685A85FB681B681A69C6
:105A6000FB685B6AD2B21A70FB685B6A5A1CFB68FF
:105A70005A62FB681B8D013B9AB2FB681A85FB6872
:105A80005B8D9BB2013B9AB2FB685A85C4E07B6A8E
:105A900000933B6B00226C49F86800F0FFFF03465F
:105AA000002B01D00123CBE0FB681B681A68FB6860
:105AB0001B6822F480621A60FB681B681A69FB6825
:105AC0005B6AD2B21A70FB685B6A5A1CFB685A6246
:105AD000FB681B8D013B9AB2FB681A85FB685B8DE6
