:020000040800F2
:10000000000002209D410008513F0008593F0008B0
:10001000613F0008693F0008713F000800000000D0
:10002000000000000000000000000000793F000810
:10003000873F000800000000953F0008A33F00082C
:10004000ED410008ED410008ED410008ED410008D8
:10005000ED410008ED410008ED410008ED410008C8
:10006000ED410008ED410008ED410008ED410008B8
:10007000ED410008ED410008ED410008ED410008A8
:10008000ED410008ED410008ED410008ED41000898
:10009000ED410008ED410008ED410008ED41000888
:1000A000ED410008ED410008ED410008ED41000878
:1000B000ED410008ED410008ED410008ED41000868
:1000C000ED410008ED410008ED410008ED41000858
:1000D000ED410008ED410008B13F0008C53F0008B0
:1000E000ED410008ED410008ED410008ED41000838
:1000F000ED410008ED410008ED410008ED41000828
:10010000ED410008ED410008ED410008ED41000817
:10011000ED410008ED410008ED410008ED41000807
:10012000ED410008ED410008ED410008ED410008F7
:10013000ED410008ED410008ED410008ED410008E7
:10014000ED410008ED410008ED410008D93F0008ED
:10015000ED410008ED410008ED410008ED410008C7
:10016000ED410008ED410008ED410008ED410008B7
:10017000ED410008ED410008ED41000800000000DD
:08018000ED410008ED4100080B
:1001900010B5054C237833B9044B13B10448AFF3C1
:1001A00000800123237010BDC80200200000000061
:1001B0009C46010808B5034B1BB103490348AFF344
:1001C000008008BD00000000CC0200209C46010811
:1001D00010F8012B11F8013B012A28BF9A42F7D0F1
:1001E000D01A7047034613F8012B002AFBD1181AC6
:1001F000013870470000000000000000000000000F
:1002000001F0FF01102A2BDB10F0070F08D010F8C7
:10021000013B013A8B422DD010F0070F42B3F6D1CB
:10022000F0B441EA012141EA014122F007047FF0E4
:1002300000070023F0E80256083C85EA010586EA3B
:10024000010685FA47F5A3FA87F586FA47F6A5FA77
:1002500087F68EB9EED1F0BC01F0FF0102F0070283
:1002600032B110F8013B013A83EA010313B1F8D12E
:100270000020704701387047002D06BF354603380F
:10028000073815F0010F07D1013015F4807F02BF48
:10029000013015F4C03F0130F0BC0138704700BF99
:1002A00081F0004102E000BF83F0004330B54FEA27
:1002B00041044FEA430594EA050F08BF90EA020F94
:1002C0001FBF54EA000C55EA020C7FEA645C7FEA27
:1002D000655C00F0E2804FEA5454D4EB5555B8BF4A
:1002E0006D420CDD2C4480EA020281EA030382EABB
:1002F000000083EA010180EA020281EA0303362D4D
:1003000088BF30BD11F0004F4FEA01314FF4801C1F
:100310004CEA113102D0404261EB410113F0004F31
:100320004FEA03334CEA133302D0524263EB4303E8
:1003300094EA050F00F0A780A4F10104D5F1200E86
:100340000DDB02FA0EFC22FA05F2801841F10001E1
:1003500003FA0EF2801843FA05F359410EE0A5F1B5
:1003600020050EF1200E012A03FA0EFC28BF4CF0E6
:10037000020C43FA05F3C01851EBE37101F000459C
:1003800007D54FF0000EDCF1000C7EEB00006EEBA9
:100390000101B1F5801F1BD3B1F5001F0CD3490833
:1003A0005FEA30004FEA3C0C04F101044FEA44528A
:1003B00012F5800F80F09A80BCF1004F08BF5FEA11
:1003C000500C50F1000041EB045141EA050130BDF1
:1003D0005FEA4C0C404141EB0101013C28BFB1F503
:1003E000801FE9D291F0000F04BF01460020B1FA4E
:1003F00081F308BF2033A3F10B03B3F120020CDA21
:100400000C3208DD02F1140CC2F10C0201FA0CF0FE
:1004100021FA02F10CE002F11402D8BFC2F1200C63
:1004200001FA02F120FA0CFCDCBF41EA0C01904019
:10043000E41AA2BF01EB0451294330BD6FEA040462
:100440001F3C1CDA0C340EDC04F11404C4F120024D
:1004500020FA04F001FA02F340EA030021FA04F35F
:1004600045EA030130BDC4F10C04C4F1200220FAB6
:1004700002F001FA04F340EA0300294630BD21FAF4
:1004800004F0294630BD94F0000F83F4801306BFBA
:1004900081F480110134013D4EE77FEA645C18BFAE
:1004A0007FEA655C29D094EA050F08BF90EA020F45
:1004B00005D054EA000C04BF1946104630BD91EA3D
:1004C000030F1EBF0021002030BD5FEA545C05D140
:1004D0004000494128BF41F0004130BD14F580047F
:1004E0003CBF01F5801130BD01F0004545F0FE41F3
:1004F00041F470014FF0000030BD7FEA645C1ABF28
:10050000194610467FEA655C1CBF0B46024650EA5E
:10051000013406BF52EA033591EA030F41F400218A
:1005200030BD00BF90F0000F04BF0021704730B510
:100530004FF4806404F132044FF000054FF00001E5
:1005400050E700BF90F0000F04BF0021704730B5A6
:100550004FF4806404F1320410F0004548BF40427B
:100560004FF000013EE700BF42004FEAE2014FEAD0
:1005700031014FEA02701FBF12F07F4393F07F4FAB
:1005800081F06051704732F07F4208BF704793F0AE
:100590007F4F04BF41F40021704730B54FF46074C1
:1005A00001F0004521F000411CE700BF50EA0102C4
:1005B00008BF704730B54FF000050AE050EA01026D
:1005C00008BF704730B511F0004502D5404261EBDD
:1005D00041014FF4806404F132045FEA915C3FF41E
:1005E000D8AE4FF003025FEADC0C18BF03325FEABB
:1005F000DC0C18BF033202EBDC02C2F1200300FA6C
:1006000003FC20FA02F001FA03FE40EA0E0021FA90
:1006100002F11444BDE600BF70B54FF0FF0C4CF47E
:10062000E06C1CEA11541DBF1CEA135594EA0C0F30
:1006300095EA0C0F00F0DEF82C4481EA030621EA6B
:100640004C5123EA4C5350EA013518BF52EA0335A6
:1006500041F4801143F4801338D0A0FB02CE4FF058
:100660000005E1FB02E506F00042E0FB03E54FF088
:100670000006E1FB03569CF0000F18BF4EF0010E80
:10068000A4F1FF04B6F5007F64F5407404D25FEA7C
:100690004E0E6D4146EB060642EAC62141EA55512F
:1006A0004FEAC52040EA5E504FEACE2EB4F1FD0C71
:1006B00088BFBCF5E06F1ED8BEF1004F08BF5FEAEF
:1006C000500E50F1000041EB045170BD06F00046A1
:1006D00046EA010140EA020081EA0301B4EB5C044E
:1006E000C2BFD4EB0C0541EA045170BD41F4801146
:1006F0004FF0000E013C00F3AB8014F1360FDEBF6B
:10070000002001F0004170BDC4F10004203C35DA46
:100710000C341BDC04F11404C4F1200500FA05F3C9
:1007200020FA04F001FA05F240EA020001F000426A
:1007300021F0004110EBD37021FA04F642EB0601E0
:100740005EEA430E08BF20EAD37070BDC4F10C040A
:10075000C4F1200500FA04F320FA05F001FA04F2CE
:1007600040EA020001F0004110EBD37041F10001BA
:100770005EEA430E08BF20EAD37070BDC4F12005C5
:1007800000FA05F24EEA020E20FA04F301FA05F22D
:1007900043EA020321FA04F001F0004121FA04F2D5
:1007A00020EA020000EBD3705EEA430E08BF20EAA5
:1007B000D37070BD94F0000F0FD101F000464000DF
:1007C00041EB010111F4801F08BF013CF7D041EA61
:1007D000060195F0000F18BF704703F00046520065
:1007E00043EB030313F4801F08BF013DF7D043EA36
:1007F0000603704794EA0C0F0CEA135518BF95EAEC
:100800000C0F0CD050EA410618BF52EA4306D1D172
:1008100081EA030101F000414FF0000070BD50EA91
:10082000410606BF1046194652EA430619D094EA1B
:100830000C0F02D150EA013613D195EA0C0F05D105
:1008400052EA03361CBF104619460AD181EA030159
:1008500001F0004141F0FE4141F470014FF0000011
:1008600070BD41F0FE4141F4780170BD70B54FF0AC
:10087000FF0C4CF4E06C1CEA11541DBF1CEA13552C
:1008800094EA0C0F95EA0C0F00F0A7F8A4EB05040E
:1008900081EA030E52EA03354FEA013100F0888005
:1008A0004FEA03334FF0805545EA131343EA1263CE
:1008B0004FEA022245EA111545EA10654FEA002683
:1008C0000EF000419D4208BF964244F1FD0404F53C
:1008D000407402D25B084FEA3202B61A65EB030598
:1008E0005B084FEA32024FF480104FF4002CB6EB55
:1008F000020E75EB030E22BFB61A754640EA0C00D5
:100900005B084FEA3202B6EB020E75EB030E22BF14
:10091000B61A754640EA5C005B084FEA3202B6EB55
:10092000020E75EB030E22BFB61A754640EA9C0014
:100930005B084FEA3202B6EB020E75EB030E22BFE4
:10094000B61A754640EADC0055EA060E18D04FEAA2
:10095000051545EA16754FEA06164FEAC30343EA42
:1009600052734FEAC2025FEA1C1CC0D111F4801F0F
:100970000BD141EA00014FF000004FF0004CB6E708
:1009800011F4801F04BF01430020B4F1FD0C88BFA7
:10099000BCF5E06F3FF6AFAEB5EB030C04BFB6EBB2
:1009A000020C5FEA500C50F1000041EB045170BDA5
:1009B0000EF0004E4EEA113114EB5C04C2BFD4EBD2
:1009C0000C0541EA045170BD41F480114FF0000E56
:1009D000013C90E645EA060E8DE60CEA135594EAD2
:1009E0000C0F08BF95EA0C0F3FF43BAF94EA0C0FD5
:1009F0000AD150EA01347FF434AF95EA0C0F7FF44A
:100A000025AF104619462CE795EA0C0F06D152EA9D
:100A100003353FF4FDAE1046194622E750EA410681
:100A200018BF52EA43067FF4C5AE50EA41047FF492
:100A30000DAF52EA43057FF4EBAE12E74FF0FF3CF7
:100A400006E000BF4FF0010C02E000BF4FF0010CC8
:100A50004DF804CD4FEA410C7FEA6C5C4FEA430C41
:100A600018BF7FEA6C5C1BD001B050EA410C0CBF90
:100A700052EA430C91EA030F02BF90EA020F0020F2
:100A8000704710F1000F91EA030F58BF994208BF59
:100A900090422CBFD8176FEAE37040F00100704716
:100AA0004FEA410C7FEA6C5C02D150EA013C07D16D
:100AB0004FEA430C7FEA6C5CD6D152EA033CD3D0B8
:100AC0005DF8040B704700BF8446104662468C46B2
:100AD0001946634600E000BF01B5FFF7B7FF0028E5
:100AE00048BF10F1000F01BD4DF808EDFFF7F4FF0E
:100AF0000CBF012000205DF808FB00BF4DF808ED99
:100B0000FFF7EAFF34BF012000205DF808FB00BFBB
:100B10004DF808EDFFF7E0FF94BF012000205DF8DD
:100B200008FB00BF4DF808EDFFF7CEFF94BF012092
:100B300000205DF808FB00BF4DF808EDFFF7C4FF8B
:100B400034BF012000205DF808FB00BF4A0011D22D
:100B500012F5001211D20DD56FF47873B3EB625217
:100B60000ED44FEAC12343F0004343EA505323FA23
:100B700002F070474FF00000704750EA013002D198
:100B80004FF0FF3070474FF0000070474FEA4102CE
:100B9000B2F1E04324BFB3F5001CDCF1FE5C0DD9DB
:100BA00001F0004C4FEAC0024CEA5070B2F1004F25
:100BB00040EB830008BF20F00100704711F0804F28
:100BC00021D113F13872BCBF01F00040704741F4ED
:100BD00080114FEA5252C2F11802C2F1200C10FAF1
:100BE0000CF320FA02F018BF40F001004FEAC123D5
:100BF0004FEAD32303FA0CFC40EA0C0023FA02F379
:100C00004FEA4303CCE77FEA625307D150EA01334E
:100C10001EBF4FF0FE4040F44000704701F000401E
:100C200040F0FE4040F40000704700BF53B94AB99D
:100C3000002908BF00281CBF4FF0FF314FF0FF30E4
:100C400000F0BEB9ADF1080C6DE904CE00F03CF83F
:100C5000DDF804E0DDE9022304B0704738B5002276
:100C6000002304460D46FFF749FF28B920462946D0
:100C7000BDE8384000F00AB8204605F1004100F018
:100C800005F8404261EB410138BD00BFD0B50C4BC7
:100C9000002206460F46FFF7BFFCFFF757FF04464A
:100CA000FFF740FC074B0022FFF7B6FC02460B465D
:100CB00030463946FFF7F8FAFFF748FF2146D0BD26
:100CC0000000F03D0000F0412DE9F047089D8E4600
:100CD00004468846002B4AD18A42174662D9B2FAA6
:100CE00082F64EB1C6F1200301FA06F820FA03F3AA
:100CF000B74043EA0808B4404FEA174E1FFA87FC92
:100D0000B8FBFEF1230C0EFB118843EA084301FBFC
:100D10000CF29A4209D9FB1801F1FF3080F0EA8009
:100D20009A4240F2E78002393B449A1AA3B2B2FBDE
:100D3000FEF00EFB102243EA024300FB0CFC9C4534
:100D400009D9FB1800F1FF3280F0D6809C4540F2B3
:100D5000D3803B44023840EA0140A3EB0C0300215E
:100D60001DB1F3400022C5E90032BDE8F0878B4297
:100D700005D90DB1C5E9000100210846F5E7B3FA30
:100D800083F1002946D1734502D3824200F20581E6
:100D9000841A6EEB030201209046002DE5D0C5E9D0
:100DA0000048E2E7002A00F09080B2FA82F6002EB6
:100DB00040F0A4808A1A030C4FEA174E80B2BCB2EE
:100DC0000121B2FBFEFC0EFB1C2243EA024304FBA2
:100DD0000CF29A4207D9FB180CF1FF3802D29A4262
:100DE00000F2E080C4469B1AB3FBFEF20EFB123306
:100DF00040EA034302FB04F49C4207D9FB1802F1CA
:100E0000FF3002D29C4200F2CA8002461B1B42EA1B
:100E10000C40A5E7C1F120068B4022FA06F71F43DC
:100E20000EFA01F420FA06F32EFA06FE4FEA1749ED
:100E3000234300FA01F81FFA87FCBEFBF9F01C0CF3
:100E400009FB10EE44EA0E4400FB0CFEA64502FA34
:100E500001F209D93C1900F1FF3A80F09C80A645C7
:100E600040F2998002383C44A4EB0E041FFA83FE42
:100E7000B4FBF9F309FB13444EEA044403FB0CFCF6
:100E8000A44508D93C1903F1FF3E80F08280A445B7
:100E90007FD9023B3C4443EA0040A4EB0C04A0FB96
:100EA00002EC64457346E14662D35FD05DB1B8EBB6
:100EB000030264EB090404FA06F622FA01F31E4366
:100EC000CC40C5E9006400214FE7B1FBF2FC010C06
:100ED00041EA0E4180B240EA01423B4638463C4678
:100EE000B846BE462026B1FBF7F1A2EB080241EA64
:100EF0000C4166E7014618E710462CE7C6F12002D0
:100F00002EFA02F3B740B14020FA02F24FEA174E30
:100F10000A43B3FBFEF8BCB20EFB1833110C41EAD6
:100F2000034108FB04F9B04089454FEA104380B201
:100F30003ED9791808F1FF3C01D289451FD8A1EBB1
:100F40000901B1FBFEF909FB04F80EFB191192B27D
:100F500042EA0142424529D2BA1809F1FF31C4D20E
:100F60004245C2D2A9F102013A44BEE7F0459DD202
:100F7000BEEB02036CEB070C0138E14696E7A7EBEA
:100F800009094944A8F1020CB1FBFEF909FB04F878
:100F9000DBE773467FE7504666E70846FDE63B44DD
:100FA000023A33E7ACF1020C3B441CE749469CE7AC
:100FB000A1EB0901C446B1FBFEF909FB04F8C4E743
:100FC000704700BF80B582B000AF78607B680322B5
:100FD0001A777B68184600F0F6FC00BF0837BD465C
:100FE00080BD80B584B000AF78607B68002B01D1F4
:100FF000002317E0786803F0D5F90521786803F03D
:10100000D6FA0346002B04D0786803F09DFA00233B
:1010100008E0786803F056FB0346FB81786803F02C
:1010200093FAFB8918461037BD4680BD80B582B063
:1010300000AF786039607B68184600F0B1FC7B68CF
:1010400000221A777B683A685A627B68DB8B002B38
:1010500010D17B681B8B07EE903AF8EEE77A9FED94
:101060000F7A67EE877AFCEEE77A17EE903A9AB23B
:101070007B68DA837B681B6A002B03D17B6842F6AE
:10108000E0621A627B685B8E002B02D17B680A22C9
:101090005A8600BF0837BD4680BD00BF9A99193FE8
:1010A00080B582B000AF786039607B6801221A7722
:1010B0007B683A685A6278687B68DB8B1A46012144
:1010C00000F09DFC00BF0837BD4680BD80B582B0F2
:1010D00000AF786039607B6802221A777B683A68D3
:1010E0005A6278687B68DB8B1A46022100F087FC25
:1010F00000BF0837BD4680BD80B582B000AF7860C4
:101100007B6800221A777B68184600F05CFC00BF01
:101110000837BD4680BD80B584B000AF78603960C7
:101120007B681B7F002B49D07B681B7F032B45D03E
:101130007B685B6A3A68D21A7B681B6A9A4203D959
:101140007868FFF73FFF3AE07B6893F82830002B80
:1011500035D07B68DB6A1846FFF743FF0346FB8107
:10116000FB89002B03D17868FFF72CFF27E0FB8970
:101170007A68528E13447A68128E934208DA7B683A
:101180001B7F012B1BD039687868FFF789FF16E0B9
:10119000FA897B681B8E19467B685B8E0B449A42EA
:1011A00008DD7B681B7F022B09D039687868FFF760
:1011B0008DFF04E07868FFF79FFF00E000BF103765
:1011C000BD4680BD80B400AF024B1846BD465DF8F9
:1011D000047B7047E402002080B5DAB00EAF924B7A
:1011E000D3ED007AFDEEE77A17EE903AC7F81431A6
:1011F0008D4B93ED007AD7F8143107EE903AF8EE64
:10120000E77A77EE677A9FED897A67EE877AFDEE67
:10121000E77A17EE903AC7F82C31D7F82C31002B2B
:1012200004DAD7F82C315B42C7F82C317E4BD3ED72
:10123000017AFDEEE77A17EE903AC7F810317A4B53
:1012400093ED017AD7F8103107EE903AF8EEE77A8D
:1012500077EE677A9FED757A67EE877AFDEEE77A2B
:1012600017EE903AC7F82831D7F82831002B04DA66
:10127000D7F828315B42C7F828316B4BD3ED027A9F
:10128000FDEEE77A17EE903AC7F80C31664B93ED16
:10129000027AD7F80C3107EE903AF8EEE77A77EE5B
:1012A000677A9FED627A67EE877AFDEEE77A17EE4E
:1012B000903AC7F82431D7F82431002B04DAD7F854
:1012C00024315B42C7F82431594BD3ED007AFDEE4F
:1012D000E77A17EE903AC7F80831554B93ED007A4C
:1012E000D7F8083107EE903AF8EEE77A77EE677AAA
:1012F0009FED4E7A67EE877AFDEEE77A17EE903A29
:10130000C7F82031D7F82031002B04DAD7F8203184
:101310005B42C7F82031474BD3ED007AFDEEE77A08
:1013200017EE903AC7F80431424B93ED007AD7F8A4
:10133000043107EE903AF8EEE77A77EE677A9FEDA0
:101340003B7A67EE877AFDEEE77A17EE903AC7F8B8
:101350001C31D7F81C31002B04DAD7F81C315B4262
:10136000C7F81C31344BD3ED007AFDEEE77A17EE67
:10137000903AC7F80031304B93ED007AD7F800313E
:1013800007EE903AF8EEE77A77EE677A9FED277AE4
:1013900067EE877AFDEEE77A17EE903AC7F81831D4
:1013A000D7F81831002B04DAD7F818315B42C7F8A8
:1013B00018311D4BDB681C4A12691B49097D3846F0
:1013C0000D910C920B93D7F818310A93D7F800318E
:1013D0000993D7F81C310893D7F804310793D7F84D
:1013E00020310693D7F808310593D7F824310493B8
:1013F000D7F80C310393D7F828310293D7F810317E
:101400000193D7F82C310093D7F814310B4A4FF4DD
:10141000807110F083FE3B46184602F035F900BF9C
:1014200007F59877BD4680BDE40200200000C84261
:10143000C4060020C0060020BC060020B8460108F3
:1014400080B582B000AF18220021424810F0DFFEC4
:10145000404B0022DA603F4B00221A7502F02EFF4B
:1014600078603D4B3D4A1A603B4B01229A803A4BD3
:101470003A4A9A60384B02229A81374B384A1A61AD
:10148000354B00225A61344B4FF47A721A83324B37
:101490004FF41672DA83304B42F6E0621A622E4B3A
:1014A000002283F828202C4B0022DA6279682A482F
:1014B000FFF7BCFD2B4B2C4A1A602A4B4FF40072ED
:1014C0009A80284B284A9A60264B4FF400629A81F2
:1014D000244B234A1A61234B04225A61214B4FF4B7
:1014E0007A721A831F4B4FF4FA72DA831D4B4FF452
:1014F000FA521A621B4B002283F82820194B002253
:10150000DA6279681748FFF791FD184800F0F8F99A
:10151000174800F0D1F91749174800F0B3FA03460D
:101520001A46164B1A70154B1B78002B03D0144823
:1015300002F0AAF802E0134802F0A6F8796812480F
:1015400000F0DAF8114802F09FF800BF0837BD46F6
:1015500080BD00BFE4020020FC0200200004024025
:1015600064050020300300200010024064030020C6
:10157000700300206C04002094030020C4030020AA
:1015800010470108484701088C0300206447010800
:10159000B0B596B004AF02F091FE7864374B1B688B
:1015A0007A6CD31A132B10D9344A7B6C1360796C84
:1015B0003348FFF7B0FD796C3248FFF7ACFD314B93
:1015C0002F4A796C304800F0ABF8304B1B687A6CCE
:1015D000D31AB3F57A7F4CD32C4A7B6C13602C481A
:1015E00002F070F82B4B1B78002B28D02A4800F013
:1015F000B5FA294B9B6A264A5360274B9B6A1846CB
:10160000FEF7B2FF04460D46234BDB6A1846FEF791
:10161000ABFF02460B46381DCDE90223CDE900455C
:101620001E4A402110F07AFD3B1D1846FEF7DAFDF8
:1016300003469AB2391D3223194809F065FE0FF0AE
:101640005DFE0146174B83FB0132CB17D21A1346BE
:101650005B001344CA1A0E4BDA600FF04FFE0346CC
:10166000002B03F00103B8BF5B42094A1361FFF787
:10167000B3FD00BF4837BD46B0BD00BFC803002062
:10168000FC020020300300208C030020CC0300204B
:10169000E4020020C40300209403002088470108CE
:1016A0003C0600205655555580B58EB000AF786089
:1016B00039607B681B7801335A4203F0070302F05C
:1016C000070258BF5342DAB27B681A707B683A68E7
:1016D0005A607B681B7807F10800064A302110F039
:1016E0001DFD07F10803184601F0CEFF00BF383793
:1016F000BD4680BD9847010880B582B000AF7860D4
:1017000039607B6800221A707B683A685A60034827
:1017100001F0BAFF00BF0837BD4680BDAC470108E5
:1017200080B586B000AFF860B9607A603B60FB6856
:101730005B68BA68D31A7B61FB681B78072B00F2E1
:10174000AD8001A252F823F069170008991700082C
:10175000AB170008DB170008ED1700081B1800087E
:101760002D1800085B1800087B681B7F002B06D132
:101770004C4801F089FFB9687868FFF791FC7B69F4
:1017800042F6DF6293427AD97868FFF7B5FCB96810
:10179000F868FFF789FF72E07B69B3F57A7F70D351
:1017A000B968F868FFF780FF6BE07B681B7F002B50
:1017B00006D13D4801F068FFB9687868FFF786FCFC
:1017C0007B6942F6DF6293425DD97868FFF794FC4B
:1017D000B968F868FFF768FF55E07B69B3F57A7F71
:1017E00053D3B968F868FFF75FFF4EE03B681B7F93
:1017F000002B06D12D4801F047FFB9683868FFF784
:101800004FFC7B69B3F5FA6F41D33868FFF774FC7E
:10181000B968F868FFF748FF39E07B69B3F57A7F6C
:1018200037D3B968F868FFF73FFF32E03B681B7FAA
:10183000002B06D11E4801F027FFB9683868FFF772
:1018400045FC7B69B3F5FA6F25D33868FFF754FC84
:10185000B968F868FFF728FF1DE07B69B3F57A7F68
:101860001BD3144801F010FF7868FFF745FC386877
:10187000FFF742FCB968F868FFF716FF0DE000BFFC
:101880000CE000BF0AE000BF08E000BF06E000BFB8
:1018900004E000BF02E000BF00E000BF00BF183757
:1018A000BD4680BDCC470108E4470108FC4701085C
:1018B000144801082C48010880B483B000AF786058
:1018C0007B6800221A707B6800225A607B684FF0A8
:1018D0007E529A607B68094ADA607B684FF47A62CC
:1018E0001A617B684FF47A625A617B6800221A762B
:1018F00000BF0C37BD465DF8047B704700002041F7
:1019000080B483B000AF78607B6800221A707B6877
:1019100000225A707B6800229A707B6800225A600D
:101920007B6800221A7200BF0C37BD465DF8047B4D
:10193000704780B483B000AF78600B467B807B68D3
:101940001B8B7A889A4202D97B681B8B7B807B68D1
:101950005B69002B05D17B681B691B687A885A6319
:1019600018E07B685B69042B05D17B681B691A68EA
:101970007B8893630EE07B685B69082B05D17B68ED
:101980001B691A687B88D36304E07B681B691A684B
:101990007B88136400BF0C37BD465DF8047B70473D
:1019A00080B582B000AF78607B681A697B685B693C
:1019B0001946104608F022FE786800F004F800BFCF
:1019C0000837BD4680BD80B582B000AF7860002189
:1019D0007868FFF7AEFF7B6818687B689B880022F9
:1019E000194603F0DBFB7B6898687B689B890022C3
:1019F000194603F0D3FB00BF0837BD4680BD80B554
:101A000082B000AF78600B46FB7013463B80FB78DA
:101A1000012B02D0022B16D02BE07B6818687B6864
:101A20009B880022194603F0B9FB7B6898687B68A5
:101A30009B890122194603F0B1FB3B88194678685F
:101A4000FFF777FF19E07B6818687B689B880122A5
:101A5000194603F0A3FB7B6898687B689B8900228A
:101A6000194603F09BFB3B8819467868FFF761FF36
:101A700003E07868FFF7A7FF00BF00BF0837BD4647
:101A800080BD000080B586B002AF786039607B68A9
:101A90003A681A607B68304A5A621E23BB7307F1AA
:101AA0000E02642300930123EC21386803F0D4FC78
:101AB0000346002B01D0002349E00A2002F00AFC73
:101AC0000023FB7333E0FB7B5033DBB25B00DBB204
:101AD000BB7307F10E02642300930123EC213868E5
:101AE00003F0BAFC0346002B01D000232FE007F1DE
:101AF0000C02642300930223EC21386803F0AAFD52
:101B00000346002B01D0002321E03B7B1BB21B02CC
:101B10001AB27B7B1BB213431AB2FB7B91B27A6879
:101B20005B0013440A469A80FB7B0133FB73FB7B0B
:101B3000062BC8D97B68DB88002B05D07B68DB8847
:101B40004FF6FF72934201D1002300E001231846B3
:101B50001037BD4680BD00BF002080442DE9B04F46
:101B6000D2B002AFC7F804014A2387F80B31D7F887
:101B70000431186807F20B12642300930123EC214F
:101B800003F06AFC142002F0A5FB002387F80B3158
:101B9000D7F80431186807F20B126423009301236D
:101BA000EC2103F059FCD7F80431186807F584726A
:101BB000642300930323EC2103F04CFD97F80831D4
:101BC0001A0497F809311B021A4397F80A31134394
:101BD0001A46D7F804315A615A2387F80B31D7F8DF
:101BE0000431186807F20B12642300930123EC21DF
:101BF00003F032FC142002F06DFB002387F80B3158
:101C0000D7F80431186807F20B12642300930123FC
:101C1000EC2103F021FCD7F80431186807F5847231
:101C2000642300930323EC2103F014FD97F808319B
:101C30001A0497F809311B021A4397F80A31134323
:101C40001A46D7F804319A61D7F804319B691A46CD
:101C5000D7F80431DB891B02D31AC7F83031D7F823
:101C60003031DA17C7F8C830C7F8CC20D7F80431BC
:101C70001B8A9BB200221C461546D7E932010B464F
:101C800004FB03F2034603FB05F313440246A2FBE5
:101C900004AB5B449B4652465B46002B07DAC349C4
:101CA0005118B96543F10003FB65D7E916234FF0DE
:101CB00000004FF00001D00D40EA4320D915024644
:101CC0000B46134603F5FA631A46D7F80431DA6176
:101CD000D7F80431DB889BB20022C7F8C030C7F8C0
:101CE000C4204FF000044FF00005D7E9301213462E
:101CF000DD030B4645EA53450B46DC03D7F80431B8
:101D00005B899BB20022C7F8B830C7F8BC20D7F86F
:101D10003031DA17C7F8F830C7F8FC20D7E92E01C0
:101D20000B46D7E93EAB524602FB03F2C7E93EAB96
:101D30005B4682468B46514601FB03F313445246F1
:101D4000D7F8F810A2FB0112C7F8F4200A46C7F82A
:101D5000F020D7F8F4201344C7F8F430D7E93C2337
:101D6000002B07DA12F1FF01396543F100037B65AF
:101D7000D7E914234FF000004FF00001100A40EAA9
:101D80000360191202460B46A118B96445EB030320
:101D9000FB64D7E91234C7E94A34D7F804311B8908
:101DA0009BB20022C7F8B030C7F8B4204FF000044F
:101DB0004FF00005D7E92C1213461D040B4645EAE7
:101DC00013450B461C04D7F804319B899BB20022B3
:101DD000C7F8A830C7F8AC20D7F83031DA17C7F801
:101DE000E830C7F8EC20D7E92A010B46D7E93AAB2F
:101DF000524602FB03F2C7E93AAB5B4682468B468A
:101E0000514601FB03F313445246D7F8E810A2FBF6
:101E10000112C7F8E4200A46C7F8E020D7F8E4200A
:101E20001344C7F8E430D7E93823002B07DA12F15E
:101E30007F01396443F100037B64D7E910234FF03D
:101E400000004FF00001D00940EA4360D91102467A
:101E50000B46A118B96345EB0303FB63D7E90E34C6
:101E6000C7E94834D7F80431DB69B3F5FA6F80F27B
:101E7000A180D7F83031DA17C7F8A030C7F8A4200E
:101E8000D7F83031DA17C7F89830C7F89C20D7E96F
:101E900028452B46D7E926AB524602FB03F25B46A8
:101EA000214601FB03F3134422465146A2FB01895C
:101EB0004B44994642464B46911839635B417B63DC
:101EC000D7E90C2312EB0801C7F8901043EB090384
:101ED000C7F89430D7E92423002B06DA511EB962E3
:101EE00043F10103FB62D7E90A234FF000004FF0F2
:101EF00000015810D91702460B461346C7F8343173
:101F0000D7F80431DB69A3F5FA62D7F80431DB694D
:101F1000A3F5FA6303FB02F213465B001A44D30FE6
:101F200013445B10C7F83831D7F80431DB69A3F5E7
:101F3000FA62D7F80431DB69A3F5FA6303FB02F216
:101F400013469B001344002B00DA0733DB10C7F85D
:101F50003C31D7F80431DA69154B9A427EDAD7F86A
:101F60000431DB6903F2DC52D7F80431DB6903F298
:101F7000DC5303FB02F21346DB009A1AD7F8383120
:101F80001344C7F83831D7F80431DB6903F2DC5267
:101F9000D7F80431DB6903F2DC5302FB03F39A0048
:101FA000D7F83C311344C7F83C3157E0FFFF7F00BE
:101FB00024FAFFFFD7F83031DA17C7F88830C7F8AE
:101FC0008C20D7F83031DA17C7F88030C7F8842072
:101FD000D7E922452B46D7E92089424602FB03F286
:101FE0004B46214601FB03F3134422464146A2FB24
:101FF0000112C7F8DC200A46C7F8D820D7F8DC2041
:102000001344C7F8DC30D7E93623002B06DA511E1B
:10201000396243F10F037B62D7E908234FF00000D8
:102020004FF000011811D91702460B461346C7F8A6
:102030003431D7F80431DB69A3F5FA62D7F80431FB
:10204000DB69A3F5FA6302FB03F3002B00DA0F331D
:102050001B11C7F838310023C7F83C31D7F83831A5
:10206000DA17BB67FA67D7E94823D7E91E45214647
:10207000511AB961294663EB0103FB61D7E90634C4
:10208000C7E94634D7F83C31DA173B677A67D7E9B6
:102090004A23D7E91C452146511A3961294663EB89
:1020A00001037B61D7E90434C7E94434D7F804312C
:1020B000DA69D7F83431D21AD7F80431DA61D7F8AF
:1020C00004315B690022BB66FA66D7F81031D7E9A4
:1020D0001A452A4602FB03F2D7F81431214601FBC8
:1020E00003F31344D7F810212146A2FB0112C7F8CD
:1020F000D4200A46C7F8D020D7F8D4201344C7F814
:10210000D430D7E93423002B07DA35495118B960A8
:1021100043F10003FB60D7E902234FF000004FF0CA
:102120000001500D40EAC3205915D7E94623841A0F
:102130003C6661EB03037B66D7E91823002B08DAC2
:1021400041F6FF715118396043F100037B60D7E914
:1021500000234FF000004FF00001500B40EAC34055
:10216000591302460B46D7F804311A62D7F80431E6
:10217000DB6907EE903AB8EEE77ADFED1A6AC7EE50
:10218000267AD7F80431C3ED0B7AD7F804311B6AED
:1021900007EE903AB8EEE77AF2EE046AC7EE267AD6
:1021A0009FED107A67EE877AC7ED437AD7ED437AD1
:1021B0009FED0D7A77EEC76AD7F80431D3ED097A2F
:1021C0009FED0A7A27EE877AC6EE877AD7F8043130
:1021D000C3ED0A7A00BF07F5A077BD46BDE8B08F12
:1021E000FFFF1F000000C84200DAC5470AE81C4193
:1021F0002DE9F0472DED028BFAB00EAF0023C7F8A2
:10220000AC314FF00003C7F8A83101F0F1FF00F046
:1022100023FE01F00DF90EF025FB01F0B5F801F0F9
:1022200055F800F0EDFE00F083FE00F017FF00F01F
:10223000BDFF01F0D3F800F03FFF00F097FF0CF076
:1022400041F918220021AD480FF0E1FFAB4B00220D
:10225000DA60AA4B00221A75FFF7F2F802F02EF8A6
:10226000034618460FF01CF80122A549A54809F0BD
:10227000D6F80122A449A54809F0D1F8A44801F0F4
:1022800003FAA44801F000FA642002F023F80023C6
:10229000C7F8A431012387F8A33123E097F8A331CD
:1022A0009BB25B0099B20A2301229B4803F030FFE6
:1022B0000346002B11D197F8A33107F14000974A4C
:1022C00032210FF02BFF07F14003184601F0DCF933
:1022D000D7F8A4310133C7F8A43197F8A3310133FB
:1022E00087F8A33197F9A331002BD7DAD7F8A431B7
:1022F000002B02D18A4801F0C7F9D7F8A431002B8E
:1023000002DD884801F0C0F9642001F0E3FF0023FA
:1023100087F85331642302930123019307F2531387
:1023200000930123002250217B4803F0BFFC0346A9
:10233000002B79D197F85331A02B75D17A4B2822F5
:102340001A707A4801F0A0F9002387F85231764BD1
:102350001B785B0099B2642302930123019307F574
:10236000A973009301233D226B4803F0A5FB1920BC
:1023700001F0B0FF0C2387F851316B4B1B785B00E9
:1023800099B2642302930123019307F2511300933E
:1023900001233D22604803F08FFB642001F09AFF87
:1023A000002387F85031604B1B785B0099B264239F
:1023B00002930123019307F5A873009301233D22A3
:1023C000554803F073FC97F8503107F10C00584A58
:1023D00032210FF0A3FE07F10C03184601F054F967
:1023E000002387F84F31504B1B785B0099B2642370
:1023F00002930123019307F24F1300930123352227
:10240000454803F053FC97F84F3107F14000494A23
:1024100032210FF083FE07F14003184601F034F932
:10242000454801F031F976E16423029301230193D9
:1024300007F253130093012300225221364803F080
:1024400035FC0346002B7DD197F85331A02B79D171
:10245000354B29221A70394801F016F9002387F804
:102460004E31314B1B785B0099B2642302930123F8
:10247000019307F5A773009301233D22264803F03B
:102480001BFB192001F026FF0C2387F84D31264B4A
:102490001B785B0099B2642302930123019307F236
:1024A0004D13009301233D221B4803F005FB6420DC
:1024B00001F010FF002387F84C311B4B1B785B00A9
:1024C00099B2642302930123019307F5A673009345
:1024D00001233D22104803F0E9FB97F84C3107F146
:1024E0004000134A32210FF019FE07F1400318464D
:1024F00001F0CAF8124801F0C7F80CE18406002088
:10250000C9060020F40500204E0700203C060020EC
:102510005048010878480108180400209048010834
:10252000B0480108DC480108000000200C490108FF
:102530002C490108444901085C4901087449010813
:10254000944901087D4801F09FF8002387F84B313A
:102550007B4B1B785B0099B26423029301230193A8
:1025600007F24B13009301237522764803F09EFB7C
:10257000034687F8873197F88731002B40F0B88001
:1025800097F84B31712B08D097F84B31702B04D052
:1025900097F84B31112B40F0AB806B4B01221A7036
:1025A00097F84B3107F14000684A32210FF0B6FD31
:1025B00007F14003184601F067F8002387F84A3115
:1025C000802387F84A315E4B1B785B0099B2642305
:1025D00002930123019307F5A573009301236B2256
:1025E000584803F069FA642001F074FE012387F86B
:1025F0004A31534B1B785B0099B264230293012349
:10260000019307F5A573009301236B224D4803F056
:1026100053FA0A2001F05EFE032387F84A31484B43
:102620001B785B0099B2642302930123019307F5A1
:10263000A573009301231A22424803F03DFA1823A0
:1026400087F84A313E4B1B785B0099B264230293B2
:102650000123019307F5A573009301231B22394839
:1026600003F02AFA082387F84A31354B1B785B00C0
:1026700099B2642302930123019307F5A573009394
:1026800001231C222F4803F017FA022387F84A314E
:102690002B4B1B785B0099B26423029301230193B7
:1026A00007F5A573009301233722264803F004FAA7
:1026B0000A2001F00FFE162387F84A31244B1B78BD
:1026C0005B0099B2642302930123019307F5A5737C
:1026D000009301230A221B4803F0EEF90346002B66
:1026E00002D11C4800F0D0FF1B4800F0CDFF12E0E3
:1026F00097F8873197F84B2107F140000092174A6D
:1027000064210FF00BFD07F14003184600F0BCFFF9
:10271000134800F0B9FFFEF73BFF124B1B78DBB20A
:10272000002B31D00622104910480FF078FD0346E7
:10273000002B1DD10D4800F051FF22E0B4490108E3
:102740000100002018040020C8060020F4490108F8
:10275000020000201C4A0108444A0108644A01089A
:10276000984A0108D2070020C04A0108D407002077
:102770005A48FDF737FD03469BB21946574801F00A
:1027800045F8574B00221A7001F098FDC7F88001F8
:10279000544B1B68D7F88021D31A4FF47A729342B6
:1027A000B9D3504AD7F8803113604FF07F53C7F840
:1027B0007C314D4BC7F87831D7F87C01FDF7D4FE5A
:1027C00004460D46D7F87801FDF7CEFE02460B46CB
:1027D00007F10C00CDE90223CDE90045434A32213F
:1027E0000FF09CFC07F10C031846FDF7FBFC0346B9
:1027F0009AB207F10C0164233D4808F085FD3D4B7A
:102800001B7883F00103DBB2002B00F087803A4B8A
:102810001B785B0099B26423029306230193374B24
:10282000009301231A22364803F040FA034687F842
:102830006D3197F86D31002B40F088812F4B5B781C
:102840001BB21B021AB22D4B1B781BB213431AB2D8
:102850002C4B1A80294BDB781BB21B021AB2274B78
:102860009B781BB213431AB2274B1A80234B5B7918
:102870001BB21B021AB2214B1B791BB213431AB2B3
:10288000224B1A801F4BB3F9003007EE903AB8EE96
:10289000E77AF3EE006AC7EE267A1D4BC3ED007AA5
:1028A000194BB3F9003007EE903AB8EEE77AF3EE41
:1028B000006AC7EE267A174BC3ED007A134BB3F9C3
:1028C000003007EE903AB8EEE77AF3EE006AC7EE12
:1028D000267A114BC3ED007A38E100BFD4070020FF
:1028E000D20700209C0600206666A241C84A010863
:1028F000F4050020C806002000000020A0060020EB
:1029000018040020BA060020B8060020B6060020F1
:10291000C4060020C0060020BC060020CD4B1B785A
:102920005B0099B2642302930E230193CA4B009378
:1029300001233B22C94803F0B9F90346002B40F0BC
:102940000581C54B1B781BB21B021AB2C24B5B78C8
:102950001BB21343A7F87631BF4B9B781BB21B0207
:102960001AB2BD4BDB781BB21343A7F87431BA4BD4
:102970001B791BB21B021AB2B74B5B791BB2134314
:10298000A7F87231B7F9743107EE903AB8EEE78ADA
:10299000B7F9763107EE903AB8EEE77AB7F97631C3
:1029A00007EE903AF8EEE77A27EE277AB7F9723118
:1029B00007EE903AF8EEE76AB7F9723107EE903A0F
:1029C000F8EEE77A66EEA77A77EE277AB0EE670A36
:1029D00011F0C6FCF0EE407AF0EE670AB0EE480A5D
:1029E00011F0BCFCF0EE407A9FED9D7A67EE877A9D
:1029F0009C4BC3ED007AB7F9763107EE903AF8EECA
:102A0000E77AF1EE677AB7F9723107EE103AB8EE6D
:102A1000C77AF0EE470AB0EE670A11F09FFCF0EEBD
:102A2000407A9FED8F7A67EE877A8F4BC3ED007AFD
:102A3000002387F849318D4B1B785B0099B26423E2
:102A400002930123019307F2491300930123022209
:102A5000824803F02BF997F8493103F00103002B6A
:102A600043D0824B1B785B0099B264230293072307
:102A7000019307F5A073009301230322774803F025
:102A800015F90346002B30D197F841311BB21B02D8
:102A90001AB297F840311BB21343A7F8703197F878
:102AA00043311BB21B021AB297F842311BB21343D7
:102AB000A7F86E31B7F96E3107EE903AF8EEE77A83
:102AC000B7F9703107EE103AB8EEC77AF0EE470A60
:102AD000B0EE670A11F042FCF0EE407A9FED607AAA
:102AE00067EE877A624BC3ED007AB7F976A1B7F942
:102AF0007461B7F972317B605A4B1B681846FDF759
:102B000033FD04460D46584B1B681846FDF72CFD57
:102B100080468946564B1B681846FDF725FD024640
:102B20000B4607F14000CDE90623CDE90489CDE944
:102B300002457B680193009653464E4A64210FF08C
:102B4000EDFA07F14003184600F09EFD4A4801F0F7
:102B500029FC0A21484801F02AFD0346002B10D128
:102B6000454801F0AFFDC7F8AC01D7F8AC3107EE2E
:102B7000903AF8EE677A9FED417A67EE877AC7ED73
:102B80006A7A3D4801F0E0FC3D4800F09BFD0EF004
:102B9000B5FB01463B4B83FB0132CB17D21A1346E0
:102BA0005B001344CA1A364BDA600EF0A7FB0346EB
:102BB000002B03F00103B8BF5B42314A1361304B75
:102BC000D3ED007AFDEEE77A17EE903AC7F8683158
:102BD0002B4B93ED007AD7F8683107EE903AF8EE78
:102BE000E77A77EE677A9FED287A67EE877AFDEECF
:102BF000E77A17EE903AC7F89C31D7F89C31002B52
:102C000004DAD7F89C315B42C7F89C311C4BD3EDFA
:102C1000017AFDEEE77A17EE903AC7F86431184B67
:102C200093ED017AD7F8643107EE903AF8EEE77A3F
:102C300077EE677A9FED147A67EE877AFDEEE77A92
:102C400017EE903AC7F89831D7F89831002B22DA6E
:102C50001CE000BF01000020A8060020180400208E
:102C6000E12E6542BC060020C006002002000020C4
:102C7000C4060020D84A0108D00300206740533A18
:102C800084060020565555550000C842D7F89831A3
:102C90005B42C7F89831694BD3ED007AFDEEE77AD5
:102CA00017EE903AC7F86031644B93ED007AD7F88D
:102CB000603107EE903AF8EEE77A77EE677A9FEDAB
:102CC000607A67EE877AFDEEE77A17EE903AC7F8FA
:102CD0009431D7F89431002B04DAD7F894315B4261
:102CE000C7F89431574BD3ED007AFDEEE77A17EE33
:102CF000903AC7F85C31534B93ED007AD7F85C31CA
:102D000007EE903AF8EEE77A77EE677A9FED4C7A25
:102D100067EE877AFDEEE77A17EE903AC7F89031C2
:102D2000D7F89031002B04DAD7F890315B42C7F81E
:102D30009031454BD3ED007AFDEEE77A17EE903AED
:102D4000C7F85831404B93ED007AD7F8583107EE69
:102D5000903AF8EEE77A77EE677A9FED397A67EE88
:102D6000877AFDEEE77A17EE903AC7F88C31D7F8FC
:102D70008C31002B04DAD7F88C315B42C7F88C31E8
:102D8000D7ED6A7AFDEEE77A17EE903AC7F854313C
:102D9000D7F8543107EE903AF8EEE77A97ED6A7A71
:102DA00077EE677A9FED297A67EE877AFDEEE77A0C
:102DB00017EE903AC7F88831D7F88831002B04DA3B
:102DC000D7F888315B42C7F88831214BDB68204A4D
:102DD000126907F14000D7F8AC110D910C920B93DA
:102DE000D7F888310A93D7F854310993D7F89C3132
:102DF0000893D7F868310793D7F898310693D7F836
:102E000064310593D7F894310493D7F86031039374
:102E1000D7F890310293D7F85C310193D7F88C3111
:102E20000093D7F858310B4A4FF480710FF076F9C0
:102E300007F14003184600F027FC6CE4BC060020B4
:102E40000000C842C0060020C406002000007A44EA
:102E500084060020084B010880B594B000AF07F14C
:102E600020033022002118460FF0D1F907F10C039E
:102E700000221A605A609A60DA601A610023BB600F
:102E8000294B1B6C284A43F080531364264B1B6C60
:102E900003F08053BB60BB6800237B60234B1B683F
:102EA000224A43F480431360204B1B6803F48043A1
:102EB0007B607B6809233B624FF480337B62012394
:102EC0007B630223BB634FF48003FB6308233B64F3
:102ED0004FF4A8737B640223BB640723FB6407F1F0
:102EE0002003184605F098F90346002B01D000F0A6
:102EF00087FD0F23FB6002233B6100237B614FF4BE
:102F0000A053BB614FF48053FB6107F10C03052113
:102F1000184605F0F9FB0346002B01D000F070FDC8
:102F200000BF5037BD4680BD0038024000700040F1
:102F300080B58AB000AF07F1180300221A605A600A
:102F40009A60DA602A4B2B4A1A60294B4FF4803280
:102F50005A60274B00229A60254B00221A61244BAD
:102F600000221A76224B002283F82020204B0022D8
:102F7000DA621F4B204A9A621D4B0022DA601C4B1A
:102F80000122DA611A4B002283F83020184B01220B
:102F90005A61174801F0C2F90346002B01D000F036
:102FA0002FFD0023BB610123FB6100233B6207F17E
:102FB000180319460E4801F093FB0346002B01D07D
:102FC00000F01EFD3B1D00221A605A609A60DA6014
:102FD0001A6101237B600323BB600023FB603B1D60
:102FE0001946064801F03EFF00BF2837BD4680BDA8
:102FF000D0030020002001400100000F000002402B
:1030000080B500AF124B134A1A60114B124A5A6036
:103010000F4B00229A600E4B0022DA600C4B4FF4EB
:1030200080421A610A4B00225A61094B00229A61C0
:10303000074B0022DA61064B00221A62044802F0B4
:10304000C7F80346002B01D000F0DAFC00BF80BDBA
:103050001804002000540040A086010080B500AF95
:10306000124B134A1A60114B124A5A600F4B00223E
:103070009A600E4B0022DA600C4B4FF480421A61CA
:103080000A4B00225A61094B00229A61074B002229
:10309000DA61064B00221A62044802F099F80346EE
:1030A000002B01D000F0ACFC00BF80BD6C04002000
:1030B00000580040A086010080B586B000AF3B1DDF
:1030C00000221A605A609A60DA601A6100233B603D
:1030D000244B254A1A60234B00225A60214B7F2241
:1030E0009A60204BFF22DA601E4B00221A611D4BB2
:1030F00000225A611B4B00229A611A4805F006FE15
:103100000346002B01D000F07BFC00233B71002321
:103110007B710023BB7100233B6100237B613B1D5E
:10312000012219460F4805F072FE0346002B01D01C
:1031300000F066FC01233B7001237B700123BB7010
:103140000023FB703B4601221946064805F0F9FEB4
:103150000346002B01D000F053FC00BF1837BD46DA
:1031600080BD00BFC00400200028004080B400AF34
:103170000C4B0D4A1A600B4B00225A60094B00227F
:103180009A60084B0022DA60064B00221A61054B58
:1031900000225A61034B00229A6100BFBD465DF8D0
:1031A000047B7047E0040020002C014080B592B001
:1031B00000AF07F1400300221A605A6007F12403B0
:1031C00000221A605A609A60DA601A615A619A6144
:1031D0003B1D2022002118460FF019F8394B3A4ABE
:1031E0001A60384BA7225A60364B00229A60354B42
:1031F0004FF47A72DA60334B00221A61314B0022AD
:103200005A61304B00229A612E4807F0A8F9034614
:10321000002B01D000F0F4FB00233B6400237B640F
:1032200007F140031946274807F050FF0346002BDB
:1032300001D000F0E5FB60237B620023BB6200232A
:10324000FB6200233B6300237B630023BB630023FB
:10325000FB6307F12403002219461A4807F096FA87
:103260000346002B01D000F0CBFB07F1240304221E
:103270001946144807F08AFA0346002B01D000F0E3
:10328000BFFB00237B600023BB600023FB600023A7
:103290003B6100237B614FF40053BB6100233B6221
:1032A0003B1D1946074807F08DFF0346002B01D050
:1032B00000F0A6FB034800F065FD00BF4837BD469F
:1032C00080BD00BF640500200000014080B588B0CB
:1032D00000AF00237B602A4B1B6C294A43F001039B
:1032E0001364274B1B6C03F001037B607B6807F1C1
:1032F000100300221A605A609A60DA6007F108032E
:1033000000221A605A601F4B4FF080421A601D4B1A
:10331000A7225A601B4B00229A601A4B4FF6FF728D
:10332000DA60184B00221A61164B00229A61154888
:1033300007F0C6F80346002B01D000F061FB4FF404
:1033400080533B6107F1100319460E4807F0E0FA7D
:103350000346002B01D000F053FB0023BB60002389
:10336000FB6007F108031946064807F0AFFE034665
:10337000002B01D000F044FB00BF2037BD4680BDCC
:1033800000380240AC05002080B500AF114B124A56
:103390001A60104B4FF4E1325A600E4B00229A60D3
:1033A0000C4B0022DA600B4B00221A61094B0C22F5
:1033B0005A61084B00229A61064B0022DA610548E7
:1033C00007F052FF0346002B01D000F019FB00BFAD
:1033D00080BD00BFF40500200044004080B500AF70
:1033E000114B124A1A60104B4FF4E1325A600E4BE7
:1033F00000229A600C4B0022DA600B4B00221A610B
:10340000094B0C225A61084B00229A61064B00229C
:10341000DA61054807F028FF0346002B01D000F0D1
:10342000EFFA00BF80BD00BF3C060020004800400E
:1034300080B58CB000AF07F11C0300221A605A60FF
:103440009A60DA601A610023BB61604B1B6B5F4AB4
:1034500043F0800313635D4B1B6B03F08003BB6180
:10346000BB6900237B61594B1B6B584A43F0010336
:103470001363564B1B6B03F001037B617B690023D5
:103480003B61524B1B6B514A43F0020313634F4B9A
:103490001B6B03F002033B613B690023FB604B4B5A
:1034A0001B6B4A4A43F010031363484B1B6B03F03A
:1034B0001003FB60FB680023BB60444B1B6B434A5B
:1034C00043F008031363414B1B6B03F00803BB601D
:1034D000BB6800237B603D4B1B6B3C4A43F00403FD
:1034E00013633A4B1B6B03F004037B607B68002281
:1034F0000321374801F052FE00224FF42061354885
:1035000001F04CFE0223FB6100233B6200237B623F
:1035100007F11C031946304801F0A4FC0323FB61AA
:1035200001233B6200237B620023BB6207F11C0383
:103530001946274801F096FC4FF42063FB610123F4
:103540003B6200237B620023BB6207F11C03194628
:10355000204801F087FCC023FB6101233B6200236C
:103560007B620023BB6207F11C0319461A4801F075
:1035700079FC0122C021184801F010FE00233B60B5
:10358000124B1B6B114A43F0020313630F4B1B6B6F
:1035900003F002033B603B6840F60343FB610123F9
:1035A0003B6200237B620023BB6207F11C031946C8
:1035B000074801F057FC002240F60341044801F09F
:1035C000EDFD00BF3037BD4680BD00BF0038024072
:1035D00000040240001002400000024080B58AB0A2
:1035E00000AF7860244978680EF03EFE78627B6A0E
:1035F000002B3CD07B6A023318460DF04DFE53EC95
:10360000102B10461946FDF7C1FA03463B62D7ED71
:10361000087AB7EE007AF4EEC77AF1EE10FA13DB0F
:10362000164A07F1140307CA03C31A7007F11403FB
:103630001846FCF7D7FD03469AB207F1140164233C
:103640000F4807F061FE12E00E4A07F1080307CAAF
:1036500003C31A7007F108031846FCF7C3FD0346BD
:103660009AB207F108016423054807F04DFE00BF38
:103670002837BD4680BD00BF6C4B0108704B010868
:103680003C0600207C4B010880B582B000AF78601A
:103690007868FCF7A7FD03469AB264237968084866
:1036A00007F032FE7868FCF79DFD03469BB2194691
:1036B00078680DF095F900BF0837BD4680BD00BFA2
:1036C000F405002080B584B000AF78600DF016FEE0
:1036D0000346464A82FB03125110DA178A1AC9219F
:1036E00001FB02F29A1A07EE902AB8EEE77ADFEDB4
:1036F000406AC7EE267AB2EE067A77EE877A7B6862
:10370000C3ED007A0DF0FAFD02463A4B83FB02133B
:1037100013445911D317C91A0B465B000B44190106
:103720000B44D11A07EE901AB8EEE77ADFED306A53
:10373000C7EE267AC7ED037A2F4B1B78002B1AD0E1
:103740007B6893ED017AD7ED037A77EE277A7B6871
:10375000C3ED017A7B68D3ED017A9FED287AF4EE10
:10376000C77AF1EE10FA1FDB7B68254A5A60224BBC
:1037700000221A7018E07B6893ED017AD7ED037A86
:1037800077EE677A7B68C3ED017A7B68D3ED017AC7
:10379000F5EEC07AF1EE10FA06D87B684FF0000221
:1037A0005A60154B01221A700DF0A8FD0346154A08
:1037B00082FB03129112DA178A1A40F6C51101FB37
:1037C00002F29A1A07EE902AB8EEE77ADFED086A5D
:1037D000C7EE267A9FED0C7A77EE877A7B68C3ED89
:1037E000027A00BF1037BD4680BD00BF79198C0238
:1037F0000000C842A1A0A0A0030000200000484291
:1038000000004842FFCFD06800008C4280B582B0F3
:1038100000AF78600B467B807B88002B07D07B88CD
:103820007F2B04D87B887A68134400221A701949C8
:103830007868FCF7CDFC0346002B08D1FDF7C2FCED
:10384000034601221A751448FFF71EFF1DE01349B5
:103850007868FCF7BDFC0346002B08D1FDF7B2FCED
:10386000034600221A750E48FFF70EFF0DE00D49C2
:103870007868FCF7ADFC0346002B03D10A48FFF73C
:1038800003FF02E00948FFF7FFFE00BF0837BD460F
:1038900080BD00BF884B0108984B0108B04B010860
:1038A000C04B0108D84B0108E84B0108FC4B01084C
:1038B00080B582B000AF78607B681A68464B1B68A1
:1038C0009A423FD1454B1B780A2B03D0434B1B78C0
:1038D0000D2B22D1424B1B88002B2DD0404B1B8837
:1038E0001A46404B002199543F4B1B78DBB283F0C2
:1038F0000103DBB2002B07D080223A493B480EF08F
:10390000A0FC394B01221A70354B00221A8080220C
:10391000002134480EF07BFC0EE0314B1B887E2BDF
:103920000AD82F4B1B885A1C91B22D4A11801A4677
:103930002A4B19782B4B995401222849264807F025
:103940006EFD44E07B681A68294B1B689A423ED1A1
:10395000284B1B780A2B03D0264B1B780D2B22D12A
:10396000254B1B88002B2DD0234B1B881A46234B3D
:10397000002199541C4B1B78DBB283F00103DBB2AE
:10398000002B07D080221D4918480EF05AFC164B18
:1039900001221A70184B00221A8080220021174839
:1039A0000EF035FC0EE0144B1B887E2B0AD8124B10
:1039B0001B885A1C91B2104A11801A460D4B197877
:1039C0000E4B995401220B49094807F028FD00BF0E
:1039D0000837BD4680BD00BFF4050020C9060020A1
:1039E0004C070020CC060020D2070020D40700207E
:1039F0003C0600204E070020D00700205007002082
:103A000080B400AF72B600BF00BFFDE780B483B0E2
:103A100000AF00237B60104B5B6C0F4A43F4804384
:103A200053640D4B5B6C03F480437B607B68002325
:103A30003B60094B1B6C084A43F080531364064BF0
:103A40001B6C03F080533B603B6800BF0C37BD46E6
:103A50005DF8047B704700BF0038024080B58AB033
:103A600000AF786007F1140300221A605A609A6070
:103A7000DA601A617B681B68174A934227D10023DA
:103A80003B61164B5B6C154A43F480735364134BD4
:103A90005B6C03F480733B613B690023FB600F4B5D
:103AA0001B6B0E4A43F0010313630C4B1B6B03F0BB
:103AB0000103FB60FB6801237B610323BB610023DF
:103AC000FB6107F114031946054801F0CBF900BF6B
:103AD0002837BD4680BD00BF0020014000380240AD
:103AE0000000024080B58CB000AF786007F11C0385
:103AF00000221A605A609A60DA601A617B681B685B
:103B0000324A93422CD10023BB61314B1B6B304AAC
:103B100043F0020313632E4B1B6B03F00203BB61E4
:103B2000BB69C023FB6112233B6200237B6203233A
:103B3000BB620423FB6207F11C031946254801F010
:103B400091F900237B61224B1B6C214A43F4001343
:103B500013641F4B1B6C03F400137B617B6931E022
:103B60007B681B681C4A93422CD100233B61184B95
:103B70001B6B174A43F002031363154B1B6B03F0D7
:103B800002033B613B694FF44063FB6112233B62DC
:103B900000237B620323BB620423FB6207F11C0347
:103BA00019460C4801F05EF90023FB60084B1B6CC2
:103BB000074A43F480031364054B1B6C03F4800332
:103BC000FB60FB6800BF3037BD4680BD005400403D
:103BD00000380240000402400058004080B586B022
:103BE00000AF786007F1080300221A605A609A60FB
:103BF000DA607B681B680C4A934211D10223BB60D8
:103C00004FF400737B6107F10803184604F09CFF32
:103C10000346002B01D0FFF7F3FE044B01221A608C
:103C200000BF1837BD4680BD002800403C0E47420B
:103C300080B58AB000AF786007F1140300221A60E3
:103C40005A609A60DA601A617B681B68284A93425E
:103C50004AD100233B61274B5B6C264A43F4006347
:103C60005364244B5B6C03F400633B613B690023AA
:103C7000FB60204B1B6B1F4A43F0040313631D4B77
:103C80001B6B03F00403FB60FB680023BB60194B54
:103C90001B6B184A43F008031363164B1B6B03F0AE
:103CA0000803BB60BB684FF4F8537B610223BB6120
:103CB0000023FB6103233B620C237B6207F11403A7
:103CC00019460D4801F0CEF804237B610223BB6145
:103CD0000023FB6103233B620C237B6207F1140387
:103CE0001946064801F0BEF800BF2837BD4680BD22
:103CF000002C01400038024000080240000C024045
:103D000080B485B000AF78607B681B680B4A934233
:103D10000DD10023FB600A4B5B6C094A43F00103A1
:103D20005364074B5B6C03F00103FB60FB6800BF4F
:103D30001437BD465DF8047B704700BF00000140AA
:103D40000038024080B485B000AF78607B681B68A3
:103D5000B3F1804F0DD10023FB60094B1B6C084A67
:103D600043F001031364064B1B6C03F00103FB607B
:103D7000FB6800BF1437BD465DF8047B704700BF89
:103D80000038024080B588B000AF786007F10C03BE
:103D900000221A605A609A60DA601A617B681B68B8
:103DA000124A93421ED10023BB60114B1B6B104A79
:103DB00043F0010313630E4B1B6B03F00103BB6065
:103DC000BB684FF44073FB6002233B6100237B61BF
:103DD0000023BB610123FB6107F10C031946054871
:103DE00001F040F800BF2037BD4680BD0000014013
:103DF000003802400000024080B58CB000AF78600F
:103E000007F11C0300221A605A609A60DA601A6196
:103E10007B681B68494A934252D10023BB61484BDF
:103E20001B6C474A43F400331364454B1B6C03F48B
:103E30000033BB61BB6900237B61414B1B6B404A74
:103E400043F0010313633E4B1B6B03F001037B61E3
:103E50007B6900233B613A4B1B6B394A43F00803F3
:103E60001363374B1B6B03F008033B613B6904236F
:103E7000FB6102233B6200237B620323BB620723B7
:103E8000FB6207F11C0319462E4800F0EBFF4023AC
:103E9000FB6102233B6200237B620323BB62072397
:103EA000FB6207F11C031946274800F0DBFF0022E4
:103EB0000021262000F00DFF262000F026FF39E02B
:103EC0007B681B68214A934234D10023FB601C4B62
:103ED0001B6C1B4A43F480231364194B1B6C03F4C3
:103EE0008023FB60FB680023BB60154B1B6B144AEF
:103EF00043F008031363124B1B6B03F00803BB6012
:103F0000BB684FF44073FB6102233B6200237B627A
:103F10000323BB620723FB6207F11C0319460A480F
:103F200000F0A0FF00220021272000F0D2FE272071
:103F300000F0EBFE00BF3037BD4680BD00440040BE
:103F40000038024000000240000C024000480040DF
:103F500080B400AF00BFFDE780B400AF00BFFDE755
:103F600080B400AF00BFFDE780B400AF00BFFDE745
:103F700080B400AF00BFFDE780B400AF00BFBD4616
:103F80005DF8047B704780B400AF00BFBD465DF8AC
:103F9000047B704780B400AF00BFBD465DF8047B72
:103FA000704780B500AF00F075F900BF80BD00001C
:103FB00080B500AF024807F057FA00BF80BD00BFD0
:103FC000F405002080B500AF024807F04DFA00BFAD
:103FD00080BD00BF3C06002080B500AF024803F062
:103FE0000DF800BF80BD00BF501D002080B400AFA1
:103FF00001231846BD465DF8047B704780B582B04A
:1040000000AF786039600EF08BF9034616221A6013
:104010004FF0FF3318460837BD4680BD80B582B0EB
:1040200000AF78604FF0FF317868FFF7E7FF00BF1F
:10403000FDE780B586B000AFF860B9607A60002314
:104040007B610AE0AFF300800146BB685A1CBA608E
:10405000CAB21A707B6901337B617A697B689A42C4
:10406000F0DB7B6818461837BD4680BD80B586B04A
:1040700000AFF860B9607A6000237B6109E0BB683B
:104080005A1CBA601B781846AFF300807B69013375
:104090007B617A697B689A42F1DB7B681846183746
:1040A000BD4680BD80B483B000AF78604FF0FF3371
:1040B00018460C37BD465DF8047B704780B483B06A
:1040C00000AF786039603B684FF400525A600023BB
:1040D00018460C37BD465DF8047B704780B483B04A
:1040E00000AF7860012318460C37BD465DF8047BAD
:1040F000704780B485B000AFF860B9607A60002383
:1041000018461437BD465DF8047B704780B586B00D
:1041100000AF7860144A154BD31A7B617B693B6111
:10412000134B1B68002B02D1114B124A1A60104B23
:104130001A687B6813443A699A4207D20EF0F0F885
:1041400003460C221A604FF0FF3309E0084B1B684E
:10415000FB60074B1A687B681344054A1360FB68D1
:1041600018461837BD4680BD00000220000400003C
:1041700054080020A025002080B400AF064BD3F8DF
:104180008830054A43F47003C2F8883000BFBD464A
:104190005DF8047B704700BF00ED00E0DFF834D02D
:1041A000FFF7EAFF0C480D490D4A002302E0D458FE
:1041B000C4500433C4188C42F9D30A4A0A4C002371
:1041C00001E013600432A242FBD30EF0AFF8FEF719
:1041D0000FF870470000022000000020C8020020F5
:1041E000E4500108C8020020A0250020FEE70000DE
:1041F00080B500AF0E4B1B680D4A43F4007313608B
:104200000B4B1B680A4A43F480631360084B1B681E
:10421000074A43F480731360032000F04FFD0F2022
:1042200000F008F8FFF7F2FB0023184680BD00BF3E
:10423000003C024080B582B000AF7860124B1A6833
:10424000124B1B7819464FF47A73B3FBF1F3B2FBB0
:10425000F3F3184600F067FD0346002B01D001235D
:104260000EE07B680F2B0AD8002279684FF0FF30F0
:1042700000F02FFD064A7B681360002300E0012355
:1042800018460837BD4680BD040000200C00002001
:104290000800002080B400AF064B1B781A46064B7E
:1042A0001B681344044A136000BFBD465DF8047BDD
:1042B000704700BF0C0000205808002080B400AFF9
:1042C000034B1B681846BD465DF8047B704700BF72
:1042D0005808002080B584B000AF7860FFF7EEFF8B
:1042E000B8607B68FB60FB68B3F1FF3F05D00A4B09
:1042F0001B781A46FB681344FB6000BFFFF7DEFF24
:104300000246BB68D31AFA689A42F7D800BF00BFCA
:104310001037BD4680BD00BF0C00002080B584B0C2
:1043200000AF78600023FB737B68002B01D1012371
:1043300033E07B681B6C002B09D17868FFF78EFB9C
:104340007B6800225A647B68002283F83C207B68EB
:104350001B6C03F01003002B18D17B681B6C23F43B
:10436000885323F0020343F002027B681A647868E2
:1043700000F0D8FA7B6800225A647B681B6C23F03B
:10438000030343F001027B681A6401E00123FB731D
:104390007B68002283F83C20FB7B18461037BD4623
:1043A00080BD000080B485B000AF78600023BB60A2
:1043B0007B6893F83C30012B01D10223B2E07B688B
:1043C000012283F83C207B681B689B6803F0010393
:1043D000012B18D07B681B689A687B681B6842F0C9
:1043E00001029A60524B1B68524AA2FB03239A0CAB
:1043F00013465B001344BB6002E0BB68013BBB603B
:10440000BB68002BF9D17B681B689B6803F0010334
:10441000012B7AD17B681B6C23F4E06323F001034A
:1044200043F480727B681A647B681B685B6803F4E2
:104430008063002B07D07B681B6C23F4405343F44C
:1044400080527B681A647B681B6C03F48053B3F55D
:10445000805F06D17B685B6C23F006027B685A6440
:1044600002E07B6800225A647B68002283F83C20CB
:10447000314BFB607B681B686FF022021A60FB689F
:104480005B6803F01F03002B2AD17B681B682B4A53
:10449000934215D07B681B68294A934205D1264B6D
:1044A0005B6803F01F03002B0AD07B681B68254A5A
:1044B000934236D1204B5B6803F01003002B30D1C0
:1044C0007B681B689B6803F04053002B29D17B68F5
:1044D0001B689A687B681B6842F080429A6020E003
:1044E0007B681B68154A93421BD17B681B689B68DD
:1044F00003F04053002B14D17B681B689A687B68DB
:104500001B6842F080429A600BE07B681B6C43F0B2
:1045100010027B681A647B685B6C43F001027B6865
:104520005A64002318461437BD465DF8047B704773
:104530000400002083DE1B430023014000200140D3
:10454000002101400022014080B483B000AF7860B8
:104550007B6893F83C30012B01D1022321E07B687A
:10456000012283F83C207B681B689A687B681B6883
:1045700022F001029A607B681B689B6803F00103CC
:10458000002B09D17B681B6C23F4885323F00103B3
:1045900043F001027B681A647B68002283F83C20A8
:1045A000002318460C37BD465DF8047B704780B584
:1045B00084B000AF786039600023FB607B681B68C3
:1045C0009B6803F48063B3F5806F13D17B681B682D
:1045D0009B6803F48073B3F5807F0BD17B681B6C01
:1045E00043F020027B681A647B68002283F83C2039
:1045F000012363E0FFF762FEF86021E03B68B3F15E
:10460000FF3F1DD03B68002B07D0FFF757FE024647
:10461000FB68D31A3A689A4212D27B681B681B68FF
:1046200003F00203022B0BD07B681B6C43F00402E7
:104630007B681A647B68002283F83C2003233DE0FA
:104640007B681B681B6803F00203022BD6D17B68D2
:104650001B686FF012021A607B681B6C43F40072D7
:104660007B681A647B681B689B6803F04053002BCF
:1046700023D17B681B7E002B1FD17B681B68DB6A04
:1046800003F47003002B06D07B681B689B6803F45F
:104690008063002B11D17B681B6C23F480727B68D4
:1046A0001A647B681B6C03F48053002B05D17B6874
:1046B0001B6C43F001027B681A6400231846103714
:1046C000BD4680BD80B483B000AF78607B681B6856
:1046D000DB6C18460C37BD465DF8047B7047000064
:1046E00080B485B000AF786039600023BB607B6820
:1046F00093F83C30012B01D1022305E17B680122B4
:1047000083F83C203B681B68092B25D97B681B6814
:10471000D9683B681B689BB21A4613465B0013447A
:104720001E3B072202FA03F3DA437B681B680A4048
:10473000DA607B681B68D9683B689A683B681B68CD
:104740009BB2184603465B0003441E3B9A407B68BD
:104750001B680A43DA6022E07B681B6819693B68C2
:104760001B689BB21A4613465B001344072202FAE9
:1047700003F3DA437B681B680A401A617B681B6895
:1047800019693B689A683B681B689BB218460346E8
:104790005B0003449A407B681B680A431A613B68CC
:1047A0005B68062B24D87B681B68596B3B685A688A
:1047B00013469B001344053B1F2202FA03F3DA431E
:1047C0007B681B680A405A637B681B68596B3B68AF
:1047D0001B689BB218463B685A6813469B001344FB
:1047E000053B00FA03F27B681B680A435A634CE0FE
:1047F0003B685B680C2B24D87B681B68196B3B6893
:104800005A6813469B001344233B1F2202FA03F30A
:10481000DA437B681B680A401A637B681B68196B64
:104820003B681B689BB218463B685A6813469B005E
:104830001344233B00FA03F27B681B680A431A63A4
:1048400023E07B681B68D96A3B685A6813469B0063
:104850001344413B1F2202FA03F3DA437B681B68CF
:104860000A40DA627B681B68D96A3B681B689BB2A6
:1048700018463B685A6813469B001344413B00FAB4
:1048800003F27B681B680A43DA62224BFB607B6899
:104890001B68214A934209D13B681B68122B05D142
:1048A000FB685B6843F48002FB685A607B681B68A6
:1048B000194A934223D13B681B68102B03D03B68F5
:1048C0001B68112B1BD1FB685B6843F40002FB687B
:1048D0005A603B681B68102B11D1104B1B68104AA3
:1048E000A2FB03239A0C13469B0013445B00BB609E
:1048F00002E0BB68013BBB60BB68002BF9D17B6861
:10490000002283F83C20002318461437BD465DF88A
:10491000047B704700230140002001400400002078
:1049200083DE1B4380B485B000AF7860794BFB60B9
:10493000FB685B6823F44032FB685A60FB685A6886
:104940007B685B681A43FB685A607B681B685A681F
:104950007B681B6822F480725A607B681B68596808
:104960007B681B691A027B681B680A435A607B6874
:104970001B685A687B681B6822F040725A607B682B
:104980001B6859687B689A687B681B680A435A6091
:104990007B681B689A687B681B6822F400629A60D7
:1049A0007B681B6899687B68DA687B681B680A43C8
:1049B0009A607B689B6A584A934222D07B681B6846
:1049C0009A687B681B6822F070629A607B681B683B
:1049D00099687B689A6A7B681B680A439A607B685F
:1049E0001B689A687B681B6822F040529A607B685B
:1049F0001B6899687B68DA6A7B681B680A439A605F
:104A00000FE07B681B689A687B681B6822F0706205
:104A10009A607B681B689A687B681B6822F040522A
:104A20009A607B681B689A687B681B6822F00202A8
:104A30009A607B681B6899687B681B7E5A007B685C
:104A40001B680A439A607B6893F82030002B1BD0C8
:104A50007B681B685A687B681B6842F400625A6076
:104A60007B681B685A687B681B6822F460425A6046
:104A70007B681B6859687B685B6A013B5A037B68EB
:104A80001B680A435A6007E07B681B685A687B68AA
:104A90001B6822F400625A607B681B68DA6A7B68D4
:104AA0001B6822F47002DA627B681B68D96A7B6833
:104AB000DB69013B1A057B681B680A43DA627B6885
:104AC0001B689A687B681B6822F400729A607B6896
:104AD0001B6899687B6893F830305A027B681B68C2
:104AE0000A439A607B681B689A687B681B6822F49B
:104AF00080629A607B681B6899687B685B699A0230
:104B00007B681B680A439A6000BF1437BD465DF896
:104B1000047B7047002301400100000F80B485B082
:104B200000AF78607B6803F00703FB600C4BDB6829
:104B3000BB60BA684FF6FF031340BB60FB681A0204
:104B4000BB68134343F0BF6343F40033BB60044AC4
:104B5000BB68D36000BF1437BD465DF8047B704767
:104B600000ED00E080B400AF044BDB681B0A03F0EB
:104B700007031846BD465DF8047B704700ED00E072
:104B800080B483B000AF0346FB7197F90730002B68
:104B90000BDBFB7903F01F02074997F907305B092C
:104BA000012000FA02F241F8232000BF0C37BD4675
:104BB0005DF8047B704700BF00E100E080B483B083
:104BC00000AF03463960FB7197F90730002B0ADB11
:104BD0003B68DAB20C4997F907301201D2B20B44A4
:104BE00083F800230AE03B68DAB20849FB7903F056
:104BF0000F03043B1201D2B20B441A7600BF0C37EC
:104C0000BD465DF8047B704700E100E000ED00E088
:104C100080B489B000AFF860B9607A60FB6803F0D7
:104C20000703FB61FB69C3F10703042B28BF0423BF
:104C3000BB61FB690433062B02D9FB69033B00E02F
:104C400000237B614FF0FF32BB6902FA03F3DA43C2
:104C5000BB681A407B699A404FF0FF317B6901FACB
:104C600003F3D9437B680B40134318462437BD46F2
:104C70005DF8047B7047000080B582B000AF7860BB
:104C80007B68013BB3F1807F01D301230FE00A4A27
:104C90007B68013B53600F214FF0FF30FFF78EFF21
:104CA000054B00229A60044B07221A600023184625
:104CB0000837BD4680BD00BF10E000E080B582B07F
:104CC00000AF78607868FFF729FF00BF0837BD465E
:104CD00080BD80B586B000AF0346B9607A60FB73D3
:104CE00000237B61FFF73EFF78617A68B9687869D5
:104CF000FFF78EFF024697F90F3011461846FFF76F
:104D00005DFF00BF1837BD4680BD80B582B000AFE3
:104D10000346FB7197F907301846FFF731FF00BFD4
:104D20000837BD4680BD80B582B000AF7860786836
:104D3000FFF7A2FF034618460837BD4680BD80B581
:104D400084B000AF78607B689B6DFB60FFF7B6FABC
:104D5000B8607B6893F83530DBB2022B08D07B68F3
:104D600080225A657B68002283F83420012352E0B8
:104D70007B681B681A687B681B6822F016021A6041
:104D80007B681B685A697B681B6822F080025A6145
:104D90007B681B6C002B03D17B689B6C002B07D0BE
:104DA0007B681B681A687B681B6822F008021A601F
:104DB0007B681B681A687B681B6822F001021A6016
:104DC00013E0FFF77BFA0246BB68D31A052B0CD918
:104DD0007B6820225A657B68032283F835207B6834
:104DE000002283F83420032315E07B681B681B68CE
:104DF00003F00103002BE4D17B68DB6D3F229A4076
:104E0000FB689A607B68012283F835207B6800226A
:104E100083F83420002318461037BD4680BD80B487
:104E200083B000AF78607B6893F83530DBB2022B3B
:104E300004D07B6880225A6501230CE07B68052240
:104E400083F835207B681B681A687B681B6822F032
:104E500001021A60002318460C37BD465DF8047B3A
:104E60007047000080B489B000AF786039600023DB
:104E70007B6100233B610023BB610023FB616BE18D
:104E80000122FB6902FA03F37B613B681B687A69C4
:104E900013403B613A697B699A4240F05A813B6812
:104EA0005B6803F00303012B05D03B685B6803F0EC
:104EB0000303022B30D17B689B68BB61FB695B00FD
:104EC000032202FA03F3DB43BA691340BB613B6878
:104ED000DA68FB695B0002FA03F3BA691343BB614A
:104EE0007B68BA699A607B685B68BB610122FB6979
:104EF00002FA03F3DB43BA691340BB613B685B68AA
:104F00001B0903F00102FB6902FA03F3BA691343B8
:104F1000BB617B68BA695A603B685B6803F0030356
:104F2000032B17D07B68DB68BB61FB695B00032246
:104F300002FA03F3DB43BA691340BB613B689A682A
:104F4000FB695B0002FA03F3BA691343BB617B6838
:104F5000BA69DA603B685B6803F00303022B23D174
:104F6000FB69DA087B68083253F82230BB61FB69C1
:104F700003F007039B000F2202FA03F3DB43BA6935
:104F80001340BB613B681A69FB6903F007039B0090
:104F900002FA03F3BA691343BB61FB69DA087B6861
:104FA0000832B96943F822107B681B68BB61FB6952
:104FB0005B00032202FA03F3DB43BA691340BB61CF
:104FC0003B685B6803F00302FB695B0002FA03F3D2
:104FD000BA691343BB617B68BA691A603B685B6856
:104FE00003F44033002B00F0B4800023FB60604BDF
:104FF0005B6C5F4A43F4804353645D4B5B6C03F42A
:105000008043FB60FB685B4AFB699B08023352F8F4
:105010002330BB61FB6903F003039B000F2202FAFC
:1050200003F3DB43BA691340BB617B68524A934286
:105030002BD07B68514A934225D07B68504A9342DB
:105040001FD07B684F4A934219D07B684E4A9342E7
:1050500013D07B684D4A93420DD07B684C4A9342F3
:1050600007D07B684B4A934201D107230EE0082307
:105070000CE006230AE0052308E0042306E00323EE
:1050800004E0022302E0012300E00023FA6902F0B9
:10509000030292009340BA691343BB613549FB692F
:1050A0009B080233BA6941F823203B4B9B68BB61E4
:1050B0003B69DB43BA691340BB613B685B6803F43F
:1050C0008013002B03D0BA693B691343BB61324A9A
:1050D000BB699360304BDB68BB613B69DB43BA69FA
:1050E0001340BB613B685B6803F40013002B03D0E3
:1050F000BA693B691343BB61274ABB69D360264B3E
:105100005B68BB613B69DB43BA691340BB613B68C9
:105110005B6803F40033002B03D0BA693B69134387
:10512000BB611D4ABB6953601B4B1B68BB613B697C
:10513000DB43BA691340BB613B685B6803F48033AF
:10514000002B03D0BA693B691343BB61124ABB69A8
:105150001360FB690133FB61FB690F2B7FF690AE97
:1051600000BF00BF2437BD465DF8047B704700BF19
:1051700000380240003801400000024000040240B4
:1051800000080240000C02400010024000140240DF
:1051900000180240001C0240003C014080B483B073
:1051A00000AF78600B467B8013467B707B78002BCA
:1051B00003D07A887B689A6103E07B881A047B6855
:1051C0009A6100BF0C37BD465DF8047B7047000054
:1051D00080B584B000AF78607B68002B01D10123DB
:1051E0002BE17B6893F83D30DBB2002B06D17B6866
:1051F000002283F83C207868FEF774FC7B68242248
:1052000083F83D207B681B681A687B681B6822F066
:1052100001021A607B681B681A687B681B6842F48D
:1052200000421A607B681B681A687B681B6822F45E
:1052300000421A6003F060FCF8607B685B68814A9A
:10524000934207D8FB68804A934294BF012300230E
:10525000DBB206E0FB687D4A934294BF0123002342
:10526000DBB2002B01D00123E7E0FB68784AA2FB08
:1052700003239B0CBB607B681B685B6823F03F01CA
:105280007B681B68BA680A435A607B681B681B6AA4
:1052900023F03F017B685B686A4A934202D8BB688F
:1052A000013309E0BB684FF4967202FB03F3694ACD
:1052B000A2FB03239B0901337A6812680B43136234
:1052C0007B681B68DB6923F44F4222F0FF027B6896
:1052D0005B685C498B4219D8FB68591E7B685B6828
:1052E0005B00B1FBF3F3591C40F6FC730B40002B41
:1052F0000AD0FB68591E7B685B685B00B1FBF3F367
:105300000133C3F30B0351E004234FE07B689B6838
:10531000002B11D1FB68581E7B6859680B465B0057
:105320000B44B0FBF3F30133C3F30B03002B0CBFAF
:1053300001230023DBB212E0FB68581E7B6859682A
:105340000B469B000B4499000B44B0FBF3F3013375
:10535000C3F30B03002B0CBF01230023DBB2002B94
:1053600001D0012322E07B689B68002B0ED1FB68F3
:10537000581E7B6859680B465B000B44B0FBF3F387
:105380000133C3F30B0343F400430FE0FB68581EE3
:105390007B6859680B469B000B4499000B44B0FB9B
:1053A000F3F30133C3F30B0343F440437968096813
:1053B0001343CB617B681B681B6823F0C0017B68CB
:1053C000DA697B681B6A1A437B681B680A431A60A8
:1053D0007B681B689B6823F4034323F0FF037A6810
:1053E00011697A68D26811437A6812680B43936036
:1053F0007B681B68DB6823F0FF017B685A697B6868
:105400009B691A437B681B680A43DA607B681B68E8
:105410001A687B681B6842F001021A607B680022F0
:105420001A647B68202283F83D207B6800221A637F
:105430007B68002283F83E20002318461037BD46C3
:1054400080BD00BFA08601007F841E00FF083D00D4
:1054500083DE1B43D34D621080B588B002AFF86085
:105460007A601A460B467B8113463B81FEF726FF86
:105470007861FB6893F83D30DBB2202B40F0E08090
:105480007B690093192301227049F86801F03CFA06
:105490000346002B01D00223D3E0FB6893F83C3095
:1054A000012B01D10223CCE0FB68012283F83C20D0
:1054B000FB681B681B6803F00103012B07D0FB6826
:1054C0001B681A68FB681B6842F001021A60FB68DF
:1054D0001B681A68FB681B6822F400621A60FB688C
:1054E000212283F83D20FB68102283F83E20FB68D0
:1054F00000221A64FB687A685A62FB683A895A8506
:10550000FB685B8D9AB2FB681A85FB68504ADA62C9
:1055100079897B693A6AF86800F028FF0346002B16
:1055200001D001238DE000233B61FB681B685B69B0
:105530003B61FB681B689B693B613B6966E07A697C
:10554000396AF86801F0FAFA0346002B0DD0FB68BF
:105550001B6C042B07D1FB681B681A68FB681B686F
:1055600042F400721A6001236BE0FB685B6A1A78F0
:10557000FB681B681A61FB685B6A5A1CFB685A620D
:10558000FB685B8D9BB2013B9AB2FB685A85FB6856
:105590001B8D013B9AB2FB681A85FB681B685B692F
:1055A00003F00403042B1BD1FB681B8D002B17D0C9
:1055B000FB685B6A1A78FB681B681A61FB685B6AA8
:1055C0005A1CFB685A62FB685B8D9BB2013B9AB226
:1055D000FB685A85FB681B8D013B9AB2FB681A85F4
:1055E0007A69396AF86801F0F1FA0346002B0DD0A8
:1055F000FB681B6C042B07D1FB681B681A68FB68EF
:105600001B6842F400721A6001231AE0FB681B8DCC
:10561000002B94D1FB681B681A68FB681B6842F476
:1056200000721A60FB68202283F83D20FB6800228C
:1056300083F83E20FB68002283F83C20002300E032
:10564000022318461837BD4680BD00BF0200100077
:105650000000FFFF80B58CB002AFF8607A601A4698
:105660000B467B8113463B81FEF728FE7862FB6880
:1056700093F83D30DBB2202B40F017827B6A009319
:10568000192301227C49F86801F03EF90346002BFA
:1056900001D002230AE2FB6893F83C30012B01D1D0
:1056A000022303E2FB68012283F83C20FB681B68AD
:1056B0001B6803F00103012B07D0FB681B681A6805
:1056C000FB681B6842F001021A60FB681B681A68DD
:1056D000FB681B6822F400621A60FB68222283F8D0
:1056E0003D20FB68102283F83E20FB6800221A64EC
:1056F000FB687A685A62FB683A895A85FB685B8D59
:105700009AB2FB681A85FB685C4ADA6279897B6A1F
:105710003A6BF86800F0ACFE0346002B01D0012381
:10572000C4E1FB681B8D002B13D100233B62FB6897
:105730001B685B693B62FB681B689B693B623B6A59
:10574000FB681B681A68FB681B6842F400721A60E9
:1057500098E1FB681B8D012B1BD1FB681B681A6845
:10576000FB681B6822F480621A600023FB61FB68FF
:105770001B685B69FB61FB681B689B69FB61FB69DC
:10578000FB681B681A68FB681B6842F400721A60A9
:1057900078E1FB681B8D022B1BD1FB681B681A6824
:1057A000FB681B6822F480621A60FB681B681A6839
:1057B000FB681B6842F400621A600023BB61FB684F
:1057C0001B685B69BB61FB681B689B69BB61BB694C
:1057D00058E1FB681B681A68FB681B6842F480622A
:1057E0001A6000237B61FB681B685B697B61FB6857
:1057F0001B689B697B617B6944E1FB681B8D032B04
:1058000000F2F180FB681B8D012B23D17A6A396B82
:10581000F86801F023FA0346002B01D0012345E18B
:10582000FB681B681A69FB685B6AD2B21A70FB6876
:105830005B6A5A1CFB685A62FB681B8D013B9AB27B
:10584000FB681A85FB685B8D9BB2013B9AB2FB68D3
:105850005A8517E1FB681B8D022B4ED17B6A0093A2
:105860003B6B00220649F86801F04EF80346002B16
:1058700008D001231AE100BF020010000000FFFF62
:1058800004000100FB681B681A68FB681B6842F48F
:1058900000721A60FB681B681A69FB685B6AD2B207
:1058A0001A70FB685B6A5A1CFB685A62FB681B8DA6
:1058B000013B9AB2FB681A85FB685B8D9BB2013B8A
:1058C0009AB2FB685A85FB681B681A69FB685B6AB9
:1058D000D2B21A70FB685B6A5A1CFB685A62FB689A
:1058E0001B8D013B9AB2FB681A85FB685B8D9BB2EE
:1058F000013B9AB2FB685A85C4E07B6A00933B6B1C
:1059000000226C49F86800F0FFFF0346002B01D02D
:105910000123CBE0FB681B681A68FB681B6822F454
:1059200080621A60FB681B681A69FB685B6AD2B206
:105930001A70FB685B6A5A1CFB685A62FB681B8D15
:10594000013B9AB2FB681A85FB685B8D9BB2013BF9
:105950009AB2FB685A857B6A00933B6B00225549DB
:10596000F86800F0D1FF0346002B01D001239DE031
:10597000FB681B681A68FB681B6842F400721A60B7
:10598000FB681B681A69FB685B6AD2B21A70FB6815
:105990005B6A5A1CFB685A62FB681B8D013B9AB21A
:1059A000FB681A85FB685B8D9BB2013B9AB2FB6872
:1059B0005A85FB681B681A69FB685B6AD2B21A7069
:1059C000FB685B6A5A1CFB685A62FB681B8D013BD3
:1059D0009AB2FB681A85FB685B8D9BB2013B9AB259
:1059E000FB685A854EE07A6A396BF86801F036F93F
:1059F0000346002B01D0012358E0FB681B681A699D
:105A0000FB685B6AD2B21A70FB685B6A5A1CFB685F
:105A10005A62FB681B8D013B9AB2FB681A85FB68D2
:105A20005B8D9BB2013B9AB2FB685A85FB681B6891
:105A30005B6903F00403042B24D1FB681B8D032B4B
:105A400007D1FB681B681A68FB681B6822F4806238
:105A50001A60FB681B681A69FB685B6AD2B21A702D
:105A6000FB685B6A5A1CFB685A62FB681B8D013B32
:105A70009AB2FB681A85FB685B8D9BB2013B9AB2B8
:105A8000FB685A85FB681B8D002B7FF4B6AEFB6864
:105A9000202283F83D20FB68002283F83E20FB682B
:105AA000002283F83C20002300E002231846283718
:105AB000BD4680BD0400010080B588B002AFF8602B
:105AC000084611461A4603467B810B463B81134626
:105AD000FB80FEF7F3FB7861FB6893F83D30DBB2A7
