:020000040800F2
:1000000000000220311A0008F91700080118000842
:10001000091800081118000819180008000000004D
:10002000000000000000000000000000211800088F
:100030002F180008000000003D1800084B180008A9
:10004000811A0008811A0008811A0008811A000824
:10005000811A0008811A0008811A0008811A000814
:10006000811A0008811A0008811A0008811A000804
:10007000811A0008811A0008811A0008811A0008F4
:10008000811A0008811A0008811A0008811A0008E4
:10009000811A0008811A0008811A0008811A0008D4
:1000A000811A0008811A0008811A0008811A0008C4
:1000B000811A0008811A0008811A0008811A0008B4
:1000C000811A0008811A0008811A0008811A0008A4
:1000D000811A0008811A000859180008811A0008BE
:1000E000811A0008811A0008811A0008811A000884
:1000F000811A0008811A0008811A0008811A000874
:10010000811A0008811A0008811A0008811A000863
:10011000811A0008811A0008811A0008811A000853
:10012000811A0008811A0008811A0008811A000843
:10013000811A0008811A0008811A0008811A000833
:10014000811A0008811A0008811A00086D18000839
:10015000811A0008811A0008811A0008811A000813
:10016000811A0008811A0008811A0008811A000803
:10017000811A0008811A0008811A00080000000096
:08018000811A0008811A000831
:1001900010B5054C237833B9044B13B10448AFF3C1
:1001A00000800123237010BD5C01002000000000CE
:1001B000ACC3000808B5034B1BB103490348AFF3B8
:1001C000008008BD0000000060010020ACC30008F2
:1001D00010F8012B11F8013B012A28BF9A42F7D0F1
:1001E000D01A7047034613F8012B002AFBD1181AC6
:1001F000013870470000000000000000000000000F
:1002000001F0FF01102A2BDB10F0070F08D010F8C7
:10021000013B013A8B422DD010F0070F42B3F6D1CB
:10022000F0B441EA012141EA014122F007047FF0E4
:1002300000070023F0E80256083C85EA010586EA3B
:10024000010685FA47F5A3FA87F586FA47F6A5FA77
:1002500087F68EB9EED1F0BC01F0FF0102F0070283
:1002600032B110F8013B013A83EA010313B1F8D12E
:100270000020704701387047002D06BF354603380F
:10028000073815F0010F07D1013015F4807F02BF48
:10029000013015F4C03F0130F0BC0138704700BF99
:1002A00081F0004102E000BF83F0004330B54FEA27
:1002B00041044FEA430594EA050F08BF90EA020F94
:1002C0001FBF54EA000C55EA020C7FEA645C7FEA27
:1002D000655C00F0E2804FEA5454D4EB5555B8BF4A
:1002E0006D420CDD2C4480EA020281EA030382EABB
:1002F000000083EA010180EA020281EA0303362D4D
:1003000088BF30BD11F0004F4FEA01314FF4801C1F
:100310004CEA113102D0404261EB410113F0004F31
:100320004FEA03334CEA133302D0524263EB4303E8
:1003300094EA050F00F0A780A4F10104D5F1200E86
:100340000DDB02FA0EFC22FA05F2801841F10001E1
:1003500003FA0EF2801843FA05F359410EE0A5F1B5
:1003600020050EF1200E012A03FA0EFC28BF4CF0E6
:10037000020C43FA05F3C01851EBE37101F000459C
:1003800007D54FF0000EDCF1000C7EEB00006EEBA9
:100390000101B1F5801F1BD3B1F5001F0CD3490833
:1003A0005FEA30004FEA3C0C04F101044FEA44528A
:1003B00012F5800F80F09A80BCF1004F08BF5FEA11
:1003C000500C50F1000041EB045141EA050130BDF1
:1003D0005FEA4C0C404141EB0101013C28BFB1F503
:1003E000801FE9D291F0000F04BF01460020B1FA4E
:1003F00081F308BF2033A3F10B03B3F120020CDA21
:100400000C3208DD02F1140CC2F10C0201FA0CF0FE
:1004100021FA02F10CE002F11402D8BFC2F1200C63
:1004200001FA02F120FA0CFCDCBF41EA0C01904019
:10043000E41AA2BF01EB0451294330BD6FEA040462
:100440001F3C1CDA0C340EDC04F11404C4F120024D
:1004500020FA04F001FA02F340EA030021FA04F35F
:1004600045EA030130BDC4F10C04C4F1200220FAB6
:1004700002F001FA04F340EA0300294630BD21FAF4
:1004800004F0294630BD94F0000F83F4801306BFBA
:1004900081F480110134013D4EE77FEA645C18BFAE
:1004A0007FEA655C29D094EA050F08BF90EA020F45
:1004B00005D054EA000C04BF1946104630BD91EA3D
:1004C000030F1EBF0021002030BD5FEA545C05D140
:1004D0004000494128BF41F0004130BD14F580047F
:1004E0003CBF01F5801130BD01F0004545F0FE41F3
:1004F00041F470014FF0000030BD7FEA645C1ABF28
:10050000194610467FEA655C1CBF0B46024650EA5E
:10051000013406BF52EA033591EA030F41F400218A
:1005200030BD00BF90F0000F04BF0021704730B510
:100530004FF4806404F132044FF000054FF00001E5
:1005400050E700BF90F0000F04BF0021704730B5A6
:100550004FF4806404F1320410F0004548BF40427B
:100560004FF000013EE700BF42004FEAE2014FEAD0
:1005700031014FEA02701FBF12F07F4393F07F4FAB
:1005800081F06051704732F07F4208BF704793F0AE
:100590007F4F04BF41F40021704730B54FF46074C1
:1005A00001F0004521F000411CE700BF50EA0102C4
:1005B00008BF704730B54FF000050AE050EA01026D
:1005C00008BF704730B511F0004502D5404261EBDD
:1005D00041014FF4806404F132045FEA915C3FF41E
:1005E000D8AE4FF003025FEADC0C18BF03325FEABB
:1005F000DC0C18BF033202EBDC02C2F1200300FA6C
:1006000003FC20FA02F001FA03FE40EA0E0021FA90
:1006100002F11444BDE600BF53B94AB9002908BF2E
:1006200000281CBF4FF0FF314FF0FF3000F088B9B9
:10063000ADF1080C6DE904CE00F006F8DDF804E039
:10064000DDE9022304B070472DE9F047089D8E468E
:1006500004468846002B4AD18A42174662D9B2FA2C
:1006600082F64EB1C6F1200301FA06F820FA03F330
:10067000B74043EA0808B4404FEA174E1FFA87FC18
:10068000B8FBFEF1230C0EFB118843EA084301FB83
:100690000CF29A4209D9FB1801F1FF3080F0EA8090
:1006A0009A4240F2E78002393B449A1AA3B2B2FB65
:1006B000FEF00EFB102243EA024300FB0CFC9C45BB
:1006C00009D9FB1800F1FF3280F0D6809C4540F23A
:1006D000D3803B44023840EA0140A3EB0C030021E5
:1006E0001DB1F3400022C5E90032BDE8F0878B421E
:1006F00005D90DB1C5E9000100210846F5E7B3FAB7
:1007000083F1002946D1734502D3824200F205816C
:10071000841A6EEB030201209046002DE5D0C5E956
:100720000048E2E7002A00F09080B2FA82F6002E3C
:1007300040F0A4808A1A030C4FEA174E80B2BCB274
:100740000121B2FBFEFC0EFB1C2243EA024304FB28
:100750000CF29A4207D9FB180CF1FF3802D29A42E8
:1007600000F2E080C4469B1AB3FBFEF20EFB12338C
:1007700040EA034302FB04F49C4207D9FB1802F150
:10078000FF3002D29C4200F2CA8002461B1B42EAA2
:100790000C40A5E7C1F120068B4022FA06F71F4363
:1007A0000EFA01F420FA06F32EFA06FE4FEA174974
:1007B000234300FA01F81FFA87FCBEFBF9F01C0C7A
:1007C00009FB10EE44EA0E4400FB0CFEA64502FABB
:1007D00001F209D93C1900F1FF3A80F09C80A6454E
:1007E00040F2998002383C44A4EB0E041FFA83FEC9
:1007F000B4FBF9F309FB13444EEA044403FB0CFC7D
:10080000A44508D93C1903F1FF3E80F08280A4453D
:100810007FD9023B3C4443EA0040A4EB0C04A0FB1C
:1008200002EC64457346E14662D35FD05DB1B8EB3C
:10083000030264EB090404FA06F622FA01F31E43EC
:10084000CC40C5E9006400214FE7B1FBF2FC010C8C
:1008500041EA0E4180B240EA01423B4638463C46FE
:10086000B846BE462026B1FBF7F1A2EB080241EAEA
:100870000C4166E7014618E710462CE7C6F1200256
:100880002EFA02F3B740B14020FA02F24FEA174EB7
:100890000A43B3FBFEF8BCB20EFB1833110C41EA5D
:1008A000034108FB04F9B04089454FEA104380B288
:1008B0003ED9791808F1FF3C01D289451FD8A1EB38
:1008C0000901B1FBFEF909FB04F80EFB191192B204
:1008D00042EA0142424529D2BA1809F1FF31C4D295
:1008E0004245C2D2A9F102013A44BEE7F0459DD289
:1008F000BEEB02036CEB070C0138E14696E7A7EB71
:1009000009094944A8F1020CB1FBFEF909FB04F8FE
:10091000DBE773467FE7504666E70846FDE63B4463
:10092000023A33E7ACF1020C3B441CE749469CE732
:10093000A1EB0901C446B1FBFEF909FB04F8C4E7C9
:10094000704700BF2DE9F04FEDB010AF01F09AF8FD
:1009500000F0C6FA00F036FC09F018FE00F008FCC2
:1009600000F0A8FB00F078FB00F024FB1822002127
:10097000A3480AF0CCFCA24B0022DA60A04B002274
:100980001A7501F0E5F8034618460AF019FB9D4870
:1009900000F09CFC9C4800F099FC642001F0E4F815
:1009A0000023C7F86431012387F8633123E097F807
:1009B00063319BB25B0099B20A230122934802F093
:1009C000C1FC0346002B11D197F8633107F14C00AD
:1009D0008F4A32210AF022FC07F14C03184600F03E
:1009E00075FCD7F864310133C7F8643197F8633187
:1009F000013387F8633197F96331002BD7DAD7F8E1
:100A00006431002B02D1834800F060FC642001F0C7
:100A1000ABF8002387F85331642302930123019339
:100A200007F253130093012300225021774802F06C
:100A300057FA0346002B79D197F85331A02B75D183
:100A4000754B28221A70754800F040FC002387F887
:100A50005231714B1B785B0099B2642302930123DE
:100A6000019307F5A973009301233D22674802F023
:100A70003DF9192001F078F80C2387F85131664BC5
:100A80001B785B0099B2642302930123019307F260
:100A90005113009301233D225C4802F027F96420A2
:100AA00001F062F8002387F850315B4B1B785B0044
:100AB00099B2642302930123019307F5A87300936D
:100AC00001233D22514802F00BFA97F8503107F10B
:100AD0001800534A32210AF0A1FB07F11803184607
:100AE00000F0F4FB002387F84F314B4B1B785B0081
:100AF00099B2642302930123019307F24F130093E9
:100B000001233522414802F0EBF997F84F3107F104
:100B10004C00444A32210AF081FB07F14C0318468D
:100B200000F0D4FB404800F0D1FB86E06423029340
:100B30000123019307F25313009301230022522152
:100B4000324802F0CDF90346002B73D197F85331A8
:100B5000A02B6FD1304B29221A70344800F0B6FB1D
:100B6000002387F84E312C4B1B785B0099B264232D
:100B700002930123019307F5A773009301233D22FC
:100B8000224802F0B3F8192000F0EEFF0C2387F89A
:100B90004D31214B1B785B0099B2642302930123F2
:100BA000019307F24D13009301233D22174802F0F1
:100BB0009DF8642000F0D8FF002387F84C31164BD5
:100BC0001B785B0099B2642302930123019307F51C
:100BD000A673009301233D220C4802F081F997F897
:100BE0004C3107F14C000E4A32210AF017FB07F195
:100BF0004C03184600F06AFB0D4800F067FB1CE050
:100C0000A4020020C4C30008E4C30008C0010020FF
:100C1000FCC300081CC400080000002048C40008F1
:100C200068C4000880C4000898C40008B0C4000864
:100C3000D0C40008974800F049FB00F089FFC7F8CE
:100C40005C01954B1B68D7F85C21D31A4FF47A727C
:100C50009342F2D3904AD7F85C3113608F4B1B78E4
:100C60005B0099B264230293062301938C4B00939B
:100C700001231A228B4802F033F9034687F85B31CF
:100C800097F85B31002B67D1854B5B781BB21B0259
:100C90001AB2834B1B781BB213431AB2824B1A80D1
:100CA0007F4BDB781BB21B021AB27D4B9B781BB2C9
:100CB00013431AB27D4B1A80794B5B791BB21B022E
:100CC0001AB2774B1B791BB213431AB2784B1A80B6
:100CD000754BB3F9003007EE903AB8EEE77AF3EED1
:100CE000006AC7EE267A734BC3ED007A6F4BB3F9F7
:100CF000003007EE903AB8EEE77AF3EE006AC7EEFE
:100D0000267A6D4BC3ED007A694BB3F9003007EEDC
:100D1000903AB8EEE77AF3EE006AC7EE267A674BB0
:100D2000C3ED007A624BB3F9003019465F4BB3F95B
:100D300000301A465C4BB3F9003007F14C000193C8
:100D400000920B465E4A64210AF068FA07F14C03F0
:100D5000184600F0BBFA0BE05A4B1B68022B07DC6D
:100D6000594800F0B3FA574B1B680133554A1360DA
:100D7000564800F061FF0A21544801F062F803462A
:100D8000002B10D1514801F0E7F8C7F86C01D7F8F3
:100D90006C3107EE903AF8EE677A9FED4D7A67EE88
:100DA000877AC7ED5A7A494801F018F8494800F0A7
:100DB0009FFA0AF033F90146474B83FB0132CB1708
:100DC000D21A13465B001344CA1A424BDA600AF087
:100DD00025F90346002B03F00103B8BF5B423D4AEF
:100DE00013613C4B1B681846FFF7BEFB80468946E3
:100DF000384B5B681846FFF7B7FB82468B46D7F83F
:100E00006801FFF7B1FBC7E90401324BDB68FB6007
:100E1000304B1A69BA60294B1B681846FFF7A4FBD0
:100E2000C7E90001244B1B681846FFF79DFB0446E9
:100E30000D46204B1B681846FFF796FB07F14C0642
:100E4000D7F86C310E93CDE90C01CDE90A4597ED49
:100E5000007B8DED087BBA680792FB68069397EDDF
:100E6000047B8DED047BCDE902ABCDE900891B4A03
:100E70004FF4807130460AF0D1F9C7F8540107F1F8
:100E80004C03184600F022FA4FF47A7000F06CFE22
:100E9000D3E600BFF0C40008BC0200200000002020
:100EA000C0020020C0010020CA020020C8020020A9
:100EB000C6020020D4020020D0020020CC02002074
:100EC0001CC500082003002034C50008780100205C
:100ED0006740533AA40200205655555548C50008AE
:100EE00080B594B000AF07F12003302200211846EE
:100EF0000AF00DFA07F10C0300221A605A609A609A
:100F0000DA601A610023BB60284B1B6C274A43F050
:100F100080531364254B1B6C03F08053BB60BB688C
:100F200000237B60224B1B68214A43F480431360FB
:100F30001F4B1B6803F480437B607B6801233B628B
:100F40004FF480337B620223BB634FF48003FB6367
:100F500019233B644FF4A8737B640223BB6407230B
:100F6000FB6407F12003184604F020F90346002B28
:100F700001D000F0F7FA0F23FB6002233B6100234E
:100F80007B614FF4A053BB614FF48053FB6107F1C9
:100F90000C030521184604F081FB0346002B01D009
:100FA00000F0E0FA00BF5037BD4680BD0038024077
:100FB0000070004080B584B000AF3B4600221A604C
:100FC0005A609A60DA60214B214A1A601F4B4FF435
:100FD00080325A601D4B00229A601C4B00221A611D
:100FE0001A4B00221A76194B002283F82020174B47
:100FF0000022DA62154B174A9A62144B0022DA601B
:10100000124B0122DA61114B002283F830200F4B82
:1010100001225A610D4800F0CBFD0346002B01D0A0
:1010200000F0A0FA00233B6001237B600023BB603B
:101030003B461946054800F09DFF0346002B01D0B2
:1010400000F090FA00BF1037BD4680BD7801002047
:10105000002001400100000F80B500AF124B134A81
:101060001A60114B124A5A600F4B00229A600E4BC5
:101070000022DA600C4B4FF480421A610A4B0022C6
:101080005A61094B00229A61074B0022DA61064B34
:1010900000221A62044801F0E5FC0346002B01D04F
:1010A00000F060FA00BF80BDC00100200054004085
:1010B000A086010080B588B000AF00237B602A4B7A
:1010C0001B6C294A43F001031364274B1B6C03F08C
:1010D00001037B607B6807F1100300221A605A60ED
:1010E0009A60DA6007F1080300221A605A601F4B09
:1010F0004FF080421A601D4BA7225A601B4B002202
:101100009A601A4B4FF6FF72DA60184B00221A6190
:10111000164B00229A61154804F0A0FC0346002BF0
:1011200001D000F01FFA4FF480533B6107F1100328
:1011300019460E4804F0E1FC0346002B01D000F0F4
:1011400011FA0023BB600023FB6007F10803194676
:10115000064804F0D9FE0346002B01D000F002FA45
:1011600000BF2037BD4680BD003802401402002079
:1011700080B500AF114B124A1A60104B4FF4165253
:101180005A600E4B00229A600C4B0022DA600B4B27
:1011900000221A61094B0C225A61084B00229A6105
:1011A000064B0022DA61054804F02AFF0346002BB3
:1011B00001D000F0D7F900BF80BD00BF5C02002065
:1011C0000044004080B58AB000AF07F1140300224C
:1011D0001A605A609A60DA601A6100233B61394BE9
:1011E0001B6B384A43F080031363364B1B6B03F0D1
:1011F00080033B613B690023FB60324B1B6B314A30
:1012000043F0010313632F4B1B6B03F00103FB60DF
:10121000FB680023BB602B4B1B6B2A4A43F008037F
:101220001363284B1B6B03F00803BB60BB680023F0
:101230007B60244B1B6B234A43F002031363214B57
:101240001B6B03F002037B607B6802237B6100233E
:10125000BB610023FB6107F1140319461A4801F032
:101260004BFA01237B610123BB610023FB61002357
:101270003B6207F114031946134801F03DFA0223BB
:101280007B610023BB610023FB6107F11403194656
:101290000D4801F031FAC0237B610123BB610023BB
:1012A000FB6100233B6207F114031946064801F075
:1012B00023FA0122C021044801F0BAFB00BF2837FD
:1012C000BD4680BD003802400000024080B582B0BB
:1012D00000AF78607868FEF785FF03469BB2194639
:1012E000786809F011FA00BF0837BD4680BD0000DC
:1012F00080B584B000AF786009F090FE0346464A9E
:1013000082FB03125110DA178A1AC92101FB02F27B
:101310009A1A07EE902AB8EEE77ADFED406AC7EE38
:10132000267AB2EE067A77EE877A7B68C3ED007A8A
:1013300009F074FE02463A4B83FB02131344591121
:10134000D317C91A0B465B000B4419010B44D11A81
:1013500007EE901AB8EEE77ADFED306AC7EE267A2C
:10136000C7ED037A2F4B1B78002B1AD07B6893EDC7
:10137000017AD7ED037A77EE277A7B68C3ED017A9D
:101380007B68D3ED017A9FED287AF4EEC77AF1EE0F
:1013900010FA1FDB7B68254A5A60224B00221A7024
:1013A00018E07B6893ED017AD7ED037A77EE677AE0
:1013B0007B68C3ED017A7B68D3ED017AF5EEC07AE4
:1013C000F1EE10FA06D87B684FF000025A60154B18
:1013D00001221A7009F022FE0346154A82FB03120D
:1013E0009112DA178A1A40F6C51101FB02F29A1A15
:1013F00007EE902AB8EEE77ADFED086AC7EE267AA4
:101400009FED0C7A77EE877A7B68C3ED027A00BF96
:101410001037BD4680BD00BF79198C020000C8425C
:10142000A1A0A0A001000020000048420000484206
:10143000FFCFD06800008C4280B582B000AF7860EA
:101440000B467B807B88002B07D07B883F2B04D802
:101450007B887A68134400221A7017497868FEF76F
:10146000B7FE0346002B06D1144B01221A7514480F
:10147000FFF72CFF1BE013497868FEF7A9FE03462F
:10148000002B06D10D4B00221A750F48FFF71EFFE7
:101490000DE00E497868FEF79BFE0346002B03D152
:1014A0000B48FFF713FF02E00A48FFF70FFF00BFEA
:1014B0000837BD4680BD00BF98C50008A4020020C3
:1014C000A8C50008C0C50008D0C50008E8C50008C8
:1014D000F8C500080CC6000880B582B000AF78607F
:1014E0007B681A681B4B1B689A422ED11A4B1B78DB
:1014F0000A2B03D0184B1B780D2B12D1174B1B88CE
:10150000002B1DD0154B1B8819461548FFF794FF7B
:10151000124B00221A8040220021114809F0F7FEE8
:101520000EE00E4B1B883E2B0AD80C4B1B885A1C16
:1015300091B20A4A11801A46074B1978084B995400
:1015400001220549034804F0ABFD00BF0837BD4642
:1015500080BD00BF5C020020D80200201C030020D8
:10156000DC02002080B400AF72B600BF00BFFDE710
:1015700080B483B000AF00237B60104B5B6C0F4ADC
:1015800043F4804353640D4B5B6C03F480437B60F6
:101590007B6800233B60094B1B6C084A43F0805377
:1015A0001364064B1B6C03F080533B603B6800BF29
:1015B0000C37BD465DF8047B704700BF0038024021
:1015C00080B58AB000AF786007F1140300221A607A
:1015D0005A609A60DA601A617B681B68174A934206
:1015E00027D100233B61164B5B6C154A43F4807393
:1015F0005364134B5B6C03F480733B613B690023C2
:10160000FB600F4B1B6B0E4A43F0010313630C4B43
:101610001B6B03F00103FB60FB6801237B61032369
:10162000BB610023FB6107F114031946054801F073
:1016300063F800BF2837BD4680BD00BF00200140D1
:10164000003802400000024080B58AB000AF7860E8
:1016500007F1140300221A605A609A60DA601A6176
:101660007B681B68194A93422BD100233B61184BBE
:101670001B6B174A43F002031363154B1B6B03F0FC
:1016800002033B613B69C0237B611223BB610023E2
:10169000FB6103233B6204237B6207F114031946B9
:1016A0000C4801F029F80023FB60094B1B6C084A29
:1016B00043F400131364064B1B6C03F40013FB602C
:1016C000FB6800BF2837BD4680BD00BF0054004006
:1016D000003802400004024080B485B000AF78605A
:1016E0007B681B68B3F1804F0DD10023FB60094B71
:1016F0001B6C084A43F001031364064B1B6C03F098
:101700000103FB60FB6800BF1437BD465DF8047B36
:10171000704700BF0038024080B58AB000AF7860E3
:1017200007F1140300221A605A609A60DA601A61A5
:101730007B681B682C4A934251D100233B612B4BA1
:101740001B6C2A4A43F400331364284B1B6C03F4CC
:1017500000333B613B690023FB60244B1B6B234A36
:1017600043F001031363214B1B6B03F00103FB6088
:10177000FB680023BB601D4B1B6B1C4A43F0080336
:1017800013631A4B1B6B03F00803BB60BB68042395
:101790007B610223BB610023FB6103233B620723C0
:1017A0007B6207F114031946114800F0A5FF40239E
:1017B0007B610223BB610023FB6103233B620723A0
:1017C0007B6207F1140319460A4800F095FF0022D6
:1017D0000021262000F0C7FE262000F0E0FE00BF1A
:1017E0002837BD4680BD00BF00440040003802409D
:1017F00000000240000C024080B400AF00BFFDE7D3
:1018000080B400AF00BFFDE780B400AF00BFFDE7CC
:1018100080B400AF00BFFDE780B400AF00BFFDE7BC
:1018200080B400AF00BFBD465DF8047B704780B454
:1018300000AF00BFBD465DF8047B704780B400AFC9
:1018400000BFBD465DF8047B704780B500AF00F077
:101850006BF900BF80BD000080B500AF024804F006
:1018600045FC00BF80BD00BF5C02002080B500AF1A
:10187000024802F08DFB00BF80BD00BF0C180020A5
:1018800080B400AF01231846BD465DF8047B704765
:1018900080B582B000AF7860396009F087FD0346FB
:1018A00016221A604FF0FF3318460837BD4680BD38
:1018B00080B582B000AF78604FF0FF317868FFF7F5
:1018C000E7FF00BFFDE780B586B000AFF860B96004
:1018D0007A6000237B610AE0AFF300800146BB68B9
:1018E0005A1CBA60CAB21A707B6901337B617A698B
:1018F0007B689A42F0DB7B6818461837BD4680BD8E
:1019000080B586B000AFF860B9607A6000237B6173
:1019100009E0BB685A1CBA601B781846AFF3008018
:101920007B6901337B617A697B689A42F1DB7B6872
:1019300018461837BD4680BD80B483B000AF7860CC
:101940004FF0FF3318460C37BD465DF8047B7047F7
:1019500080B483B000AF786039603B684FF40052C8
:101960005A60002318460C37BD465DF8047B70476B
:1019700080B483B000AF7860012318460C37BD46B1
:101980005DF8047B704780B485B000AFF860B96043
:101990007A60002318461437BD465DF8047B704713
:1019A00080B586B000AF7860144A154BD31A7B61BE
:1019B0007B693B61134B1B68002B02D1114B124A10
:1019C0001A60104B1A687B6813443A699A4207D22E
:1019D00009F0ECFC03460C221A604FF0FF3309E0DB
:1019E000084B1B68FB60074B1A687B681344054A69
:1019F0001360FB6818461837BD4680BD0000022002
:101A000000040000240300206020002080B400AF08
:101A1000064BD3F88830054A43F47003C2F8883087
:101A200000BFBD465DF8047B704700BF00ED00E0DD
:101A3000DFF834D0FFF7EAFF0C480D490D4A0023C8
:101A400002E0D458C4500433C4188C42F9D30A4A73
:101A50000A4C002301E013600432A242FBD309F0D8
:101A6000ABFCFEF76FFF7047000002200000002073
:101A70005C01002074C700085C0100205C2000208D
:101A8000FEE7000080B500AF0E4B1B680D4A43F423
:101A9000007313600B4B1B680A4A43F480631360A6
:101AA000084B1B68074A43F480731360032000F05F
:101AB0004FFD0F2000F008F8FFF75AFD00231846ED
:101AC00080BD00BF003C024080B582B000AF7860AE
:101AD000124B1A68124B1B7819464FF47A73B3FBFA
:101AE000F1F3B2FBF3F3184600F067FD0346002B59
:101AF00001D001230EE07B680F2B0AD80022796801
:101B00004FF0FF3000F02FFD064A7B681360002382
:101B100000E0012318460837BD4680BD04000020C0
:101B20000C0000200800002080B400AF064B1B789A
:101B30001A46064B1B681344044A136000BFBD4697
:101B40005DF8047B704700BF0C00002028030020D4
:101B500080B400AF034B1B681846BD465DF8047B9C
:101B6000704700BF2803002080B584B000AF7860C4
:101B7000FFF7EEFFB8607B68FB60FB68B3F1FF3FE7
:101B800005D00A4B1B781A46FB681344FB6000BF64
:101B9000FFF7DEFF0246BB68D31AFA689A42F7D80D
:101BA00000BF00BF1037BD4680BD00BF0C00002045
:101BB00080B584B000AF78600023FB737B68002B96
:101BC00001D1012333E07B681B6C002B09D17868BD
:101BD000FFF7F6FC7B6800225A647B68002283F8DA
:101BE0003C207B681B6C03F01003002B18D17B6832
:101BF0001B6C23F4885323F0020343F002027B683A
:101C00001A64786800F0D8FA7B6800225A647B680E
:101C10001B6C23F0030343F001027B681A6401E0AC
:101C20000123FB737B68002283F83C20FB7B184672
:101C30001037BD4680BD000080B485B000AF78602D
:101C40000023BB607B6893F83C30012B01D1022359
:101C5000B2E07B68012283F83C207B681B689B68AC
:101C600003F00103012B18D07B681B689A687B681E
:101C70001B6842F001029A60524B1B68524AA2FB59
:101C800003239A0C13465B001344BB6002E0BB685D
:101C9000013BBB60BB68002BF9D17B681B689B686C
:101CA00003F00103012B7AD17B681B6C23F4E06302
:101CB00023F0010343F480727B681A647B681B681D
:101CC0005B6803F48063002B07D07B681B6C23F4F4
:101CD000405343F480527B681A647B681B6C03F4A6
:101CE0008053B3F5805F06D17B685B6C23F00602FE
:101CF0007B685A6402E07B6800225A647B68002299
:101D000083F83C20314BFB607B681B686FF022023C
:101D10001A60FB685B6803F01F03002B2AD17B6805
:101D20001B682B4A934215D07B681B68294A934253
:101D300005D1264B5B6803F01F03002B0AD07B689C
:101D40001B68254A934236D1204B5B6803F0100391
:101D5000002B30D17B681B689B6803F04053002B3D
:101D600029D17B681B689A687B681B6842F08042B7
:101D70009A6020E07B681B68154A93421BD17B6800
:101D80001B689B6803F04053002B14D17B681B68D1
:101D90009A687B681B6842F080429A600BE07B681F
:101DA0001B6C43F010027B681A647B685B6C43F029
:101DB00001027B685A64002318461437BD465DF85B
:101DC000047B70470400002083DE1B430023014096
:101DD00000200140002101400022014080B483B076
:101DE00000AF78607B6893F83C30012B01D102236F
:101DF00021E07B68012283F83C207B681B689A689D
:101E00007B681B6822F001029A607B681B689B68F4
:101E100003F00103002B09D17B681B6C23F488536A
:101E200023F0010343F001027B681A647B680022FF
:101E300083F83C20002318460C37BD465DF8047B30
:101E4000704780B584B000AF786039600023FB60D4
:101E50007B681B689B6803F48063B3F5806F13D1C4
:101E60007B681B689B6803F48073B3F5807F0BD19C
:101E70007B681B6C43F020027B681A647B6800223D
:101E800083F83C20012363E0FFF762FEF86021E065
:101E90003B68B3F1FF3F1DD03B68002B07D0FFF735
:101EA00057FE0246FB68D31A3A689A4212D27B6800
:101EB0001B681B6803F00203022B0BD07B681B6CB2
:101EC00043F004027B681A647B68002283F83C209C
:101ED00003233DE07B681B681B6803F00203022BB1
:101EE000D6D17B681B686FF012021A607B681B6C8E
:101EF00043F400727B681A647B681B689B6803F07C
:101F00004053002B23D17B681B7E002B1FD17B68A5
:101F10001B68DB6A03F47003002B06D07B681B6828
:101F20009B6803F48063002B11D17B681B6C23F446
:101F300080727B681A647B681B6C03F48053002BEF
:101F400005D17B681B6C43F001027B681A64002397
:101F500018461037BD4680BD80B483B000AF7860AE
:101F60007B681B68DB6C18460C37BD465DF8047B4C
:101F70007047000080B485B000AF786039600023FE
:101F8000BB607B6893F83C30012B01D1022305E153
:101F90007B68012283F83C203B681B68092B25D90C
:101FA0007B681B68D9683B681B689BB21A4613465E
:101FB0005B0013441E3B072202FA03F3DA437B68FB
:101FC0001B680A40DA607B681B68D9683B689A68BE
:101FD0003B681B689BB2184603465B0003441E3BEC
:101FE0009A407B681B680A43DA6022E07B681B68C2
:101FF00019693B681B689BB21A4613465B00134481
:10200000072202FA03F3DA437B681B680A401A616D
:102010007B681B6819693B689A683B681B689BB2C0
:10202000184603465B0003449A407B681B680A43DA
:102030001A613B685B68062B24D87B681B68596B68
:102040003B685A6813469B001344053B1F2202FA63
:1020500003F3DA437B681B680A405A637B681B689A
:10206000596B3B681B689BB218463B685A6813461D
:102070009B001344053B00FA03F27B681B680A438C
:102080005A634CE03B685B680C2B24D87B681B6868
:10209000196B3B685A6813469B001344233B1F226D
:1020A00002FA03F3DA437B681B680A401A637B6811
:1020B0001B68196B3B681B689BB218463B685A68E3
:1020C00013469B001344233B00FA03F27B681B6812
:1020D0000A431A6323E07B681B68D96A3B685A6825
:1020E00013469B001344413B1F2202FA03F3DA43D9
:1020F0007B681B680A40DA627B681B68D96A3B68A8
:102100001B689BB218463B685A6813469B001344F1
:10211000413B00FA03F27B681B680A43DA62224BF8
:10212000FB607B681B68214A934209D13B681B68AE
:10213000122B05D1FB685B6843F48002FB685A6090
:102140007B681B68194A934223D13B681B68102B9C
:1021500003D03B681B68112B1BD1FB685B6843F401
:102160000002FB685A603B681B68102B11D1104BB2
:102170001B68104AA2FB03239A0C13469B001344CE
:102180005B00BB6002E0BB68013BBB60BB68002B2F
:10219000F9D17B68002283F83C20002318461437CD
:1021A000BD465DF8047B70470023014000200140DC
:1021B0000400002083DE1B4380B485B000AF78604C
:1021C000794BFB60FB685B6823F44032FB685A6024
:1021D000FB685A687B685B681A43FB685A607B68D7
:1021E0001B685A687B681B6822F480725A607B689F
:1021F0001B6859687B681B691A027B681B680A4365
:102200005A607B681B685A687B681B6822F04072C2
:102210005A607B681B6859687B689A687B681B6892
:102220000A435A607B681B689A687B681B6822F4C3
:1022300000629A607B681B6899687B68DA687B68D3
:102240001B680A439A607B689B6A584A934222D073
:102250007B681B689A687B681B6822F070629A60D2
:102260007B681B6899687B689A6A7B681B680A436D
:102270009A607B681B689A687B681B6822F04052F2
:102280009A607B681B6899687B68DA6A7B681B6860
:102290000A439A600FE07B681B689A687B681B683A
:1022A00022F070629A607B681B689A687B681B6882
:1022B00022F040529A607B681B689A687B681B68B2
:1022C00022F002029A607B681B6899687B681B7E1B
:1022D0005A007B681B680A439A607B6893F8203039
:1022E000002B1BD07B681B685A687B681B6842F414
:1022F00000625A607B681B685A687B681B6822F41E
:1023000060425A607B681B6859687B685B6A013B66
:102310005A037B681B680A435A6007E07B681B68A6
:102320005A687B681B6822F400625A607B681B68ED
:10233000DA6A7B681B6822F47002DA627B681B68C9
:10234000D96A7B68DB69013B1A057B681B680A4315
:10235000DA627B681B689A687B681B6822F40072EB
:102360009A607B681B6899687B6893F830305A02E2
:102370007B681B680A439A607B681B689A687B6865
:102380001B6822F480629A607B681B6899687B688E
:102390005B699A027B681B680A439A6000BF143726
:1023A000BD465DF8047B7047002301400100000F2B
:1023B00080B485B000AF78607B6803F00703FB60F2
:1023C0000C4BDB68BB60BA684FF6FF031340BB6081
:1023D000FB681A02BB68134343F0BF6343F4003346
:1023E000BB60044ABB68D36000BF1437BD465DF8CC
:1023F000047B704700ED00E080B400AF044BDB6865
:102400001B0A03F007031846BD465DF8047B7047BE
:1024100000ED00E080B483B000AF0346FB7197F994
:102420000730002B0BDBFB7903F01F02074997F9FC
:1024300007305B09012000FA02F241F8232000BFB7
:102440000C37BD465DF8047B704700BF00E100E03B
:1024500080B483B000AF03463960FB7197F9073051
:10246000002B0ADB3B68DAB20C4997F907301201FE
:10247000D2B20B4483F800230AE03B68DAB2084981
:10248000FB7903F00F03043B1201D2B20B441A761E
:1024900000BF0C37BD465DF8047B704700E100E0EB
:1024A00000ED00E080B489B000AFF860B9607A60F8
:1024B000FB6803F00703FB61FB69C3F10703042B0F
:1024C00028BF0423BB61FB690433062B02D9FB69D7
:1024D000033B00E000237B614FF0FF32BB6902FA4F
:1024E00003F3DA43BB681A407B699A404FF0FF312F
:1024F0007B6901FA03F3D9437B680B401343184609
:102500002437BD465DF8047B7047000080B582B07B
:1025100000AF78607B68013BB3F1807F01D301237A
:102520000FE00A4A7B68013B53600F214FF0FF30F8
:10253000FFF78EFF054B00229A60044B07221A60BA
:10254000002318460837BD4680BD00BF10E000E0FC
:1025500080B582B000AF78607868FFF729FF00BFD0
:102560000837BD4680BD80B586B000AF0346B96070
:102570007A60FB7300237B61FFF73EFF78617A6826
:10258000B9687869FFF78EFF024697F90F30114658
:102590001846FFF75DFF00BF1837BD4680BD80B508
:1025A00082B000AF0346FB7197F907301846FFF77A
:1025B00031FF00BF0837BD4680BD80B582B000AF97
:1025C00078607868FFF7A2FF034618460837BD46D3
:1025D00080BD80B584B000AF78607B689B6DFB6088
:1025E000FFF7B6FAB8607B6893F83530DBB2022BA0
:1025F00008D07B6880225A657B68002283F83420EB
:10260000012352E07B681B681A687B681B6822F014
:1026100016021A607B681B685A697B681B6822F087
:1026200080025A617B681B6C002B03D17B689B6C1A
:10263000002B07D07B681B681A687B681B6822F038
:1026400008021A607B681B681A687B681B6822F0A6
:1026500001021A6013E0FFF77BFA0246BB68D31A47
:10266000052B0CD97B6820225A657B68032283F8EE
:1026700035207B68002283F83420032315E07B6833
:102680001B681B6803F00103002BE4D17B68DB6D42
:102690003F229A40FB689A607B68012283F83520CC
:1026A0007B68002283F83420002318461037BD468B
:1026B00080BD80B483B000AF78607B6893F835301C
:1026C000DBB2022B04D07B6880225A6501230CE028
:1026D0007B68052283F835207B681B681A687B6855
:1026E0001B6822F001021A60002318460C37BD4611
:1026F0005DF8047B7047000080B489B000AF78605B
:10270000396000237B6100233B610023BB61002310
:10271000FB616BE10122FB6902FA03F37B613B6819
:102720001B687A6913403B613A697B699A4240F0C1
:102730005A813B685B6803F00303012B05D03B68BB
:102740005B6803F00303022B30D17B689B68BB619D
:10275000FB695B00032202FA03F3DB43BA6913400F
:10276000BB613B68DA68FB695B0002FA03F3BA6994
:102770001343BB617B68BA699A607B685B68BB6125
:102780000122FB6902FA03F3DB43BA691340BB6120
:102790003B685B681B0903F00102FB6902FA03F363
:1027A000BA691343BB617B68BA695A603B685B686E
:1027B00003F00303032B17D07B68DB68BB61FB6965
:1027C0005B00032202FA03F3DB43BA691340BB61E7
:1027D0003B689A68FB695B0002FA03F3BA6913432A
:1027E000BB617B68BA69DA603B685B6803F003032E
:1027F000022B23D1FB69DA087B68083253F82230B8
:10280000BB61FB6903F007039B000F2202FA03F38D
:10281000DB43BA691340BB613B681A69FB6903F08B
:1028200007039B0002FA03F3BA691343BB61FB6918
:10283000DA087B680832B96943F822107B681B68A4
:10284000BB61FB695B00032202FA03F3DB43BA6955
:102850001340BB613B685B6803F00302FB695B00EC
:1028600002FA03F3BA691343BB617B68BA691A6061
:102870003B685B6803F44033002B00F0B480002316
:10288000FB60604B5B6C5F4A43F4804353645D4B79
:102890005B6C03F48043FB60FB685B4AFB699B084D
:1028A000023352F82330BB61FB6903F003039B0042
:1028B0000F2202FA03F3DB43BA691340BB617B6862
:1028C000524A93422BD07B68514A934225D07B6871
:1028D000504A93421FD07B684F4A934219D07B687D
:1028E0004E4A934213D07B684D4A93420DD07B6889
:1028F0004C4A934207D07B684B4A934201D107234D
:102900000EE008230CE006230AE0052308E0042378
:1029100006E0032304E0022302E0012300E0002399
:10292000FA6902F0030292009340BA691343BB6153
:102930003549FB699B080233BA6941F823203B4BB8
:102940009B68BB613B69DB43BA691340BB613B6871
:102950005B6803F48013002B03D0BA693B6913430F
:10296000BB61324ABB699360304BDB68BB613B693A
:10297000DB43BA691340BB613B685B6803F4001337
:10298000002B03D0BA693B691343BB61274ABB697B
:10299000D360264B5B68BB613B69DB43BA6913407C
:1029A000BB613B685B6803F40033002B03D0BA695A
:1029B0003B691343BB611D4ABB6953601B4B1B68DA
:1029C000BB613B69DB43BA691340BB613B685B6831
:1029D00003F48033002B03D0BA693B691343BB6116
:1029E000124ABB691360FB690133FB61FB690F2B62
:1029F0007FF690AE00BF00BF2437BD465DF8047B74
:102A0000704700BF0038024000380140000002401B
:102A10000004024000080240000C02400010024086
:102A20000014024000180240001C0240003C01401B
:102A300080B483B000AF78600B467B8013467B7018
:102A40007B78002B03D07A887B689A6103E07B88CF
:102A50001A047B689A6100BF0C37BD465DF8047BA1
:102A60007047000080B584B000AF78607B68002BB1
:102A700001D101232BE17B6893F83D30DBB2002BC1
:102A800006D17B68002283F83C207868FEF7DCFDE5
:102A90007B68242283F83D207B681B681A687B686A
:102AA0001B6822F001021A607B681B681A687B6849
:102AB0001B6842F400421A607B681B681A687B68D6
:102AC0001B6822F400421A6002F0A0FFF8607B68E5
:102AD0005B68814A934207D8FB68804A934294BF5F
:102AE00001230023DBB206E0FB687D4A934294BFDA
:102AF00001230023DBB2002B01D00123E7E0FB68B8
:102B0000784AA2FB03239B0CBB607B681B685B6855
:102B100023F03F017B681B68BA680A435A607B68F0
:102B20001B681B6A23F03F017B685B686A4A93421B
:102B300002D8BB68013309E0BB684FF4967202FB10
:102B400003F3694AA2FB03239B0901337A681268E5
:102B50000B4313627B681B68DB6923F44F4222F04E
:102B6000FF027B685B685C498B4219D8FB68591E81
:102B70007B685B685B00B1FBF3F3591C40F6FC73A8
:102B80000B40002B0AD0FB68591E7B685B685B001A
:102B9000B1FBF3F30133C3F30B0351E004234FE024
:102BA0007B689B68002B11D1FB68581E7B685968B5
:102BB0000B465B000B44B0FBF3F30133C3F30B0391
:102BC000002B0CBF01230023DBB212E0FB68581E70
:102BD0007B6859680B469B000B4499000B44B0FB83
:102BE000F3F30133C3F30B03002B0CBF01230023CA
:102BF000DBB2002B01D0012322E07B689B68002B15
:102C00000ED1FB68581E7B6859680B465B000B446D
:102C1000B0FBF3F30133C3F30B0343F400430FE0C2
:102C2000FB68581E7B6859680B469B000B44990053
:102C30000B44B0FBF3F30133C3F30B0343F4404302
:102C4000796809681343CB617B681B681B6823F0B4
:102C5000C0017B68DA697B681B6A1A437B681B6862
:102C60000A431A607B681B689B6823F4034323F0C4
:102C7000FF037A6811697A68D26811437A6812682A
:102C80000B4393607B681B68DB6823F0FF017B6864
:102C90005A697B689B691A437B681B680A43DA6040
:102CA0007B681B681A687B681B6842F001021A6027
:102CB0007B6800221A647B68202283F83D207B68B1
:102CC00000221A637B68002283F83E200023184606
:102CD0001037BD4680BD00BFA08601007F841E0066
:102CE000FF083D0083DE1B43D34D621080B588B0E2
:102CF00002AFF860084611461A4603467B810B4630
:102D00003B811346FB80FEF723FF7861FB6893F855
:102D10003D30DBB2202B40F0D9807B690093192332
:102D200001226D49F86800F0B9FD0346002B01D07F
:102D30000223CCE0FB6893F83C30012B01D1022345
:102D4000C5E0FB68012283F83C20FB681B681B6818
:102D500003F00103012B07D0FB681B681A68FB68AE
:102D60001B6842F001021A60FB681B681A68FB6866
:102D70001B6822F400621A60FB68212283F83D2060
:102D8000FB68402283F83E20FB6800221A64FB683F
:102D90003A6A5A62FB68BA8C5A85FB685B8D9AB2B4
:102DA000FB681A85FB684D4ADA62F8883A897989A6
:102DB0007B690193BB6A00930346F86800F0F0FB5F
:102DC0000346002B52D0012381E07A69B96AF86882
:102DD00000F07EFE0346002B0DD0FB681B6C042B1D
:102DE00007D1FB681B681A68FB681B6842F4007215
:102DF0001A6001236BE0FB685B6A1A78FB681B684A
:102E00001A61FB685B6A5A1CFB685A62FB681B8D7F
:102E1000013B9AB2FB681A85FB685B8D9BB2013B54
:102E20009AB2FB685A85FB681B685B6903F0040370
:102E3000042B1BD1FB681B8D002B17D0FB685B6A32
:102E40001A78FB681B681A61FB685B6A5A1CFB688E
:102E50005A62FB681B8D013B9AB2FB681A85FB68BE
:102E60005B8D9BB2013B9AB2FB685A85FB681B8D58
:102E7000002BAAD17A69B96AF86800F071FE03469E
:102E8000002B0DD0FB681B6C042B07D1FB681B6863
:102E90001A68FB681B6842F400721A60012316E08E
:102EA000FB681B681A68FB681B6842F400721A60B2
:102EB000FB68202283F83D20FB68002283F83E2037
:102EC000FB68002283F83C20002300E00223184620
:102ED0001837BD4680BD00BF020010000000FFFF94
:102EE00080B58CB002AFF860084611461A4603461A
:102EF0007B810B463B811346FB80FEF729FE7862FF
:102F0000FB6893F83D30DBB2202B40F014827B6AE3
:102F10000093192301227B49F86800F0BFFC0346A7
:102F2000002B01D0022307E2FB6893F83C30012B11
:102F300001D1022300E2FB68012283F83C20FB68F8
:102F40001B681B6803F00103012B07D0FB681B689B
:102F50001A68FB681B6842F001021A60FB681B6874
:102F60001A68FB681B6822F400621A60FB68222260
:102F700083F83D20FB68402283F83E20FB68002256
:102F80001A64FB683A6B5A62FB68BA8E5A85FB6812
:102F90005B8D9AB2FB681A85FB685B4ADA62F88837
:102FA0003A8979897B6A0193BB6B00930346F86881
:102FB00000F08CFB0346002B01D00123BCE1FB6831
:102FC0001B8D002B13D100233B62FB681B685B69E0
:102FD0003B62FB681B689B693B623B6AFB681B6842
:102FE0001A68FB681B6842F400721A6090E1FB6883
:102FF0001B8D012B1BD1FB681B681A68FB681B68C3
:1030000022F480621A600023FB61FB681B685B6925
:10301000FB61FB681B689B69FB61FB69FB681B68C4
:103020001A68FB681B6842F400721A6070E1FB6862
:103030001B8D022B1BD1FB681B681A68FB681B6881
:1030400022F480621A60FB681B681A68FB681B68C0
:1030500042F400621A600023BB61FB681B685B6975
:10306000BB61FB681B689B69BB61BB6950E10023C6
:103070007B61FB681B685B697B61FB681B689B6904
:103080007B617B6944E1FB681B8D032B00F2F180BF
:10309000FB681B8D012B23D17A6AB96BF86800F0AD
:1030A000A7FD0346002B01D0012345E1FB681B6807
:1030B0001A69FB685B6AD2B21A70FB685B6A5A1CB9
:1030C000FB685A62FB681B8D013B9AB2FB681A854C
:1030D000FB685B8D9BB2013B9AB2FB685A8517E196
:1030E000FB681B8D022B4ED17B6A0093BB6B0022C9
:1030F0000649F86800F0D2FB0346002B08D00123F4
:103100001AE100BF020010000000FFFF04000100F0
:10311000FB681B681A68FB681B6842F400721A603F
:10312000FB681B681A69FB685B6AD2B21A70FB689D
:103130005B6A5A1CFB685A62FB681B8D013B9AB2A2
:10314000FB681A85FB685B8D9BB2013B9AB2FB68FA
:103150005A85FB681B681A69FB685B6AD2B21A70F1
:10316000FB685B6A5A1CFB685A62FB681B8D013B5B
:103170009AB2FB681A85FB685B8D9BB2013B9AB2E1
:10318000FB685A85C4E07B6A0093BB6B00226C49E4
:10319000F86800F083FB0346002B01D00123CBE04D
:1031A000FB681B681A68FB681B6822F480621A605F
:1031B000FB681B681A69FB685B6AD2B21A70FB680D
:1031C0005B6A5A1CFB685A62FB681B8D013B9AB212
:1031D000FB681A85FB685B8D9BB2013B9AB2FB686A
:1031E0005A857B6A0093BB6B00225549F86800F052
:1031F00055FB0346002B01D001239DE0FB681B68B3
:103200001A68FB681B6842F400721A60FB681B684E
:103210001A69FB685B6AD2B21A70FB685B6A5A1C57
:10322000FB685A62FB681B8D013B9AB2FB681A85EA
:10323000FB685B8D9BB2013B9AB2FB685A85FB68C9
:103240001B681A69FB685B6AD2B21A70FB685B6A1A
:103250005A1CFB685A62FB681B8D013B9AB2FB68E3
:103260001A85FB685B8D9BB2013B9AB2FB685A855D
:103270004EE07A6AB96BF86800F0BAFC0346002B9E
:1032800001D0012358E0FB681B681A69FB685B6A80
:10329000D2B21A70FB685B6A5A1CFB685A62FB6800
:1032A0001B8D013B9AB2FB681A85FB685B8D9BB254
:1032B000013B9AB2FB685A85FB681B685B6903F0A7
:1032C0000403042B24D1FB681B8D032B07D1FB685F
:1032D0001B681A68FB681B6822F480621A60FB682E
:1032E0001B681A69FB685B6AD2B21A70FB685B6A7A
:1032F0005A1CFB685A62FB681B8D013B9AB2FB6843
:103300001A85FB685B8D9BB2013B9AB2FB685A85BC
:10331000FB681B8D002B7FF4B6AEFB68202283F880
:103320003D20FB68002283F83E20FB68002283F8E2
:103330003C20002300E0022318462837BD4680BD0C
:103340000400010080B58AB002AFF8607A603B608B
:103350000B467B81FEF7FCFBF8610023BB61FB6839
:1033600093F83D30DBB2202B40F01181FB690093D4
:10337000192301228849F86800F090FA0346002BCF
:1033800001D0022304E1FB6893F83C30012B01D10A
:103390000223FDE0FB68012283F83C20FB681B68E8
:1033A0001B6803F00103012B07D0FB681B681A6838
:1033B000FB681B6842F001021A60FB681B681A6810
:1033C000FB681B6822F400621A60FB68242283F801
:1033D0003D20FB6800221A64FB68704ADA62FB68D1
:1033E0001B681A68FB681B6842F480721A60FB69EC
:1033F00000933B6800224FF00111F86800F04EFA8C
:103400000346002B0DD0FB681B681B6803F4807318
:10341000B3F5807F03D1FB684FF400721A64032375
:10342000B6E07B89DBB21A46FB681B6802F0FE023D
:103430001A61FEF78DFBF861FB681B685B6903F09E
:103440000203022B0CBF01230023DBB2FB75FB68D8
:103450001B685B6903F48063B3F5806F0CBF0123C5
:103460000023DBB2BB7525E0FEF772FB0246FB6969
:10347000D31A3A689A4202D33B68002B03D1FB6807
:10348000A02283F83D20FB681B685B6903F0020300
:10349000022B0CBF01230023DBB2FB75FB681B680A
:1034A0005B6903F48063B3F5806F0CBF01230023D5
:1034B000DBB2BB75FB6893F83D30DBB2A02B05D0C7
:1034C000FB7D002B02D1BB7D002BCDD0FB682022E1
:1034D00083F83D20FB681B685B6903F00203022B45
:1034E00029D1FB681B681A68FB681B6842F40072EC
:1034F0001A6000233B61FB681B685B693B61FB68EA
:103500001B689B693B613B69FB690093192301229E
:103510002149F86800F0C2F90346002B01D00123CD
:1035200036E0FB68202283F83D20FB68002283F808
:103530003C2000232CE0FB681B681A68FB681B68B2
:1035400042F400721A60FB681B686FF480625A6173
:10355000FB690093192301220F49F86800F09EF9D6
:103560000346002B01D0012312E0BB690133BB618C
:10357000BA697B689A42FFF432AFFB68202283F875
:103580003D20FB68002283F83C20012300E0022359
:1035900018462037BD4680BD020010000000FFFF26
:1035A00080B588B002AFF860084611461A46034657
:1035B0007B810B463B811346FB80FB681B681A68C6
:1035C000FB681B6842F480721A607B6A00933B6A56
:1035D00000224FF00111F86800F060F90346002B5B
:1035E0000DD0FB681B681B6803F48073B3F5807F04
:1035F00003D1FB684FF400721A6403235FE07B89F8
:10360000DBB21A46FB681B6802F0FE021A617B6A95
:103610003A6A2D49F86800F0BBF90346002B01D047
:1036200001234CE000237B61FB681B685B697B61C5
:10363000FB681B689B697B617B697A6A396AF868F9
:1036400000F046FA0346002B0DD0FB681B6C042BE0
:1036500007D1FB681B681A68FB681B6842F400729C
:103660001A6001232BE0FB88012B05D13B89DAB2DC
:10367000FB681B681A6121E03B891B0A9BB2DAB226
:10368000FB681B681A617A6A396AF86800F020FAE8
:103690000346002B0DD0FB681B6C042B07D1FB6885
:1036A0001B681A68FB681B6842F400721A600123E9
:1036B00005E03B89DAB2FB681B681A6100231846F3
:1036C0001837BD4680BD00BF0200010080B588B03C
:1036D00002AFF860084611461A4603467B810B4646
:1036E0003B811346FB80FB681B681A68FB681B68FC
:1036F00042F480621A60FB681B681A68FB681B68EA
:1037000042F480721A607B6A00933B6A00224FF099
:103710000111F86800F0C2F80346002B0DD0FB68D9
:103720001B681B6803F48073B3F5807F03D1FB68CB
:103730004FF400721A640323AAE07B89DBB21A46B5
:10374000FB681B6802F0FE021A617B6A3A6A524902
:10375000F86800F01DF90346002B01D0012397E023
:1037600000237B61FB681B685B697B61FB681B68EE
:103770009B697B617B697A6A396AF86800F0A8F90D
:103780000346002B0DD0FB681B6C042B07D1FB6894
:103790001B681A68FB681B6842F400721A600123F8
:1037A00076E0FB88012B05D13B89DAB2FB681B6808
:1037B0001A6121E03B891B0A9BB2DAB2FB681B68E5
:1037C0001A617A6A396AF86800F082F90346002BB8
:1037D0000DD0FB681B6C042B07D1FB681B681A68B3
:1037E000FB681B6842F400721A60012350E03B89B9
:1037F000DAB2FB681B681A617A6A396AF86800F005
:1038000067F90346002B0DD0FB681B6C042B07D116
:10381000FB681B681A68FB681B6842F400721A6038
:10382000012335E0FB681B681A68FB681B6842F4DB
:1038300080721A607B6A00933B6A00224FF001118C
:10384000F86800F02BF80346002B0DD0FB681B68CE
:103850001B6803F48073B3F5807F03D1FB684FF4DA
:1038600000721A64032313E07B89DBB243F0010387
:10387000DAB2FB681B681A617B6A3A6A0649F86823
:1038800000F086F80346002B01D0012300E000235E
:1038900018461837BD4680BD0200010080B584B0CF
:1038A00000AFF860B9603B601346FB7148E03B68CD
:1038B000B3F1FF3F44D0FEF74BF90246BB69D31A80
:1038C0003A689A4202D33B68002B39D1BB681B0C83
:1038D000DBB2012B0DD1FB681B685B69DA43BB6867
:1038E00013409BB2002B0CBF01230023DBB21A460E
:1038F0000CE0FB681B689B69DA43BB6813409BB212
:10390000002B0CBF01230023DBB21A46FB799A423D
:1039100016D1FB6800221A63FB68202283F83D2041
:10392000FB68002283F83E20FB681B6C43F02002FA
:10393000FB681A64FB68002283F83C20012323E023
:10394000BB681B0CDBB2012B0DD1FB681B685B69EC
:10395000DA43BB6813409BB2002B0CBF012300234A
:10396000DBB21A460CE0FB681B689B69DA43BB6854
:1039700013409BB2002B0CBF01230023DBB21A467D
:10398000FB799A4293D0002318461037BD4680BD7C
:1039900080B584B000AFF860B9607A603B6071E0D8
:1039A000FB681B685B6903F48063B3F5806F23D108
:1039B000FB681B681A68FB681B6842F400721A6097
:1039C000FB681B686FF480625A61FB6800221A630F
:1039D000FB68202283F83D20FB68002283F83E200C
:1039E000FB681B6C43F00402FB681A64FB6800224E
:1039F00083F83C20012367E07B68B3F1FF3F41D0AF
:103A0000FEF7A6F802463B68D31A7A689A4202D3B8
:103A10007B68002B36D1BB681B0CDBB2012B0CD1B1
:103A2000FB681B685B69DA43BB6813409BB2002BE1
:103A300014BF01230023DBB20BE0FB681B689B690A
:103A4000DA43BB6813409BB2002B14BF0123002351
:103A5000DBB2002B16D0FB6800221A63FB68202221
:103A600083F83D20FB68002283F83E20FB681B6C36
:103A700043F02002FB681A64FB68002283F83C20B4
:103A8000012321E0BB681B0CDBB2012B0CD1FB68CE
:103A90001B685B69DA43BB6813409BB2002B14BF01
:103AA00001230023DBB20BE0FB681B689B69DA4350
:103AB000BB6813409BB2002B14BF01230023DBB271
:103AC000002B7FF46DAF002318461037BD4680BD34
:103AD00080B584B000AFF860B9607A6034E0F8680F
:103AE00000F0E3F80346002B01D0012334E0BB686B
:103AF000B3F1FF3F28D0FEF72BF802467B68D31ABC
:103B0000BA689A4202D3BB68002B1DD1FB681B68C0
:103B10005B6903F08003802B16D0FB6800221A63D8
:103B2000FB68202283F83D20FB68002283F83E20BA
:103B3000FB681B6C43F02002FB681A64FB680022E0
:103B400083F83C20012307E0FB681B685B6903F0F6
:103B50008003802BC3D1002318461037BD4680BD9B
:103B600080B584B000AFF860B9607A6034E0F8687E
:103B700000F09BF80346002B01D0012334E0BB6822
:103B8000B3F1FF3F28D0FDF7E3FF02467B68D31A6D
:103B9000BA689A4202D3BB68002B1DD1FB681B6830
:103BA0005B6903F00403042B16D0FB6800221A6340
:103BB000FB68202283F83D20FB68002283F83E202A
:103BC000FB681B6C43F02002FB681A64FB68002250
:103BD00083F83C20012307E0FB681B685B6903F066
:103BE0000403042BC3D1002318461037BD4680BD03
:103BF00080B584B000AFF860B9607A6049E0FB68D6
:103C00001B685B6903F01003102B19D1FB681B685C
:103C10006FF010025A61FB6800221A63FB682022D1
:103C200083F83D20FB68002283F83E20FB681A6C75
:103C3000FB681A64FB68002283F83C20012330E013
:103C4000FDF786FF02467B68D31ABA689A4202D310
:103C5000BB68002B1DD1FB681B685B6903F0400348
:103C6000402B16D0FB6800221A63FB68202283F8E1
:103C70003D20FB68002283F83E20FB681B6C43F06C
:103C80002002FB681A64FB68002283F83C200123B1
:103C900007E0FB681B685B6903F04003402BAED173
:103CA000002318461037BD4680BD80B483B000AFF6
:103CB00078607B681B685B6903F48063B3F5806F91
:103CC0001BD17B681B686FF480625A617B6800229D
:103CD0001A637B68202283F83D207B68002283F8EA
:103CE0003E207B681B6C43F004027B681A647B688F
:103CF000002283F83C20012300E0002318460C3703
:103D0000BD465DF8047B704780B586B002AF786031
:103D10007B68002B01D1012301E17B681B68BB603C
:103D20007B6893F89534DBB2002B06D17B680022C8
:103D300083F89424786806F02FFE7B68032283F8CA
:103D40009524BB68B3F1A04F02D17B6800229A7121
:103D50007B681B68184603F0F2F97B6818687B687B
:103D60001A7C8DF8002004330ECB03F0D1F8034603
:103D7000002B05D07B68022283F895240123CEE036
:103D80007B681B680021184603F0EAF90346002B04
:103D900005D07B68022283F895240123BFE000232D
:103DA000FB734AE0FA7B79681346DB0013449B00FF
:103DB0000B44153301221A70FA7B79681346DB0035
:103DC00013449B000B441433FA7B1A70FA7BFB7B81
:103DD00098B279681346DB0013449B000B442E33E2
:103DE00002461A80FA7B79681346DB0013449B0075
:103DF0000B44183300221A70FA7B79681346DB00F3
:103E000013449B000B441C3300221A60FA7B796830
:103E10001346DB0013449B000B44203300221A603E
:103E2000FA7B79681346DB0013449B000B44243370
:103E300000221A60FB7B0133FB737B681B79FA7BE2
:103E40009A42AFD30023FB7344E0FA7B79681346B0
:103E5000DB0013449B000B4403F2552300221A702D
:103E6000FA7B79681346DB0013449B000B4403F58F
:103E70001573FA7B1A70FA7B79681346DB001344DA
:103E80009B000B4403F5167300221A70FA7B7968C5
:103E90001346DB0013449B000B4403F51773002209
:103EA0001A60FA7B79681346DB0013449B000B44CD
:103EB00003F5187300221A60FA7B79681346DB0059
:103EC00013449B000B4403F5197300221A60FB7B1B
:103ED0000133FB737B681B79FA7B9A42B5D37B680D
:103EE00018687B681A7C8DF8002004330ECB03F031
:103EF00083F90346002B05D07B68022283F89524C2
:103F000001230CE07B6800225A747B68012283F84D
:103F100095247B681B68184604F0CDF900231846E9
:103F20001037BD4680BD80B584B000AF78607B6837
:103F30001B68FB607B6893F89434012B01D102234A
:103F400022E07B68012283F89424FB68DB6803F09D
:103F50004003002B09D07B685B7B012B05D1FB68FC
:103F60009B6B43F48032FB689A637B681B6818463E
:103F700003F0D4F87B681B68184604F07BF97B6873
:103F8000002283F89424002318461037BD4680BDD4
:103F900090B58DB000AF78607B681B683B623B6A70
:103FA000FB617B681B68184604F039FA0346002B56
:103FB00040F08C847B681B68184604F09DF903462A
:103FC000002B00F08284FB6903F500639B681B0AE9
:103FD000C3F30D027B68C3F8D4247B681B681846C2
:103FE00004F08AF9034603F00203022B07D17B6831
:103FF0001B685A697B681B6802F002025A617B6881
:104000001B68184604F078F9034603F01003102BE0
:1040100061D17B681B689A697B681B6822F010027B
:104020009A613B6A1B6ABB61BB6903F00F021346CE
:10403000DB0013449B0003F514737A6813440433C4
:104040007B61BB6903F4F013B3F5802F24D1BA6907
:1040500047F6F0731340002B35D07B69D968BB69F4
:104060001B099BB2C3F30A039BB21A46386A03F0DA
:10407000AFFF7B69DA68BB691B09C3F30A031A4403
:104080007B69DA607B695A69BB691B09C3F30A0360
:104090001A447B695A6116E0BB6903F4F013B3F567
:1040A000402F10D17B6803F29C4308221946386ADE
:1040B00003F08EFF7B695A69BB691B09C3F30A03CE
:1040C0001A447B695A617B681B689A697B681B6824
:1040D00042F010029A617B681B68184604F00CF9E4
:1040E000034603F40023B3F5002F40F0A78000231C
:1040F0007B627B681B68184604F011F9B86299E08E
:10410000BB6A03F00103002B00F08E807B681B6804
:104110007A6AD2B21146184604F035F938613B6923
:1041200003F00103002B0CD07B6A5A01FB69134496
:1041300003F530631A4601239360796A786800F0CA
:10414000A3FE3B6903F00803002B0CD07B6A5A01E5
:10415000FB69134403F530631A4608239360796AB8
:10416000786800F079FF3B6903F01003002B08D05A
:104170007B6A5A01FB69134403F530631A46102326
:1041800093603B6903F00203002B30D03B6A5B690C
:1041900003F08003802B09D1FB6903F500635B68A2
:1041A000FA6902F5006243F4806353607A6A134649
:1041B000DB0013449B0003F514737A681344043343
:1041C0007B617B69DB78012B08D17B690022DA7087
:1041D0007B6ADBB21946786806F0E4FC7B6A5A0118
:1041E000FB69134403F530631A46022393603B696D
:1041F00003F02003002B08D07B6A5A01FB691344AB
:1042000003F530631A46202393603B6903F400539F
:10421000002B09D07B6A5A01FB69134403F5306314
:104220001A464FF4005393607B6A01337B62BB6A8A
:104230005B08BB62BB6A002B7FF462AF7B681B68C4
:10424000184604F059F8034603F48023B3F5802F91
:1042500040F0DB807B681B68184604F07AF8B8628F
:1042600000237B62CDE0BB6A03F00103002B00F06A
:10427000C2807B681B687A6AD2B21146184604F085
:10428000A0F838613B6903F00103002B57D07B6A2B
:1042900003F00F03012202FA03F3FB60FB6903F54D
:1042A00000635A6BFB68DB43F96901F50061134059
:1042B0004B637B6A5A01FB69134403F510631A468A
:1042C000012393607B689B79012B32D179687A6AEC
:1042D0001346DB0013449B000B44203319687868B5
:1042E0007A6A1346DB0013449B0003441C331B68AB
:1042F000194478687A6A1346DB0013449B00034430
:10430000203319607B6A002B13D179687A6A1346CF
:10431000DB0013449B000B4424331B68002B08D1A3
:104320007B6818687B6803F29C431A46012104F0FD
:10433000A7F87B6ADBB21946786806F0AEFB3B69EA
:1043400003F00803002B08D07B6A5A01FB69134471
:1043500003F510631A46082393603B6903F01003CA
:10436000002B08D07B6A5A01FB69134403F51063E4
:104370001A46102393603B6903F04003002B08D0DA
:104380007B6A5A01FB69134403F510631A46402304
:1043900093603B6903F00203002B23D0796A386AEB
:1043A00003F08EF87A6A1346DB0013449B00103347
:1043B0007A68134404337B617B69DB78012B08D175
:1043C0007B690022DA707B6ADBB21946786806F0F6
:1043D000FBFB7B6A5A01FB69134403F510631A4621
:1043E000022393603B6903F08003002B03D0796ABA
:1043F000786800F0BDFC7B6A01337B62BB6A5B08B6
:10440000BB62BB6A002B7FF42EAF7B681B6818462B
:1044100003F072FF034603F00043B3F1004F22D1D3
:10442000FB6903F500635B68FA6902F5006223F03B
:10443000010353607B6893F8CC34012B08D17B686F
:10444000002283F8CC240021786800F0A3FE02E06B
:10445000786806F099FB7B681B685A697B681B6863
:1044600002F000425A617B681B68184603F044FF63
:10447000034603F40063B3F5006F12D1FB6903F543
:1044800000639B6803F00103012B02D1786806F0FA
:1044900055FB7B681B685A697B681B6802F40062E5
:1044A0005A617B681B68184603F026FF034603F435
:1044B0008053B3F5805F40F0B780FB6903F500637C
:1044C0005B68FA6902F5006223F0010353607B68C0
:1044D0001B681021184602F0F3FF0023FB6246E040
:1044E000FB6A5A01FB69134403F510631A464FF641
:1044F0007F339360FB6A5A01FB69134403F5106331
:104500001B68FA6A5101FA690A4402F5106223F441
:1045100000131360FB6A5A01FB69134403F530630F
:104520001A464FF67F339360FB6A5A01FB691344C6
:1045300003F530631B68FA6A5101FA690A4402F50F
:10454000306223F400131360FB6A5A01FB691344C1
:1045500003F530631B68FA6A5101FA690A4402F5EF
:10456000306243F000631360FB6A0133FB627B68D7
:104570001B791A46FB6A9342B2D3FB6903F50063C9
:10458000DB69FA6902F5006243F00113D3617B68CD
:10459000DB7B002B16D0FB6903F50063D3F8843076
:1045A000FA6902F5006243F00B03C2F88430FB693C
:1045B00003F500635B6CFA6902F5006243F00B03DC
:1045C000536415E0FB6903F500635B69FA6902F562
:1045D000006243F4005343F02B035361FB6903F57E
:1045E00000631B69FA6902F5006243F00B03136173
:1045F000FB6903F500631B68FA6902F5006223F4A6
:10460000FE6313607B6818687B6899797B6803F2A6
:104610009C431A4603F034FF7B681B685A697B6829
:104620001B6802F480525A617B681B68184603F0CD
:1046300063FE034603F40053B3F5005F23D17B68A8
:104640001B68184603F0F9FE7B681B68184602F0E9
:10465000B0FF03461A467B68DA717B681C6801F07C
:10466000C9F901467B68DB791A46204602F0B4FCA2
:10467000786806F03AFA7B681B685A697B681B68A1
:1046800002F400525A617B681B68184603F034FE3E
:10469000034603F00803082B0AD1786806F017FADE
:1046A0007B681B685A697B681B6802F008025A61C4
:1046B0007B681B68184603F01FFE034603F0800367
:1046C000802B23D13B6A9B6923F080023B6A9A616D
:1046D00001237B6214E079687A6A1346DB00134495
:1046E0009B000B4403F257231B78012B05D17B6AF7
:1046F000DBB21946786800F00AFB7B6A01337B6203
:104700007B681B791A467B6A9342E4D37B681B68FB
:10471000184603F0F1FD034603F48013B3F5801F40
:104720003CD101237B622BE07B6A5A01FB69134475
:1047300003F510631B68BB6179687A6A1346DB0076
:1047400013449B000B4418331B78012B15D1BB6914
:10475000002B12DA79687A6A1346DB0013449B0057
:104760000B44173301221A707B6ADBB263F07F03BC
:10477000DBB21946786800F0CAFA7B6A01337B62C3
:104780007B681B791A467B6A9342CDD37B681B6892
:104790005A697B681B6802F480125A617B681B6847
:1047A000184603F0A9FD034603F40013B3F5001FF8
:1047B00056D101237B6245E07B6A5A01FB691344B1
:1047C00003F530631B68BB6179687A6A1346DB00C6
:1047D00013449B000B4403F516731B78012B2ED159
:1047E000BB69002B2BDABB691A0C7B68D3F8D43475
:1047F000534003F00103002B21D179687A6A1346F4
:10480000DB0013449B000B4403F2572301221A7070
:104810003B6A9B6943F080023B6A9A613B6A5B6931
:1048200003F08003002B0AD1FB6903F500635B688A
:10483000FA6902F5006243F40073536008E07B6A92
:1048400001337B627B681B791A467B6A9342B3D340
:104850007B681B685A697B681B6802F400125A6106
:104860007B681B68184603F047FD034603F080434E
:10487000B3F1804F0AD1786806F0B8F97B681B68FD
:104880005A697B681B6802F080425A617B681B682A
:10489000184603F031FD034603F00403042B15D141
:1048A0007B681B685B68BB61BB6903F00403002B7A
:1048B00002D0786806F0A8F97B681B6859687B68A5
:1048C0001B68BA690A435A6000E000BF3437BD462E
:1048D00090BD80B582B000AF78600B46FB707B68FE
:1048E00093F89434012B01D1022312E07B6801225A
:1048F00083F894247B68FA785A747B681B68FA788A
:104900001146184603F090FC7B68002283F894243B
:10491000002318460837BD4680BD80B584B000AF7F
:104920007860084611461A460346FB700B463B80EA
:104930001346BB700023FB7297F90330002B0FDA8C
:10494000FB7803F00F021346DB0013449B00103387
:104950007A6813440433FB60FB6801225A700FE04D
:10496000FB7803F00F021346DB0013449B0003F5B2
:1049700014737A6813440433FB60FB6800225A7096
:10498000FB7803F00F03DAB2FB681A703B88C3F3BD
:104990000A02FB689A60FB68BA781A71FB685B7858
:1049A000002B04D0FB681B781A46FB685A83BB783F
:1049B000022B02D1FB6800225A717B6893F8943471
:1049C000012B01D102230EE07B68012283F894249D
:1049D0007B681B68F968184602F010FE7B680022AD
:1049E00083F89424FB7A18461037BD4680BD80B505
:1049F00084B000AF78600B46FB7097F90330002B52
:104A00000FDAFB7803F00F021346DB0013449B0020
:104A100010337A6813440433FB60FB6801225A7038
:104A20000FE0FB7803F00F021346DB0013449B00FA
:104A300003F514737A6813440433FB60FB680022A7
:104A40005A70FB7803F00F03DAB2FB681A707B68C8
:104A500093F89434012B01D102230EE07B680122EC
:104A600083F894247B681B68F968184602F04EFEB0
:104A70007B68002283F89424002318461037BD4633
:104A800080BD80B586B000AFF8607A603B600B46B1
:104A9000FB72FB7A03F00F021346DB0013449B000A
:104AA00003F51473FA68134404337B617B697A68F5
:104AB000DA607B693A681A617B6900225A617B6916
:104AC00000225A70FB7A03F00F03DAB27B691A7086
:104AD000FB689B79012B02D17A687B69DA61FB68FC
:104AE0001868FB689B791A46796902F0EBFE00238F
:104AF00018461837BD4680BD80B483B000AF7860DB
:104B00000B46FB70FB7803F00F0279681346DB005D
:104B100013449B000B4403F51A731B6818460C37AB
:104B2000BD465DF8047B704780B586B000AFF86085
:104B30007A603B600B46FB72FB7A03F00F02134670
:104B4000DB0013449B001033FA68134404337B6189
:104B50007B697A68DA607B693A681A617B6900224E
:104B60005A617B6901225A70FB7A03F00F03DAB2B3
:104B70007B691A70FB689B79012B02D17A687B698B
:104B8000DA61FB681868FB689B791A46796902F05C
:104B900099FE002318461837BD4680BD80B584B005
:104BA00000AF78600B46FB70FB7803F00F037A6868
:104BB0001279934201D901234FE097F90330002B7A
:104BC0000FDAFB7803F00F021346DB0013449B005F
:104BD00010337A6813440433FB60FB6801225A7077
:104BE0000DE0FA781346DB0013449B0003F51473C1
:104BF0007A6813440433FB60FB6800225A70FB6838
:104C000001229A70FB7803F00F03DAB2FB681A7086
:104C10007B6893F89434012B01D102231DE07B685B
:104C2000012283F894247B681B68F968184603F016
:104C300027FAFB7803F00F03002B09D17B68186873
:104C40007B6899797B6803F29C431A4603F018FC51
:104C50007B68002283F89424002318461037BD4651
:104C600080BD80B584B000AF78600B46FB70FB78E8
:104C700003F00F037A681279934201D9012342E0CD
:104C800097F90330002B0FDAFB7803F00F0213467D
:104C9000DB0013449B0010337A6813440433FB6039
:104CA000FB6801225A700FE0FB7803F00F021346F5
:104CB000DB0013449B0003F514737A681344043338
:104CC000FB60FB6800225A70FB6800229A70FB7838
:104CD00003F00F03DAB2FB681A707B6893F8943420
:104CE000012B01D102230EE07B68012283F894247A
:104CF0007B681B68F968184603F030FA7B6800226D
:104D000083F89424002318461037BD4680BD80B533
:104D100084B000AF78600B46FB7097F90330002B2E
:104D20000CDAFB7803F00F021346DB0013449B0000
:104D300010337A6813440433FB600CE0FB7803F013
:104D40000F021346DB0013449B0003F514737A68CB
:104D500013440433FB607B681B68F968184603F052
:104D60004FF80346FB72FB7A18461037BD4680BDEC
:104D700080B58AB002AF786039607B681B687B6160
:104D80007B693B613A681346DB0013449B00103398
:104D90007A6813440433FB60FB685A69FB681B693B
:104DA0009A4201D901236BE0FB681A69FB685B69D1
:104DB000D31AFB61FB689B68FA699A4202D9FB68C7
:104DC0009B68FB61FB6903339B08BB612AE0FB68BE
:104DD0001A69FB685B69D31AFB61FB689B68FA6917
:104DE0009A4202D9FB689B68FB61FB6903339B080D
:104DF000BB61FB68D9683B68DAB2FB6998B27B6833
:104E00009B7900930346786903F0A4F8FB68DA689D
:104E1000FB691A44FB68DA60FB685A69FB691A444B
:104E2000FB685A613B685A013B69134403F5106300
:104E30009B699BB2BA699A4209D8FB685A69FB68B8
:104E40001B699A4203D2FB681B69002BBFD1FB6828
:104E50001A69FB685B699A4211D83B6803F00F033B
:104E6000012202FA03F3BB603B6903F500635A6B4E
:104E7000BB68DB43396901F5006113404B630023D4
:104E800018462037BD4680BD80B588B000AF786039
:104E900039607B681B68FB61FB69BB61FB693C3364
:104EA00004331B687B613B685A01BB69134403F5FB
:104EB00030639B683B617B689B79012B7BD13B69AD
:104EC00003F00803002B15D07B69614A934240F23E
:104ED000B9803B6903F40043002B00F0B3803B68CA
:104EE0005A01BB69134403F530631A464FF400437B
:104EF0009360A7E03B6903F02003002B09D03B68D7
:104F00005A01BB69134403F530631A4620239360AA
:104F100098E03B6903F02803002B40F093807B6905
:104F20004B4A93420FD93B6903F40043002B0AD04C
:104F30003B685A01BB69134403F530631A464FF4CA
:104F4000004393607EE03A681346DB0013449B0005
:104F500003F514737A6813440433FB60FB681A6A20
:104F60003B685901BB690B4403F530631B69C3F30C
:104F70001203D21AFB685A613B68002B14D1FB68FC
:104F80001B69002B09D17B6818687B6803F29C437E
:104F90001A46012103F074FA06E0FB68DA68FB6840
:104FA0005B691A44FB68DA603B68DBB219467868D3
:104FB00005F058FD46E07B69264A934224D13B69BF
:104FC00003F40043002B0AD03B685A01BB69134429
:104FD00003F530631A464FF40043936032E03B69B7
:104FE00003F02003002B08D03B685A01BB6913442F
:104FF00003F530631A46202393603B68DBB2194601
:10500000786805F02FFD1DE03B68002B14D179680E
:105010003A681346DB0013449B000B4403F51973F5
:105020001B68002B08D17B6818687B6803F29C43DF
:105030001A46002103F024FA3B68DBB2194678686F
:1050400005F010FD002318462037BD4680BD00BF87
:105050000A30544F0A31544F80B586B000AF7860A3
:1050600039607B681B687B617B693B617B693C3392
:1050700004331B68FB603B685A013B69134403F52A
:1050800030639B68BB60FB68154A93420ED9BB68CE
:1050900003F40043002B09D03B685A013B691344D9
:1050A00003F530631A464FF400439360786805F0C7
:1050B000C7FCFB680A4A93420CD97B689B79012B99
:1050C00008D17B6818687B6803F29C431A4601216B
:1050D00003F0D6F9002318461837BD4680BD00BF3F
:1050E0000A30544F80B485B000AF78600B46FB7037
:1050F00013463B807B681B685B6ABB60FB78002BB8
:1051000007D13B8819047B681B68BA680A439A6216
:1051100028E07B681B689B6A1B0CBA681344BB6061
:105120000023FB730DE07B681A68FB7B40339B0018
:1051300013445B681B0CBA681344BB60FB7B0133F0
:10514000FB73FA7BFB78013B9A42ECD33B88180453
:105150007B681968FB78013BBA68024340339B00C7
:105160000B445A60002318461437BD465DF8047B93
:10517000704780B483B000AF78600B467B807B685B
:105180001B687A885A62002318460C37BD465DF8C2
:10519000047B704780B483B000AF78600B46FB702F
:1051A00000BF0C37BD465DF8047B704780B586B004
:1051B00000AF78607B68002B01D1012367E27B6838
:1051C0001B6803F00103002B75D0884B9B6803F02C
:1051D0000C03042B0CD0854B9B6803F00C03082BAD
:1051E00012D1824B5B6803F48003B3F5800F0BD1BF
:1051F0007E4B1B6803F40033002B5BD07B685B683D
:10520000002B57D1012342E27B685B68B3F5803FF6
:1052100006D1764B1B68754A43F4803313601DE05A
:105220007B685B68B3F5A02F0CD1704B1B686F4A8D
:1052300043F4802313606D4B1B686C4A43F4803346
:1052400013600BE0694B1B68684A23F480331360DA
:10525000664B1B68654A23F4802313607B685B6898
:10526000002B13D0FCF774FC386108E0FCF770FCED
:1052700002463B69D31A642B01D9032307E25B4B37
:105280001B6803F40033002BF0D014E0FCF760FC43
:10529000386108E0FCF75CFC02463B69D31A642BDA
:1052A00001D90323F3E1514B1B6803F40033002BB6
:1052B000F0D100E000BF7B681B6803F00203002B05
:1052C00063D04A4B9B6803F00C03002B0BD0474B79
:1052D0009B6803F00C03082B1CD1444B5B6803F460
:1052E0008003002B16D1414B1B6803F00203002BF7
:1052F00005D07B68DB68012B01D00123C7E13B4B64
:105300001B6823F0F8027B681B69DB0037491343F5
:105310000B603AE07B68DB68002B20D0344B012225
:105320001A60FCF715FC386108E0FCF711FC024636
:105330003B69D31A022B01D90323A8E12B4B1B682D
:1053400003F00203002BF0D0284B1B6823F0F80277
:105350007B681B69DB00254913430B6015E0244B78
:1053600000221A60FCF7F4FB386108E0FCF7F0FB60
:1053700002463B69D31A022B01D9032387E11B4B59
:105380001B6803F00203002BF0D17B681B6803F05D
:105390000803002B36D07B685B69002B16D0154BB9
:1053A00001221A60FCF7D4FB386108E0FCF7D0FB5F
:1053B00002463B69D31A022B01D9032367E10B4B49
:1053C0005B6F03F00203002BF0D01BE0094B0022BF
:1053D0001A60FCF7BDFB38610EE0FCF7B9FB024632
:1053E0003B69D31A022B07D9032350E1003802404E
:1053F00000004742800E4742884B5B6F03F0020378
:10540000002BEAD17B681B6803F00403002B00F03B
:1054100097800023FB75814B1B6C03F08053002B9E
:105420000FD10023BB607D4B1B6C7C4A43F0805343
:1054300013647A4B1B6C03F08053BB60BB68012381
:10544000FB75774B1B6803F48073002B18D1744BEA
:105450001B68734A43F480731360FCF779FB38616F
:1054600008E0FCF775FB02463B69D31A022B01D911
:1054700003230CE16A4B1B6803F48073002BF0D00C
:105480007B689B68012B06D1644B1B6F634A43F01A
:10549000010313671CE07B689B68052B0CD15F4BF5
:1054A0001B6F5E4A43F0040313675C4B1B6F5B4A40
:1054B00043F0010313670BE0584B1B6F574A23F06F
:1054C00001031367554B1B6F544A23F00403136702
:1054D0007B689B68002B15D0FCF73AFB38610AE02B
:1054E000FCF736FB02463B69D31A41F288329342FD
:1054F00001D90323CBE0494B1B6F03F00203002BC0
:10550000EED014E0FCF724FB38610AE0FCF720FB46
:1055100002463B69D31A41F28832934201D90323F0
:10552000B5E03E4B1B6F03F00203002BEED1FB7D79
:10553000012B05D1394B1B6C384A23F0805313647F
:105540007B689B69002B00F0A180344B9B6803F0C3
:105550000C03082B5CD07B689B69022B41D1314B3B
:1055600000221A60FCF7F4FA386108E0FCF7F0FA60
:1055700002463B69D31A022B01D9032387E0274B4C
:105580001B6803F00073002BF0D17B68DA697B683D
:105590001B6A1A437B685B6A9B011A437B689B6AA0
:1055A0005B08013B1B041A437B68DB6A1B061B4933
:1055B00013434B601B4B01221A60FCF7C9FA386198
:1055C00008E0FCF7C5FA02463B69D31A022B01D961
:1055D00003235CE0114B1B6803F00073002BF0D039
:1055E00054E0104B00221A60FCF7B2FA386108E070
:1055F000FCF7AEFA02463B69D31A022B01D903230A
:1056000045E0064B1B6803F00073002BF0D13DE032
:105610007B689B69012B07D1012338E000380240E9
:1056200000700040600047421B4B5B68FB607B687A
:105630009B69012B28D0FB6803F480027B68DB693F
:105640009A4221D1FB6803F03F027B681B6A9A42B1
:105650001AD1FA6847F6C07313407A68526A920109
:10566000934211D1FB6803F440327B689B6A5B086C
:10567000013B1B049A4207D1FB6803F070627B6810
:10568000DB6A1B069A4201D0012300E00023184682
:105690001837BD4680BD00BF0038024080B584B0D9
:1056A00000AF786039607B68002B01D10123CCE02A
:1056B000684B1B6803F007033A689A420CD9654BA4
:1056C0003A68D2B21A70634B1B6803F007033A685A
:1056D0009A4201D00123B8E07B681B6803F0020303
:1056E000002B20D07B681B6803F00403002B05D03F
:1056F000594B9B68584A43F4E05393607B681B689E
:1057000003F00803002B05D0534B9B68524A43F427
:1057100060439360504B9B6823F0F0027B689B686A
:105720004D4913438B607B681B6803F00103002B1A
:1057300044D07B685B68012B07D1474B1B6803F49F
:105740000033002B19D101237FE07B685B68022BBB
:1057500003D07B685B68032B07D13F4B1B6803F0CA
:105760000073002B09D101236FE03B4B1B6803F052
:105770000203002B01D1012367E0374B9B6823F024
:1057800003027B685B68344913438B60FCF7E0F9E4
:10579000F8600AE0FCF7DCF90246FB68D31A41F234
:1057A0008832934201D903234FE02B4B9B6803F0CF
:1057B0000C027B685B689B009A42EBD1254B1B680F
:1057C00003F007033A689A420CD2224B3A68D2B2ED
:1057D0001A70204B1B6803F007033A689A4201D005
:1057E000012332E07B681B6803F00403002B08D020
:1057F000194B9B6823F4E0527B68DB68164913431E
:105800008B607B681B6803F00803002B09D0124BE8
:105810009B6823F460427B681B69DB000E491343DD
:105820008B6000F021F802460B4B9B681B0903F0CC
:105830000F030A49CB5C22FA03F3094A1360094BB0
:105840001B681846FCF740F9002318461037BD4680
:1058500080BD00BF003C0240003802406CC600081A
:1058600004000020080000202DE9B04F90B000AFE8
:1058700000237B630023FB6300233B630023BB63A4
:10588000594B9B6803F00C03082B0DD0082B00F23A
:10589000A180002B02D0042B03D09BE0534BBB63B1
:1058A0009BE0534BBB6398E04F4B5B6803F03F03B7
:1058B0007B634D4B5B6803F48003002B28D04A4B7D
:1058C0005B689B0900223B627A623B6AC3F3080073
:1058D0000021474B03FB01F2002300FB03F31344B9
:1058E000434AA0FB0212FA620A46BA62FA6A1344F9
:1058F000FB627B6B0022BB61FA61D7E90623D7E923
:105900000A01FAF789FE02460B461346FB6353E091
:10591000354B5B689B0900223B617A613B69C3F3AD
:10592000080A4FF0000B52465B464FF000004FF064
:105930000001590141EAD261500102460B46B2EB27
:105940000A0863EB0B094FF000024FF000034FEA27
:10595000891343EA98634FEA8812B2EB080463EBB9
:1059600009054FF000024FF00003EB0043EA5473C7
:10597000E20014461D4614EB0A033B6045EB0B03A3
:105980007B604FF000024FF00003D7E90045294645
:105990008B02214643EA915321468A02104619465A
:1059A0007B6B0022BB60FA60D7E90223FAF734FE72
:1059B00002460B461346FB630B4B5B681B0C03F064
:1059C000030301335B003B63FA6B3B6BB2FBF3F306
:1059D000BB6302E0054BBB6300BFBB6B184640379F
:1059E000BD46BDE8B08F00BF003802400024F4007F
:1059F00040787D0180B400AF034B1B681846BD465C
:105A00005DF8047B704700BF0400002080B500AF44
:105A1000FFF7F0FF0246054B9B689B0A03F0070364
:105A20000349CB5C22FA03F3184680BD00380240DC
:105A30007CC6000880B500AFFFF7DCFF0246054BCF
:105A40009B685B0B03F007030349CB5C22FA03F36B
:105A5000184680BD003802407CC6000880B582B080
:105A600000AF78607B68002B01D1012341E07B68A7
:105A700093F83D30DBB2002B06D17B68002283F81F
:105A80003C207868FBF728FE7B68022283F83D20E3
:105A90007B681A687B6804331946104600F0F4F8F6
:105AA0007B68012283F846207B68012283F83E2030
:105AB0007B68012283F83F207B68012283F8402025
:105AC0007B68012283F841207B68012283F8422011
:105AD0007B68012283F843207B68012283F84420FD
